:020000040800F2
:1000000040DD012061020008F94800081F3D00089A
:10001000F1460008810B0008156C00080000000084
:10002000000000000000000000000000A101000826
:100030004B14000800000000FD010008A960000842
:100040007B0200087B0200087B0200087B0200089C
:100050007B0200087B0200087B0200087B0200088C
:100060007B0200087B0200087B0200087B0200087C
:100070007B0200087B0200087B02000831130008A5
:100080007B0200087B0200087B0200087B0200085C
:100090007B0200087B0200087B0200087B0200084C
:1000A0007B0200087B0200087B0200087B0200083C
:1000B0007B0200087B0200087B0200087B0200082C
:1000C0007B0200087B0200087B0200087B0200081C
:1000D0007B020008656A0008756A0008856A0008E6
:1000E0007B0200087B0200087B0200087B020008FC
:1000F0007B0200087B0200087B0200087B020008EC
:100100007B0200087B0200087B0200087B020008DB
:100110007564000885640008A96100087B02000876
:100120007B0200087B0200087B0200087B020008BB
:100130007B0200087B0200087B0200087B020008AB
:100140007B0200087B0200087B0200087B0200089B
:100150007B0200087B0200087B020008956A000809
:100160007B0200087B0200087B0200087B0200087B
:100170007B0200087B0200087B02000800000000F0
:100180007B0200087B020008DFF810D000F0B0FB13
:1001900000480047C1860008AFF3008040DD012021
:1001A0002C4B19680868B0E8F04F80F30988BFF35A
:1001B0006F8F4FF0000080F311887047000000003F
:1001C00008480068006880F308884FF0000080F35A
:1001D000148862B661B6BFF34F8FBFF36F8F00DF35
:1001E00000BF00BF08ED00E0DFF80C00016841F43B
:1001F00070010160704700BF88ED00E0EFF30980F7
:10020000BFF36F8F134B1A681EF0100F08BF20ED5D
:10021000108A20E9F04F106009B44FF0500080F3CD
:100220001188BFF34F8FBFF36F8F0AF095FB4FF02C
:10023000000080F3118809BC19680868B0E8F04F25
:100240001EF0100F08BFB0EC108A80F30988BFF3CE
:100250006F8F704758C00120EFF305807047000092
:100260000648804706480047FEE7FEE7FEE7FEE750
:10027000FEE7FEE7FEE7FEE7FEE7FEE79561000822
:10028000890100082DE9F05F0546002092469B4653
:1002900088460646814640241BE02846414647469C
:1002A000224600F052F953465A46C01A914110D3E3
:1002B00011461846224600F039F92D1A67EB01085D
:1002C0004F4622460120002100F030F917EB0009CB
:1002D0004E41201EA4F10104DFDC484631462A4687
:1002E0004346BDE8F09F40EA01039B0703D009E0C5
:1002F00008C9121F08C0042AFAD203E011F8013B12
:1003000000F8013B521EF9D27047D2B201E000F86A
:10031000012B491EFBD270470022F6E710B51346A9
:100320000A4604461946FFF7F0FF204610BD421C5E
:1003300010F8011B0029FBD1801A70472DE9FE4FF0
:1003400081EA030404F0004421F0004100944FF0DE
:10035000000B23F0004350EA01045ED052EA03048C
:100360005BD0C3F30A54C1F30A552C44A4F2F3340E
:100370000194A0FB0254C1F3130141F48011C3F3B3
:10038000130343F4801301FB024400FB034E840A71
:10039000970A44EA815447EA8357A4FB0768029509
:1003A0008D0A05FB07854FEA932C04FB0C542705A7
:1003B000029D4FEA065847EA1637B5EB08056EEB83
:1003C000070C870E920E47EA811742EA8312A7FBB9
:1003D0000201B6EB0B0164EB00042B0D43EA0C3376
:1003E0005E1844EB1C50DA465146E7FB0201C5F3A8
:1003F00013044FEA0B3343EA14534FEA0432019CCF
:1004000043EA0603A4F10C040294009CCDE900B475
:1004100000F0F1F803B0BDE8F08F00200146F9E7E5
:100420000EB5C10F80EAE0700844CA07002140F20F
:1004300033438DE80E000A460B4600F0DCF803B0AB
:1004400000BD00F0004230F000400AD0C10D01F5BF
:100450006071C0F3160042EA0151C208400711431F
:10046000704700200146704730B5041E71F100044A
:1004700004DB4FF00044404264EB0101141E73F1B1
:10048000000405DB1C464FF00043524263EB0403BB
:100490008B4208BF824230BD30B5041E71F10004AA
:1004A00004DB4FF00044404264EB0101141E73F181
:1004B000000405DB1C464FF00043524263EB04038B
:1004C000994208BF904230BD01F0004330B421F0A2
:1004D000004150EA010206D00A0DA2F56072C1F394
:1004E0001301002A02DC30BC00207047440F44EAAC
:1004F000C104C100E01830BC00EBC25000F035B8B8
:1005000030B50B46014600202022012409E021FAE3
:1005100002F59D4205D303FA02F5491B04FA02F5E0
:100520002844151EA2F10102F1DC30BD202A04DBB3
:10053000203A00FA02F1002070479140C2F12003F6
:1005400020FA03F3194390407047202A04DB203A35
:1005500021FA02F00021704721FA02F3D040C2F1E3
:10056000200291400843194670470029A8BF7047F0
:10057000401C490008BF20F00100704710B4B0FAD9
:1005800080FC00FA0CF050EA010404BF10BC704774
:1005900049B1CCF1200421FA04F411FA0CF118BF8E
:1005A000012121430843A3EB0C01CB1D4FEA00615D
:1005B0004FEA102042BF002010BC704700EBC35030
:1005C00010440029A4BF10BC7047401C490008BF5C
:1005D00020F0010010BC704710B5141E73F1000428
:1005E00008DA401C41F1000192185B411A4301D125
:1005F00020F0010010BD2DE9F04D92469B4611B14F
:10060000B1FA81F202E0B0FA80F220329046FFF7B0
:100610008DFF04460F4640EA0A0041EA0B015346AB
:100620005A46084313D0114653EA010019D0C8F1C5
:1006300040025046FFF789FF05460E465046594690
:100640004246FFF773FF084305D0012004E020462F
:100650003946BDE8F08D0020054346EAE0762C439C
:1006600037430A986305E40AA0EB08000022FD0A5C
:1006700044EA47540A3002D500200146E9E7010563
:1006800010196941DDE9084500196941BDE8F04DDF
:10069000A2E72DE9FE4F804681EA0300C00F0C4619
:1006A000009021F0004123F00045B8EB0200A94181
:1006B00005D24046214690461C460B46024623F092
:1006C0000040104347D0270DC7F30A00C3F30A5177
:1006D0000290401A019040286BDAC3F3130040F4F3
:1006E000801B0098924620B10023D2EB030A63EBF3
:1006F0000B0B01985946C0F140025046FFF716FF18
:1007000006460D4650465946019A00F003F910EB93
:1007100008006141002487EA115284EAE7731A4312
:1007200040D0009A62B3019A012A4FEA075215DCC1
:10073000001B61EB02014FF0004202EA0752CDE9D3
:100740000042001C41F5801132462B46FFF753FF53
:1007500003B0BDE8F08F40462146F9E7001B61EB8E
:100760000201001C41F5801300185B412018A2F51E
:10077000001747EB030140EAD570B6196D4111E04F
:100780006D084FEA360645EAC0754FEA0752001B6E
:1007900061EB0201001C41F5801149084FEA30006D
:1007A0000019514132462B4603B0BDE8F04FFFF728
:1007B00013BF0098012240000023D0EB020263EB3C
:1007C000E073009821464FEAE074B8EB000061EB5B
:1007D0000401E9E783F000435BE781F0004158E75B
:1007E0002DE9F04D81EA030404F0004B21F00045AF
:1007F00014464FF0000A23F0004150EA050220D0D1
:1008000054EA01021DD0C5F30A570246C5F313038B
:10081000C1F31300C1F30A5640F4801543F480136A
:10082000A7EB0608101BD64608F2FD3873EB05004F
:1008300002D308F1010801E092185B41B8F1000F02
:1008400003DA00200146BDE8F08D00204FF480114E
:10085000064684460EE0171B73EB050705D3121BF3
:1008600063EB050306434CEA010C49084FEA3000EC
:1008700092185B4150EA0107EDD152EA030012D011
:1008800082EA040083EA0501084305D0101BAB414E
:1008900006D20122002306E000224FF0004302E0CE
:1008A0006FF0010253101AEB06004CEB085110EBED
:1008B0000A0041EB0B01BDE8F04DFFF78DBEC1F31F
:1008C0000A52C1F3130140F2FF3341F480119A42FE
:1008D00002DA00200146704740F233439A42A2F206
:1008E000334202DC5242FFF730BEFFF71FBE00006A
:1008F000064C074D06E0E06840F0010394E807006D
:1009000098471034AC42F6D3FFF742FC30BF0008E2
:1009100070BF0008202A06DBCB17203A41FA02F00C
:1009200043EAE07306E041FA02F3D040C2F120024C
:10093000914008431946704770B58C1810F8015B58
:1009400015F0070301D110F8013B2A1106D110F868
:10095000012B03E010F8016B01F8016B5B1EF9D16C
:100960002B0705D40023521E0DD401F8013BFAE7F2
:1009700010F8013BCB1A921C03E013F8015B01F85D
:10098000015B521EF9D5A142D8D3002070BD0000F2
:1009900010B51B48D0ED030AB0EE600A00F072FEFD
:1009A000044618480078844229D004EB8400164994
:1009B00001EB8000D0ED021AB0EE611A04EB840066
:1009C00001EB8000D0ED011AF0EE610A04EB840027
:1009D00001EB8000D0ED001AB0EE610A084808F083
:1009E00074F804EB8400084901EB8000D0ED040AA0
:1009F000B0EE600A024808F065F80248047010BDC5
:100A00006895012065C20120C0C0012010B51B48B7
:100A1000D0ED030AB0EE600A00F034FE0446184838
:100A20000078844229D004EB8400164901EB800051
:100A3000D0ED021AB0EE611A04EB840001EB8000E5
:100A4000D0ED011AF0EE610A04EB840001EB8000A6
:100A5000D0ED001AB0EE610A084808F036F804EB51
:100A60008400084901EB8000D0ED040AB0EE600A72
:100A7000024808F027F80248047010BDA495012030
:100A800066C2012024C1012010B51B48D0ED030A25
:100A9000B0EE600A00F0F6FD044618480078844283
:100AA00029D004EB8400164901EB8000D0ED021A36
:100AB000B0EE611A04EB840001EB8000D0ED011A66
:100AC000F0EE610A04EB840001EB8000D0ED001A27
:100AD000B0EE610A084807F0F8FF04EB840008490B
:100AE00001EB8000D0ED040AB0EE600A024807F086
:100AF000E9FF0248047010BDE095012067C20120A3
:100B000088C1012010B51B48D0ED030AB0EE600A81
:100B100000F0B8FD044618480078844229D004EB60
:100B20008400164901EB8000D0ED021AB0EE611A84
:100B300004EB840001EB8000D0ED011AF0EE610AB5
:100B400004EB840001EB8000D0ED001AB0EE610AE6
:100B5000084807F0BAFF04EB8400084901EB800065
:100B6000D0ED040AB0EE600A024807F0ABFF02487D
:100B7000047010BD1C96012068C20120ECC1012048
:100B800000BFFEE770B504460D46B4F5347F01DBC7
:100B9000002070BD302094FBF0F0401C2870302005
:100BA00094FBF0F600FB164081B20846CE1701EB2D
:100BB0001676C6F307161670CE1701EB16763611A9
:100BC000A1EB06161E700120E3E700002DE9F047B7
:100BD00004460F46904614B10FB1207A10B9002098
:100BE000BDE8F0873B4890F8200100EB4000394910
:100BF00001EBC00518212846FFF78EFB4246394617
:100C000005F11000FFF76FFB85F8178001F0C8F8B9
:100C1000E86000262078002805DD2078B0F5347FD4
:100C200001DA012000E000208146B9F1000F12D066
:100C3000A07818B9E07808B9207960B1207825F853
:100C4000160006EB4601281D0844618801802179C1
:100C50008170701CC6B26078002805DD6078B0F540
:100C6000347F01DA012000E000208246BAF1000F53
:100C700013D0607918B9A07908B9E07968B16078C3
:100C800025F8160006EB4601281D0844B4F80510A7
:100C90000180E1798170701CC6B2AE720EB900207D
:100CA0009EE70C4890F82001401C0C2190FBF1F2CB
:100CB00001FB1200074981F82001084690F8210144
:100CC0000C2805DA084690F82101401C81F8210122
:100CD000012085E7740A002010B54FF49271024894
:100CE000FFF71AFB10BD0000740A0020F0B5A9B090
:100CF000B84903A806F00EF903A8FFF718FB84B261
:100D00004FF47A73224603A9B34802F031FFB34887
:100D100090F82121B2A103A806F0FCF803A8FFF780
:100D200006FB84B24FF47A73224603A9AA4802F064
:100D30001FFFBB4903A806F0EDF803A8FFF7F7FA79
:100D400084B24FF47A73224603A9A34802F010FF3D
:100D5000A24890F8210180B9B2A103A806F0DAF800
:100D600003A8FFF7E4FA84B24FF47A73224603A98A
:100D7000994802F0FDFE29B0F0BD0026FCE006EB2C
:100D80004600964901EBC004721CAF4903A806F067
:100D9000C1F803A8FFF7CBFA85B24FF47A732A465D
:100DA00003A98D4802F0E4FEA8A103A806F0B2F85A
:100DB00003A8FFF7BCFA85B24FF47A732A4603A959
:100DC000854802F0D5FE00250EE004F11000425DDA
:100DD000A2A101A806F09EF84FF47A73032201A99C
:100DE0007D4802F0C5FE6D1CE07DA842EDDCE57D8E
:100DF00007E04FF47A7303229AA1774802F0B8FE15
:100E00006D1C072DF5DB98A103A806F083F803A855
:100E1000FFF78DFA85B24FF47A732A4603A96E481C
:100E200002F0A6FE97A103A8E26806F073F803A8F3
:100E3000FFF77DFA85B24FF47A732A4603A9664814
:100E400002F096FEA27A9EA103A806F063F803A81A
:100E5000FFF76DFA85B24FF47A732A4603A95E480C
:100E600002F086FEA07A00280EDDA54903A806F050
:100E700051F803A8FFF75BFA85B24FF47A732A465C
:100E800003A9554802F074FE002561E034F81530DE
:100E90006A1C9CA103A806F03DF803A8FFF747FAD7
:100EA00087B24FF47A733A4603A94B4802F060FECA
:100EB00005EB4501201D0844807805EB45010090B5
:100EC000201D0844437805EB4501201D425C9CA190
:100ED00003A806F01FF803A8FFF729FA87B24FF41A
:100EE0007A733A4603A93C4802F042FE05EB4501FD
:100EF000201D0844807805EB45010090201D084422
:100F0000437805EB4501201D425C9DA103A806F036
:100F100001F803A8FFF70BFA87B24FF47A733A4649
:100F200003A92D4802F024FEA07A401EA8420EDD3F
:100F3000A24903A805F0EEFF03A8FFF7F8F987B26E
:100F40004FF47A733A4603A9234802F011FE6D1C50
:100F5000A07AA8429ADC9A4903A805F0DBFF03A80F
:100F6000FFF7E5F985B24FF47A732A4603A91A48C8
:100F700002F0FEFD701CC6B2184890F82101B04284
:100F80003FF7FDAE154890F821210C238DA103A851
:100F900005F0C0FF03A8FFF7CAF984B24FF47A73D3
:100FA000224603A90C4802F0E3FD0C4890F82021EA
:100FB0008DA103A805F0AEFF03A8FFF7B8F984B22E
:100FC0004FF47A73224603A9034802F0D1FD00BF13
:100FD000D1E60000A8BC000854040020740A0020D8
:100FE000A855202020202020202020BFA8C6ACCA41
:100FF000FDBEDDD1ADBBB7BBBAB3E5C7F820282530
:10100000642F313220D5C529202020202020202007
:101010002020202020202020A8550D0A00000000BC
:1010200024BD00085BCCE1CABE5D20BBBAB3E5C7F6
:10103000F8CEAABFD5A3ACD4DDCEDEBFA8C6ACCA5D
:10104000FDBEDD0D0A0D0A000CBE0008A9A6205544
:1010500049443A202020202020000000253032582A
:101060002000000020202000202020202020202000
:101070002020202020202020202020202020A9A661
:101080000D0A0000A9A620CAB1BCE4B4C13A2020D0
:1010900020256C75206D732020202020202020200A
:1010A0002020202020202020202020202020202040
:1010B0002020202020202020202020A9A60D0A006A
:1010C000A9A620D3D0D0A7B7E5CEBB3A202564206F
:1010D000B8F62020202020202020202020202020A2
:1010E0002020202020202020202020202020202000
:1010F000202020202020202020A9A60D0A0000006A
:10110000CCBE0008A9A620B7E5256420B5C0D6B797
:101110003A20252D35752020202020202020202039
:1011200020202020202020202020202020202020BF
:10113000202020202020202020A9A60D0A00000029
:10114000A9A6202020C4DCC6D728484558293A2023
:101150005B25303258202530325820253032585DFA
:10116000202020202020202020202020202020207F
:10117000202020202020202020A9A60D0A000000E9
:10118000A9A6202020C4DCC6D728444543293A20FC
:101190005B25337520253375202533755D20202090
:1011A000202020202020202020202020202020203F
:1011B00020202020A9A60D0A000000009CBD0008E8
:1011C00068BE00080D0A5BCDB3BCC65D20B5B1C7D3
:1011D000B0B4E6B4A23A2025642F256420D5C5BF5B
:1011E000A8C6AC0D0A0000005BCDB3BCC65D20CF25
:1011F000C2B4CED0B4C8EBCBF7D2FD3A2025640DF3
:101200000A0D0A0003220021012009F09FFC1E495B
:1012100008600846006850B900BF502080F311886C
:10122000BFF34F8FBFF36F8F00BF00BFFEE70021FA
:101230001548006809F016FF14A005F041FE18A03B
:1012400009F0F6F800BF4FF0FF310F48006809F0D1
:1012500009FF0128F7D114A009F0EAF819A009F054
:10126000E7F81FA009F0E4F824A009F0E1F82A4803
:10127000007810B901202849087028A005F020FE48
:1012800000202A490870DEE700C0012048656C6C28
:101290006F204672656552544F530D0A00000000DE
:1012A00072657374FFFFFF006D61696E2E74322EDC
:1012B0007478743D22636F6E6E65637422FFFFFF66
:1012C00000000000726F61642E74322E7478743DD9
:1012D00022636F6E6E65637422FFFFFF00000000E3
:1012E0007265636F72642E74322E7478743D22635B
:1012F0006F6E6E65637422FFFFFF00007365747488
:10130000696E672E74322E7478743D22636F6E6E30
:1013100065637422FFFFFF0006C00120476574204B
:1013200053656D6170686F72650D0A0004C001201D
:1013300010B5024800F040FA10BD0000040600207D
:101340000146087810381823B0FBF3F20848805C97
:10135000C865032A05D908686FF30900001D886570
:1013600003E008686FF309008865886D7047000026
:1013700020BB0008014600208A6A8B69CBB932B1D4
:10138000012A0DD0022A03D0032A10D10EE000BF9B
:10139000CB6A03F08073B3F1807F00D1012007E0B6
:1013A000CB6AB3F1C07F00D1012001E000E000BFB3
:1013B00034E08B69B3F5005F1AD132B1012A07D04E
:1013C000022A03D0032A11D10AE000BF01200EE057
:1013D000CB6A03F08073B3F1807F00D1012006E077
:1013E000CB6AB3F1C07F00D1012000E000BF15E05F
:1013F00032B1012A05D0022A04D0032A0CD103E01D
:1014000000BF00BF012008E0CB6A03F08073B3F196
:10141000807F00D1012000E000BF00BF704730B5E1
:101420000468246824F4802405682C6004686360E0
:101430008468402C04D10468A2600468E16003E081
:101440000468A1600468E26030BD704770B504466E
:101450000D461646256026713C21206801F000FCEF
:101460000020216809684862E080A0609FED020AC0
:1014700084ED030A70BD00000000000001680968E7
:10148000496A09B2C180017911B9B0F9061002E0C8
:10149000B0F90610494209B2C18000210268126801
:1014A0005162B0F90620816811448160B0F90610DC
:1014B00000EE101AB8EEC00ADFED070A80EE201A1F
:1014C0009FED060A21EE000ADFED050A80EE201AE4
:1014D00080ED031A704700000000A544E25CA341C0
:1014E0000AD7233C10B5002209490A48FFF7AEFF8E
:1014F000012209490948FFF7A9FF002208490948C4
:10150000FFF7A4FF002208490848FFF79FFF10BD1E
:10151000ECD40120A494012034D50120B4940120FE
:101520007CD50120C4940120C4D50120D49401208D
:1015300010B50648FFF7A2FF0548FFF79FFF0548D3
:10154000FFF79CFF0448FFF799FF10BDA49401200A
:10155000B4940120C4940120D494012072B600BF39
:10156000FEE72DE9FF4F87B083461E46DDE914787C
:10157000DDE91654B8F1000F23D1B146781E00F012
:10158000FF0A57B9012E03D100200BB0BDE8F08F40
:10159000701E00F0FF094FF0020A03A84B46CDE988
:1015A00000A05846DDE9081204F0E2F908B900206D
:1015B000EBE79DF81B002070287860706878A070B9
:1015C0005DE0B8F1010F21D1B146781E00F0FF0AAD
:1015D00047B9012E01D10020D7E7701E00F0FF09A6
:1015E0004FF0020A03A84B46CDE900A05846DDE9BA
:1015F000081204F0BDF908B90020C6E79DF81B00E9
:101600002070287860706878A07038E0B8F10E0F0C
:101610000BDCA8F10100285C207015F80800607050
:1016200008F10100285CA07029E0B8F10F0F26D165
:10163000A87B2070E87B6070022F01D1701C00E055
:10164000304600F0FF09022F01D1002000E0781C95
:1016500000F0FF0AB9F10F0F01DD002095E703A8A4
:101660004B46CDE900A05846DDE9081204F080F9A8
:1016700008B9002089E79DF80C00A07000BF012088
:1016800083E70000F3EE0E0AB4EEE00AF1EE10FA82
:1016900001D200207047F3EE0E0AB4EEE00AF1EE3C
:1016A00010FA08DBDFED0D0AB4EEE00AF1EE10FAF5
:1016B00001D20120EEE7DFED090AB4EEE00AF1EE17
:1016C00010FA08DBDFED060AB4EEE00AF1EE10FADC
:1016D00001D20220DEE70320DCE7000000006C42BC
:1016E0000000A04270B50446A56D00F059FB064607
:1016F00094F83500022808D08020606500BF0020E3
:1017000084F8340000BF012070BD2068006820F01C
:101710001600216808602068406920F08000216878
:101720004861206C08B9A06C28B12068006820F0DE
:101730000800216808602068006820F00100216826
:10174000086010E000F02CFB801B05280BD920203E
:101750006065032084F8350000BF002084F8340061
:1017600000BF0320D0E72068006800F001000028D7
:10177000E8D194F85C103F208840A860012084F8EC
:10178000350000BF002084F8340000BF00BFBBE775
:10179000014691F83500022803D0802048650120D9
:1017A0007047052081F835000868006820F00100C6
:1017B0000A6810600020F3E7F8B5044600200090A6
:1017C0008C4800684FF41651B0FBF1F7A56D2E68F8
:1017D00094F85C1008208840304098B12068006878
:1017E00000F0040070B12068006820F00400216857
:1017F000086094F85C1008208840A860606D40F094
:101800000100606594F85C1001208840304068B1A8
:101810002068406900F0800040B194F85C1001201D
:101820008840A860606D40F00200606594F85C102C
:1018300004208840304068B12068006800F0020051
:1018400040B194F85C1004208840A860606D40F0BE
:101850000400606594F85C1010208840304078B334
:101860002068006800F0080050B394F85C10102065
:101870008840A8602068006800F4802080B120685B
:10188000006800F4002028B9206CC8B12046216C03
:10189000884715E0A06C98B12046A16C88470FE0FE
:1018A0002068006800F4807028B92068006820F083
:1018B000080021680860206C10B12046216C884720
:1018C00094F85C10202088403040002865D02068C3
:1018D000006800F0100000285FD094F85C10202011
:1018E0008840A86094F83500052828D12068006851
:1018F00020F01600216808602068406920F0800010
:1019000021684861206C08B9A06C28B12068006883
:1019100020F008002168086094F85C103F2088409F
:10192000A860012084F8350000BF002084F834004E
:1019300000BF206D10B12046216D8847F8BD20689A
:10194000006800F4802080B12068006800F4002066
:1019500028B9606C10B12046616C88471DE0E06BCF
:10196000D8B12046E16B884717E02068006800F492
:10197000807068B92068006820F010002168086055
:10198000012084F8350000BF002084F8340000BF37
:10199000E06B10B12046E16B8847606D38B3606D35
:1019A00000F00100F0B1052084F8350020680068DF
:1019B00020F001002168086000BF0098401C0090E2
:1019C000B84200D905E02068006800F00100002856
:1019D000F3D100BF012084F8350000BF002084F857
:1019E000340000BFE06C10B12046E16C884700BFB6
:1019F000A4E7000054C001202DE9F0410446002571
:101A000000F0CEF9074614B90120BDE8F081606A04
:101A100000B100BF022084F8350000BF002084F828
:101A2000340000BF2068006820F0010021680860D1
:101A30000AE000F0B5F9C01B052805D92020606533
:101A4000032084F83500E0E72068006800F001001A
:101A50000028EED12068056821480540D4E901013D
:101A60000843E16808432169084361690843A169A3
:101A70000843E1690843216A08430543606A042872
:101A800003D1D4E90B0108430543206805602068B1
:101A9000456925F00705606A0543606A04280DD191
:101AA000A06A0543E06A48B12046FFF763FC28B10D
:101AB00040206065012084F83500A6E72068456174
:101AC0002046FFF73DFC064694F85C103F20884016
:101AD000B06000206065012084F83500002094E7A4
:101AE0003F8010F02DE9F04704460D4616461F468C
:101AF0004FF00008D4F8589000BF94F83400012843
:101B000002D10220BDE8F087012084F8340000BF34
:101B100094F83500012825D1022084F835000020F2
:101B200060653B46324629462046FFF778FC94F82C
:101B30005C103F208840C9F808002068006840F029
:101B4000160021680860206C28B12068006840F009
:101B50000800216808602068006840F001002168E2
:101B6000086006E000BF002084F8340000BF4FF09A
:101B700002084046C6E7000070B5044600F010F9C0
:101B800006462546681C10B104480078054400BF8D
:101B900000F006F9801BA842FAD370BD50C00120A6
:101BA000F8B502460B460025002400200021D6E0AF
:101BB000012606FA01F51E6806EA0504AC4274D156
:101BC0001E7906F00306012E04D01E7906F00306E6
:101BD000022E13D190684F000326BE40B0434F0041
:101BE000DE68BE4030439060506801268E40B043AE
:101BF0001E79C6F300168E40304350601E7906F001
:101C00000306032E09D0D0684F000326BE40B04320
:101C10004F009E68BE403043D0601E7906F0030638
:101C2000022E13D1CF0802F1200656F827004E07E6
:101C3000F70E0F26BE40B0434F07FF0E1E69BE4091
:101C40003043CF0802F1200646F8270010684F0005
:101C50000326BE40B0431E7906F003064F00BE4087
:101C6000304310605E6806F44036002E76D000BF28
:101C7000002600963C4E366846F480463A4F3E6059
:101C80003E46366806F48046009600BF00BF374ED9
:101C90008F0856F827008E07370F0F26BE40B04337
:101CA000334EB24202D1002624E057E0314EB24218
:101CB00001D101261EE0304EB24201D1022619E0C8
:101CC0002E4EB24201D1032614E02D4EB24201D174
:101CD00004260FE02B4EB24201D105260AE02A4E1F
:101CE000B24201D1062605E0284EB24201D10726B4
:101CF00000E008268F073F0FBE4030431B4E8F0881
:101D000046F82700224E3068A0435E6806F480162D
:101D100006B120431E4E3060361D3068A0435E6819
:101D200006F4001606B12043194E361D3060184ED9
:101D3000361F3068A0435E6806F4003606B12043C3
:101D4000134E361F3060361F3068A0435E6806F4BD
:101D5000803606B120430E4E083E3060491C1029E3
:101D6000FFF426AFF8BD00004438024008380140B7
:101D7000000002400004024000080240000C024043
:101D8000001002400014024000180240001C0240F3
:101D9000083C01400AB1816101E00B048361704796
:101DA000014800687047000048C0012003480068EF
:101DB00003490978084401490860704748C0012078
:101DC00050C0012010B50D48006840F400700B4968
:101DD00008600846006840F48060086008460068B3
:101DE00040F480700860032000F0E0F80F2000F05D
:101DF00007F800F05FF8002010BD0000003C024032
:101E00002DE9F04188B004460027B84600BF002005
:101E100001902348006840F01000214908600846FE
:101E2000006800F01000019000BF00BF02A903A8E5
:101E300000F092F9069F1FB900F0B6F9054602E0DE
:101E400000F0B2F945001748B5FBF0F0A0F1010829
:101E500015481649086040F2E7311448C160C0F8DF
:101E60000480002101618160816100F0BFFC0646B1
:101E700096B90E4800F04EFD06466EB9362000F0C9
:101E800043F8102C07D200222146362000F050F8EB
:101E90000748046000E00126304608B0BDE8F08144
:101EA0004038024040420F00001000402CD7012073
:101EB0004CC0012008B500BF002000901148006808
:101EC00040F480400F4908600846006800F48040F4
:101ED000009000BF00BF00BF00200090081F0068F6
:101EE00040F08050091F08600846006800F08050EC
:101EF000009000BF00BF00220F21901E00F018F8D4
:101F000008BD0000443802400146084600280DDBA9
:101F100000BF00BF00F01F0301229A4043099B004D
:101F200003F1E023C3F8002100BF00BF00BF7047EA
:101F30002DE9F05F80460D461646002705F02CF887
:101F4000074639462A46334601F00700C0F1070A22
:101F5000BAF1040F02D94FF0040A01E0C0F1070AF8
:101F6000D14600F1040ABAF1070F02D24FF0000A7D
:101F700001E0A0F1030AD4464FF0010A0AFA09FA77
:101F8000AAF1010A0AEA020A0AFA0CFA4FF0010B56
:101F90000BFA0CFBABF1010B0BEA030B4AEA0B0447
:101FA0002146404605F000F8BDE8F09F00BF00F074
:101FB0000702064B19684FF6FF031940044B0B4309
:101FC00043EA0221014B196000BF70470CED00E0AD
:101FD0000000FA0570B504460D460CB9012070BD2D
:101FE0005848006800F00700A84209D255490D7012
:101FF0000846006800F00700A84201D00120EEE783
:10200000207800F0020002281DD1207800F00400A2
:10201000042805D14C48006840F4E0504A49086063
:10202000207800F00800082805D14748006840F4EF
:102030006040454908604448006820F0F000A1680D
:10204000084341490860207800F00100A8B36068A7
:10205000012807D13C4808380068C0F34040B8B9AF
:102060000120BCE76068022802D06068032807D11D
:10207000354808380068C0F3406048B90120AEE731
:10208000314808380068C0F3400008B90120A6E7CD
:102090002D48006820F00300616808432A49086061
:1020A000FFF77EFE064609E0FFF77AFE801B41F24D
:1020B0008831884202D9032091E707E0224800686E
:1020C00000F00C006168B0EB810FEDD11D48006895
:1020D00000F00700A84209D91A490D7008460068A7
:1020E00000F00700A84201D0012078E7207800F036
:1020F0000400042807D11448006820F4E050E16887
:10210000084311490860207800F00800082808D129
:102110000D48006820F46040216940EAC1000A4986
:10212000086000F061F808490968C1F30311074A23
:10213000515CC8400649086006480068FFF760FE29
:1021400000204CE7003C02400838024028BB000851
:1021500054C001204CC001200F2202600D4A1268B9
:1021600002F0030242600B4A126802F0F002826041
:10217000084A126802F4E052C260064A126802F489
:102180006042D2080261044A126802F007020A6043
:102190007047000008380240003C024001480068D7
:1021A0007047000054C0012000B5FFF7F7FF044955
:1021B0000968C1F38221034A515CC84000BD000098
:1021C0000838024038BB000800B5FFF7E7FF0449B4
:1021D0000968C1F34231034A515CC84000BD0000A8
:1021E0000838024038BB00082DE9F04700240025DC
:1021F0000026A1462548006800F00C0020B1042804
:1022000005D008283AD105E0DFF8849039E0DFF8FE
:10221000849036E01D48001F006800F03F041B4812
:10222000001F006800F4800078B11A481749091FA0
:102230000968C1F38811A0FB017001462246002302
:102240003846FEF71FF805460EE011480F49091FF2
:102250000968C1F38811A0FB0170014622460023E2
:102260003846FEF70FF805460848001F0068C0F31F
:102270000140401C4600B5FBF6F902E0DFF8109083
:1022800000BF00BF4846BDE8F087000008380240A4
:102290000024F40000127A00F8B504460CB90120BD
:1022A000F8BD207800F00100002874D0F9480068DB
:1022B00000F00C0004280DD0F648006800F00C0077
:1022C000082813D1F348001F006800F48000B0F51F
:1022D000800F0BD1EF4808380068C0F34040002859
:1022E00059D06068002856D10120D9E700BF606846
:1022F000B0F5803F08D1E7480838006840F48030E6
:10230000E449083908601EE06068B0F5A02F0DD1DF
:10231000E0480838006840F48020DE490839086049
:102320000846006840F4803008600CE0D94808385E
:10233000006820F48030D7490839086008460068F2
:1023400020F48020086000BF606890B1FFF728FD8E
:10235000054606E0FFF724FD401B642801D9032051
:102360009EE7CC4808380068C0F340400028F1D010
:1023700011E0FFF715FD054606E0FFF711FD401BD4
:10238000642801D903208BE7C24808380068C0F3ED
:1023900040400028F1D1207800F0020002285FD1EF
:1023A000BC48006800F00C0058B1BA48006800F062
:1023B0000C0008281CD1B748001F006800F48000FA
:1023C000B0B9B44808380068C0F3400020B1E068F4
:1023D000012801D0012063E7AE480838006820F0EA
:1023E000F800216940EAC100AA490839086037E0CD
:1023F000E06800B30120A8490860FFF7D1FC05465A
:1024000006E0FFF7CDFC401B022801D9032047E777
:10241000A04808380068C0F340000028F1D09D486B
:102420000838006820F0F800216940EAC1009949A5
:102430000839086014E0002097490860FFF7B0FCF5
:10244000054606E0FFF7ACFC401B022801D903203B
:1024500026E7904808380068C0F340000028F1D112
:10246000207800F0080008282CD16069A8B101206C
:102470008A490860FFF794FC054606E0FFF790FCE8
:10248000401B022801D903200AE782486C3000680B
:10249000C0F340000028F1D014E000207F4908601C
:1024A000FFF77EFC054606E0FFF77AFC401B02289A
:1024B00001D90320F4E677486C300068C0F340008F
:1024C0000028F1D1207800F00400042870D1002702
:1024D00070483830006800F0805090B900BF00208C
:1024E00000906C483830006840F0805069493831BD
:1024F00008600846006800F08050009000BF00BFF0
:1025000001276748006800F48070B0B9644800682B
:1025100040F4807062490860FFF742FC054606E01F
:10252000FFF73EFC401B022801D90320B8E65C48B7
:10253000006800F480700028F2D000BFA068012875
:1025400008D154486830006840F0010051496831B2
:1025500008601DE0A06805280DD14E48683000686D
:1025600040F004004B49683108600846006840F0BC
:10257000010008600CE047486830006820F0010066
:102580004449683108600846006820F0040008608B
:1025900000BFA068A8B1FFF703FC054609E0FFF7FC
:1025A000FFFB401B41F28831884202D9032077E6C5
:1025B00026E0384868300068C0F340000028EED0BC
:1025C00013E0FFF7EDFB054608E0FFF7E9FB401BD2
:1025D00041F28831884201D9032061E62D486830F4
:1025E0000068C0F340000028EFD1012F07D129482F
:1025F0003830006820F0805026493831086000BF2C
:10260000A069002845D02348006800F00C00082885
:102610005DD0A069022845D100201F490866FFF758
:10262000BFFB054606E0FFF7BBFB401B022801D9B4
:10263000032035E6174808380068C0F340600028DA
:10264000F1D1D4E907010843616A40EA811101220E
:10265000A06AC2EB500041EA00412C20005D41EA33
:1026600000600C49091F086001200B490866FFF74C
:1026700097FB054606E0FFF793FB401B022801D9B4
:1026800003200DE6034808380068C0F340600028C6
:10269000F1D049E00838024000004742800E47422E
:1026A00000700040002021490866FFF779FB0546CD
:1026B00006E0FFF775FB401B022801D90320EFE578
:1026C0001B480068C0F340600028F2D12CE0A069EC
:1026D000012800D1E4E51648001D0668A06901281C
:1026E00020D006F48001E06981421BD106F03F0151
:1026F000206A814216D147F6C0703040616AB0EB63
:10270000811F0FD106F440310122A06AC2EB5000B4
:10271000B1EB004F06D106F070612C20005DB1EBEB
:10272000006F01D00120BBE50020B9E50000474261
:10273000003802407047704730B502460B4600BF74
:1027400092F83C00012801D1022030BD012082F81E
:102750003C0000BF022082F83D0010684468106809
:10276000816824F070041868044310684460184DB0
:102770001068A8421BD01068B0F1804F17D0154DDB
:102780001068A84213D0144D1068A8420FD0134D02
:102790001068A8420BD0124D1068A84207D0114D06
:1027A0001068A84203D0104D1068A84205D121F04E
:1027B00080015868014310688160012082F83D0063
:1027C00000BF002082F83C0000BF00BFBDE7000052
:1027D000000001400004004000080040000C0040E0
:1027E00000040140004001400018004010B50446BC
:1027F0000CB9012010BD94F83D0028B9002084F8E0
:102800003C00204600F026F8022084F83D00211DFF
:10281000206803F0D1FC012084F8460000BF84F852
:102820003E0001213F200155402001554120015526
:1028300000BF00BF012084F842004320015544201E
:1028400001554520015500BF012084F83D000020BE
:10285000D0E7000008B52A4A016891420FD100BFB5
:10286000002100912749096841F40031254A11608F
:102870001146096801F40031009100BF3FE0224A8F
:10288000016891420FD100BF002100911D490968E4
:1028900041F480211B4A11601146096801F480212E
:1028A000009100BF2BE0194A0168914211D100BF8D
:1028B000002100911349091F096841F08001114A64
:1028C000121F11601146096801F08001009100BFDC
:1028D00015E00F4A0168914211D100BF002100911B
:1028E0000849091F096841F48071064A121F1160E6
:1028F0001146096801F48071009100BF00BF08BD56
:10290000004401404438024000480140001C00409F
:1029100000200040014691F83D00012801D001202F
:102920007047022081F83D000868C06840F001004F
:102930000B68D8601A4B086898421BD00868B0F141
:10294000804F17D0174B0868984213D0164B086871
:1029500098420FD0154B086898420BD0144B08686A
:10296000984207D0134B0868984203D0124B08686E
:1029700098420CD10868806800F00702062A0CD043
:102980000868006840F001000B68186005E00868FE
:10299000006840F001000B6818600020C0E70000EC
:1029A000000001400004004000080040000C00400E
:1029B0000004014000400140001800402DE9F041B2
:1029C00004460D4614B90120BDE8F08194F83D009D
:1029D00028B9002084F83C00204600F053F802207B
:1029E00084F83D002068806844F20701884321682C
:1029F0008860211D206803F0DFFB2068D0F8088084
:102A0000206886692068076A286840EA080840F25A
:102A100003308643A969A86840EA0120064340F6CE
:102A20000C4086434FF2F0008643E969E86840EACB
:102A30000120064328690001296A40EA0130064363
:102A400027F0220727F088076969686840EA0110C3
:102A500007432068C0F80880206886612068076204
:102A6000012084F8460084F83E0001213F200155F2
:102A7000012084F8420043200155012084F83D00E4
:102A80000020A1E710B586B00446142101A8FDF787
:102A900043FC6C492068884230D100BF0020009080
:102AA0006948006840F0010067490860084600680E
:102AB00000F00100009000BF00BF00BF00200090A8
:102AC00061481438006840F010005F49143908600C
:102AD0000846006800F01000009000BF00BF4FF4EF
:102AE00020600190022002900020039004900120B9
:102AF000059001A95548FFF753F8A1E02068B0F10F
:102B0000804F31D100BF002000904F48001F006867
:102B100040F001004C49091F08600846006800F0B9
:102B20000100009000BF00BF00BF00200090464899
:102B30001438006840F00100434914390860084621
:102B4000006800F00100009000BF00BF222001904B
:102B5000022002900020039004900120059001A91A
:102B60003B48FFF71DF86BE03A492068884231D1B5
:102B700000BF002000903448001F006840F00200B1
:102B80003149091F08600846006800F00200009003
:102B900000BF00BF00BF002000902B481438006821
:102BA00040F001002849143908600846006800F028
:102BB0000100009000BF00BFC020019002200290E1
:102BC0000020039004900220059001A92048FEF700
:102BD000E7FF35E020492068884231D100BF00205E
:102BE00000901948001F006840F004001649091FB2
:102BF00008600846006800F00400009000BF00BFB5
:102C000000BF0020009010481438006840F0080011
:102C10000D49143908600846006800F0080000906B
:102C200000BF00BF4FF440500190022002900020EE
:102C3000039004900220059001A90848FEF7B0FF18
:102C400006B010BD000001404438024000100240B0
:102C5000000002400004004000080040000C024058
:102C60002DE9F04304460D4694F83E603F20075D91
:102C700094F84280432010F804906DB9012E02D1DF
:102C8000B8F1010F02D00120BDE8F083022084F8E2
:102C90003E0084F8420025E0042D0CD1012F02D122
:102CA000B9F1010F01D00120EEE702213F200155CB
:102CB0004320015516E0012E07D1012F05D1B8F1AF
:102CC000010F02D1B9F1010F01D00120DCE7022090
:102CD00084F83E0002213F200155022084F8420082
:102CE0004320015515B1042D0CD105E0012200212E
:102CF000206803F0D1FA10E001220421206803F0DB
:102D0000CBFA0AE001220021206803F0C5FA012273
:102D10000421206803F0C0FA00BF00BF20680068EB
:102D200040F00100216808600020ADE7704770B5F1
:102D300004462068C5682068066906F0020002287B
:102D400019D105F00200022815D1401F2168086141
:102D5000012020772068806900F0030018B1204628
:102D6000FFF7E4FF05E0204600F034F9204600F0CC
:102D7000E8F90020207706F00400042819D105F0B6
:102D80000400042815D1C04321680861022020777F
:102D90002068806900F4407018B12046FFF7C6FF34
:102DA00005E0204600F016F9204600F0CAF90020A0
:102DB000207706F00800082819D105F00800082837
:102DC00015D1C04321680861042020772068C069BC
:102DD00000F0030018B12046FFF7A8FF05E02046E9
:102DE00000F0F8F8204600F0ACF90020207706F05B
:102DF0001000102819D105F01000102815D1C0437B
:102E000021680861082020772068C06900F44070BC
:102E100018B12046FFF78AFF05E0204600F0DAF8F7
:102E2000204600F08EF90020207706F0010048B11E
:102E300005F0010030B16FF0010021680861204603
:102E400000F006FA06F08000802809D105F0800025
:102E5000802805D1C043216808612046FFF76AFC3D
:102E600006F04000402809D105F04000402805D177
:102E7000C04321680861204600F0F6F906F0200002
:102E8000202809D105F02000202805D1C043216861
:102E900008612046FFF74FFC70BD000010B586B0FA
:102EA0000446142101A8FDF737FA444920688842F6
:102EB0001DD100BF002000904148006840F0200074
:102EC0003F4908600846006800F02000009000BFFD
:102ED00000BF402001900220029000200390049047
:102EE0000320059001A93748FEF75AFE64E03649F1
:102EF000206888421DD100BF002000903048006843
:102F000040F020002E4908600846006800F02000CC
:102F1000009000BF00BF802001900220029000209E
:102F2000039004900320059001A92648FEF738FE7F
:102F300042E02649206888421DD100BF0020009051
:102F40001F48006840F020001D49086008460068DE
:102F500000F02000009000BF00BF88150190022003
:102F600002900020039004900920059001A91548C3
:102F7000FEF716FE20E01649206888421CD100BFEB
:102F8000002000900E48006840F020000C490860C6
:102F90000846006800F02000009000BF00BF481500
:102FA00001900220029000200390049009200590D7
:102FB00001A90448FEF7F4FD06B010BD004401402D
:102FC000303802400014024000480140001C00401C
:102FD0000020004070472DE9F04104460D4616469A
:102FE000002700BF94F83C00012802D10220BDE870
:102FF000F081012084F83C0000BF36B1042E1BD0C4
:10300000082E31D00C2E5ED145E02946206803F011
:1030100055F92068806940F00800216888612068BF
:10302000806920F00400216888612068806929692E
:1030300008432168886148E02946206803F076F952
:103040002068806940F40060216888612068806998
:1030500020F480602168886120688069296940EADD
:1030600001202168886130E02946206803F09CF93E
:103070002068C06940F008002168C8612068C06904
:1030800020F004002168C8612068C06929690843EC
:103090002168C86119E02946206803F0C1F9206859
:1030A000C06940F400602168C8612068C06920F4EC
:1030B00080602168C8612068C069296940EA0120F0
:1030C0002168C86101E0012700BF00BF00BF0020E8
:1030D00084F83C0000BF384689E710B504460CB9B7
:1030E000012010BD94F83D0028B9002084F83C0070
:1030F000204600F025F8022084F83D00211D2068BC
:1031000003F05AF8012084F8460000BF84F83E001E
:1031100001213F200155402001554120015500BFAC
:1031200000BF012084F8420043200155442001558E
:103130004520015500BF012084F83D000020D0E764
:103140007047704770B504460D4615B994F83E00B7
:103150000BE0042D02D13F20005D06E0082D02D1D6
:103160004020005D01E04120005D012801D00120E8
:1031700070BD1DB9022084F83E000EE0042D03D17D
:1031800002213F20015508E0082D03D102214020F3
:10319000015502E002214120015501222946206803
:1031A00003F07AF823492068884203D02249206836
:1031B000884201D1012000E0002028B12068406C45
:1031C00040F40040216848641A49206888421BD0B6
:1031D0002068B0F1804F17D018492068884213D07A
:1031E0001749206888420FD01649206888420BD0C2
:1031F00011492068884207D013492068884203D0CB
:103200001249206888420CD12068806800F00706C7
:10321000062E0CD02068006840F00100216808608C
:1032200005E02068006840F0010021680860002087
:103230009EE700000000014000040140000400403F
:1032400000080040000C0040004001400018004011
:1032500010B5044603492068884201D1FEF7A6FD57
:1032600010BD00000010004070477047704700001C
:103270002DE9F84F0446206805682068C668206874
:1032800047694FF00009CA4605F00F09B9F1000F70
:103290000AD105F0200038B106F0200020B1204608
:1032A00003F0B5F9BDE8F88FB9F1000F7CD007F055
:1032B000010018B906F49070002875D005F00100DF
:1032C00030B106F4807018B1606C40F001006064A9
:1032D00005F0040030B107F0010018B1606C40F057
:1032E0000200606405F0020030B107F0010018B17F
:1032F000606C40F00400606405F0080048B106F01E
:10330000200010B907F0010018B1606C40F008000F
:103310006064606C002846D005F0200028B106F0FB
:10332000200010B1204603F072F920684069C0F314
:10333000801A606C00F0080010B9BAF1000F2DD0AF
:10334000204603F00BF92068406900F04000402857
:1033500020D100BF00BF2168143151E8001F21F0C7
:1033600040002168143141E80002002AF3D100BF77
:10337000E06B50B17F48E16B0865E06BFEF708FA3F
:1033800088B1E06B016D88470DE02046FFF76EFFC6
:1033900009E009E02046FFF769FF04E02046FFF757
:1033A00065FF002060647DE7206B012878D105F07F
:1033B0001000002874D006F010000028FAD000BFDA
:1033C000002000902068006800902068406800900D
:1033D00000BF00BF2068406900F04000402870D165
:1033E000E06B006840681FFA80F8B8F1000F58D011
:1033F000A08D404555DDA4F82E80E06BC069B0F586
:10340000807F43D000BF00BF21680C3151E8001F0E
:1034100021F4807021680C3141E80002002AF3D1C8
:1034200000BF00BF00BF2168143151E8001F21F028
:1034300001002168143141E80002002AF3D100BFE5
:1034400000BF00BF2168143151E8001F21F0400087
:103450002168143141E80002002AF3D100BF202086
:1034600084F842000020206300BF00BF21680C31B7
:1034700051E8001F21F0100021680C3141E80002E2
:10348000002AF3D100BFE06BFEF72CF90220606345
:10349000A08DE28D801A81B22046FFF7E6FE0EE095
:1034A00052E0A08D40450AD1E06BC069B0F5807F45
:1034B00005D102206063A18D2046FFF7D6FEF1E61C
:1034C000FFE7A08DE18D401A1FFA80F8E08DD0B3A0
:1034D000B8F1000F37D000BF00BF21680C3151E8B0
:1034E000001F21F4907021680C3141E80002002A8D
:1034F000F3D100BF00BF00BF2168143151E8001FA5
:1035000021F001002168143141E80002002AF3D1C2
:1035100000BF202084F842000020206300BF00BFCD
:1035200021680C3151E8001F21F0100021680C3196
:1035300041E80002002AF3D100BF02206063414647
:103540002046FFF792FEADE605F0800030B106F0B0
:10355000800018B1204603F00FFAA3E605F0400002
:1035600030B106F0400018B1204603F02DF899E67E
:1035700000BF97E69564000810B504460CB9012019
:1035800010BDA06900B100E000BF94F8410028B967
:10359000002084F84000204600F02AF8242084F817
:1035A00041002068C06820F400502168C8602046AF
:1035B00003F0ACF82068006920F4904021680861AD
:1035C0002068406920F02A00216848612068C068AE
:1035D00040F400502168C86000206064202084F816
:1035E000410084F842000020606300BFC8E700008B
:1035F00010B586B00446142101A8FCF78DFED84909
:103600002068884257D100BF00200090D54800684C
:1036100040F40020D34908600846006800F4002008
:10362000009000BF00BF00BF00200090CD481038C0
:10363000006840F00400CB49103908600846006873
:1036400000F00400009000BF00BF4FF44060019004
:10365000022002900020039003200490082005908F
:1036600001A9C148FEF79CFAC048C14908604FF063
:10367000006048604021BE4881600021C1604FF475
:1036800080610161002141618161C161016241622A
:10369000FEF7B2F908B1FDF761FF00BFB448A063BF
:1036A000846300BF002205213420FEF741FC342052
:1036B000FEF72AFC52E1AF492068884255D100BF8D
:1036C00000200090A748006840F48010A5490860D9
:1036D0000846006800F48010009000BF00BF00BFE3
:1036E000002000909F481038006840F004009D4979
:1036F000103908600846006800F00400009000BF20
:1037000000BF00BF002000900846006840F008009D
:1037100008600846006800F00800009000BF00BF85
:10372000881401900220029000200390032004904E
:103730000820059001A98C48FEF732FA0420019078
:10374000022002900020039003200490082005909E
:1037500001A98948FEF724FA002205213520FEF749
:10376000E7FB3520FEF7D0FBF8E08449206888426B
:103770003BD100BF002000907A48001D006840F057
:1037800010007849091D08600846006800F0100024
:10379000009000BF00BF00BF0020009071481038AB
:1037A000006840F001006F49103908600846006861
:1037B00000F00100009000BF00BF4FF4C060019016
:1037C000022002900020039003200490072005901F
:1037D00001A96B48FEF7E4F9002205212520FEF738
:1037E000A7FB2520FEF790FBB8E0664920688842D9
:1037F00038D100BF002000905A48006840F40030E3
:10380000584908600846006800F40030009000BF86
:1038100000BF00BF0020009052481038006840F000
:1038200008005049103908600846006800F0080098
:10383000009000BF00BF6020019002200290002095
:103840000390032004900720059001A94A48FEF741
:10385000A7F9002205212620FEF76AFB2620FEF7A5
:1038600053FB7BE048492068884239D100BF0020E3
:1038700000903C48006840F480203A4908600846BF
:10388000006800F48020009000BF00BF00BF00204F
:10389000009034481038006840F002003149103977
:1038A00008600846006800F00200009000BF00BFFA
:1038B0004FF440600190022002900020039003200A
:1038C00004900720059001A93048FEF769F900220D
:1038D00005212720FEF72CFB2720FEF715FB3DE0F6
:1038E0002B492068884239D100BF002000901D4834
:1038F000001D006840F020001A49091D08600846B4
:10390000006800F02000009000BF00BF00BF002052
:10391000009014481038006840F004001149103934
:1039200008600846006800F00400009000BF00BF77
:10393000C0200190022002900020039003200490F8
:103940000820059001A90848FEF72AF90022052160
:103950004720FEF7EDFA4720FEF7D6FA06B010BD75
:10396000004C0040403802400008024070600240B5
:103970000406002000500040000C024000100140EE
:1039800000000240004400400048004000040240A3
:10399000001401402DE9F84F04460E46174699469B
:1039A0004FF0000A94F84200202852D106B117B90E
:1039B0000120BDE8F88F00206064222084F84200D6
:1039C00000202063FEF7ECF98246A785E785A06812
:1039D000B0F5805F04D1206910B90025B04602E03F
:1039E00035464FF000082CE05346002220212046A7
:1039F000CDF8009002F0F0FF20B1202084F84200C2
:103A00000320D6E745B920684068C0F30800A8F84D
:103A1000000008F1020811E0A068B0F5805F03D053
:103A2000A06828B9206918B920684068287004E0A7
:103A30002068406800F07F0028706D1CE08D401EFB
:103A4000E085E08D0028CFD1202084F842000020BE
:103A5000AFE70220ADE770B504460D46164694F870
:103A6000420020280BD105B10EB9012070BD002005
:103A7000206332462946204602F05EFFF6E7022028
:103A8000F4E7000010B5044627492068884209D1B0
:103A90002648007806F00AFB012224492448FFF753
:103AA000DAFF40E023492068884205D101222249FB
:103AB0002248FFF7D0FF36E021492068884207D12D
:103AC00003F05EF801221F491F48FFF7C4FF2AE0F8
:103AD0001E492068884207D101F012FF01221C49CB
:103AE0001C48FFF7B8FF1EE01B49206888421AD126
:103AF000FEF756F91949086019480088401C184912
:103B0000088001201749087015480088FF2802DD49
:103B10000020134908801448114A12888118012294
:103B20001248FFF798FF10BD00440040000000203D
:103B30002C0500200010014001000020E4040020BA
:103B400000480040A5C0012074050020005000403E
:103B5000A8C001209C040020001401402000002087
:103B60002400002026000020A10B0020BC0500201E
:103B70002DE9F84F04460E46174699464FF0000AC5
:103B800094F84100202850D106B117B90120BDE8B2
:103B9000F88F00206064212084F84100FEF700F9CE
:103BA0008246A784E784A068B0F5805F04D12069CD
:103BB00010B90025B04602E035464FF000081EE07F
:103BC0005346002280212046CDF8009002F004FFE9
:103BD00020B1202084F841000320D8E745B9B8F887
:103BE0000000C0F308002168486008F1020803E003
:103BF0002878216848606D1CE08C401EE084E08CD1
:103C00000028DDD15346002240212046CDF8009007
:103C100002F0E2FE20B1202084F841000320B6E744
:103C2000202084F841000020B1E70220AFE7000027
:103C3000F7B50446154694F8410020283ED1019876
:103C400000B10DB90120FEBD01982062A584E58474
:103C500000206064212084F841001948A16BC863EA
:103C60001848A16B08641848A16BC8640020A16BB8
:103C7000086501AE23681A1D31682B46A06BFDF75D
:103C800031FF30B110206064202084F84100012011
:103C9000D9E76FF040002168086000BF00BF2168CD
:103CA000143151E8001F41F080002168143141E8CF
:103CB0000002002AF3D100BF0020C4E70220C2E7BF
:103CC000F76400084F650008A764000810B50346B4
:103CD00093F84100202813D101B10AB9012010BD89
:103CE00019629A84DA8400205864212083F8410004
:103CF0001868C06840F080001C68E0600020EEE7B3
:103D00000220ECE7034A0168914202D10021024AF5
:103D100011707047004400404E040020704700BFFF
:103D2000FEE7000070B50446002534B1012C06D032
:103D3000022C06D0032C08D105E00B4D06E00B4DFC
:103D400004E00B4D02E00B4D00E070BD00BF03230B
:103D5000052229460848FFF70BFF40F6B830FDF76B
:103D60000BFF00BFF1E700004ABB00084FBB000893
:103D700054BB000859BB00087405002010B52DED98
:103D8000028BB0EE408AB0EE480A04F029FDB0EE96
:103D9000408A2648D0ED020AB0EE600A04F020FD09
:103DA000224880ED020A90ED030AD0ED000A30EEC1
:103DB000200A80ED030A90ED020A38EE400AF0EE88
:103DC000408AB0EE680A04F00BFDF0EE408A174816
:103DD00090ED030AD0ED010A30EE200AD0ED030A7F
:103DE00080EE801A80ED041A90ED020AD0ED040AEC
:103DF00000EEA80A80ED020AD0ED020AB0EE600AD9
:103E000004F0EEFC094880ED020A90ED040AF7EE9A
:103E1000000A30EEC00AD0ED030A20EE200A80ED41
:103E2000030A90ED020ABDEC028B10BD64D801209C
:103E30009FED0A0A0A4880ED000A9FED0A0A80ED0C
:103E4000010A9FED090A80ED020AB7EE000A80ED33
:103E5000030A9FED050A80ED040A70476F12033BC9
:103E600064D801200AD7A33C0000000008B500BFB9
:103E7000002000900A48006840F4001008490860DB
:103E80000846006800F40010009000BF00BF002248
:103E900005210F20FEF74CF80F20FEF735F808BD7E
:103EA0003038024000B5EFB0644B0FCB6E936BAB74
:103EB00007C300216BA804F0C8FC614908605F4B90
:103EC00010330FCB6A9367AB07C3002167A804F0D8
:103ED000BCFC5C490860594B20330FCB669363AB45
:103EE00007C3002163A804F0B0FC574908601C22F6
:103EF000524930315CA8FCF7F6F900215CA804F0C7
:103F0000B8FC524908601C224C494C3155A8FCF7BA
:103F1000EAF9002155A804F0ACFC4D4908601C22C8
:103F2000464968314EA8FCF7DEF900214EA804F09E
:103F3000A0FC484908601C224049843147A8FCF78E
:103F4000D2F9002147A804F094FC434908601C22E0
:103F50003A49A03140A8FCF7C6F9002140A804F076
:103F600088FC3E4908601C223449BC3139A8FCF762
:103F7000BAF9002139A804F07CFC394908601C22F8
:103F80002E49D83132A8FCF7AEF9002132A804F04E
:103F900070FC344908601C222849F4312BA8FCF736
:103FA000A2F900212BA804F064FC2F4908601C2210
:103FB0002E4924A8FCF797F9002124A804F059FC05
:103FC0002B4908601C2229491C311DA8FCF78BF9DC
:103FD00000211DA804F04DFC264908601C2223493D
:103FE000383116A8FCF77FF9002116A804F041FC2F
:103FF000214908601C221D4954310FA8FCF773F9B0
:1040000000210FA804F035FC1C4908601C22174948
:10401000703108A8FCF767F9002108A804F029FC12
:10402000174908601C2211498C3101A8FCF75BF983
:10403000002101A804F01DFC6FB000BD34B90008D8
:104040003CC0012040C0012044C0012008C0012024
:104050000CC0012010C0012014C0012018C0012094
:104060001CC0012020C0012024C0012044BA000847
:1040700028C001202CC0012030C0012034C0012004
:1040800038C0012000B587B0142102A8FCF744F91C
:1040900000BF002001904D48006840F010004B49DF
:1040A00008600846006800F01000019000BF00BFE3
:1040B00000BF002001900846006840F0040008603E
:1040C0000846006800F00400019000BF00BF00BF78
:1040D000002001900846006840F020000860084673
:1040E000006800F02000019000BF00BF00BF00206A
:1040F00001900846006840F08000086008460068AB
:1041000000F08000019000BF00BF00BF00200190C0
:104110000846006840F0010008600846006800F0AA
:104120000100019000BF00BF00BF002001900846C1
:10413000006840F0020008600846006800F00200D5
:10414000019000BF00BF00BF00200190084600683A
:1041500040F0080008600846006800F00800019080
:1041600000BF00BF00220F211948FDF713FE0022F7
:104170004FF440411748FDF70DFE00221F2116485D
:10418000FDF708FE0F20029001200390002004900C
:10419000059002A90E48FDF703FD4FF44040029040
:1041A0000120039000200490059002A90948FDF722
:1041B000F7FC1F200290012003900020049005903E
:1041C00002A90548FDF7ECFC07B000BD30380240FD
:1041D00000100240000802400014024000B587B001
:1041E0001C216846FCF798F8164817490860092012
:1041F000486000211448816040F2E731C16000212D
:10420000016180218161FEF7F1FA08B1FDF7A6F99D
:104210000D48FEF762FF08B1FDF7A0F9602000909D
:104220000020019002900490002269460648FEF7A3
:10423000D2FE08B1FDF792F90348FEF72FFE07B052
:1042400000BD0000004401400CD6012000B587B03D
:104250001C216846FCF760F81648174908600920D9
:10426000486000211448816040F2E731C1600021BC
:10427000016180218161FEF7B9FA08B1FDF76EF99D
:104280000D48FEF72AFF08B1FDF768F9602000909D
:104290000020019002900490002269460648FEF733
:1042A0009AFE08B1FDF75AF90348FEF7F7FD07B08B
:1042B00000BD00000048014054D6012000B587B081
:1042C0001C216846FCF728F81648174908600420A6
:1042D000486000211448816040F2E731C16000214C
:1042E000016180218161FEF781FA08B1FDF736F99D
:1042F0000D48FEF7F2FE08B1FDF730F9602000909E
:104300000020019002900490002269460648FEF7C2
:1043100062FE08B1FDF722F90348FEF7BFFD07B0C2
:1043200000BD0000001C00409CD6012000B587B0F5
:104330001C216846FBF7F0FF164817490860042067
:10434000486000211448816040F2E731C1600021DB
:10435000016180218161FEF749FA08B1FDF7FEF89D
:104360000D48FEF7BAFE08B1FDF7F8F8602000909E
:104370000020019002900490002269460648FEF752
:104380002AFE08B1FDF7EAF80348FEF787FD07B0FB
:1043900000BD000000200040E4D6012000B58BB035
:1043A000242102A8FBF7B8FF0020009001901A48D2
:1043B0001A490860002048600021184881604FF6C3
:1043C000FF71C160002101614161816103200290A0
:1043D0000020039001200490002005900C200690FE
:1043E0000020079001200890002009900C200A90DE
:1043F00002A90A48FEF7E2FA08B1FDF7AFF800207B
:104400000090019069460548FEF796F908B1FDF75E
:10441000A5F80BB000BD000000000140ECD4012065
:1044200000B58BB0242102A8FBF776FF0020009096
:1044300001904FF080401949086000204860002139
:10444000164881604FF6FF71C160002101618161F2
:10445000032002900020039001200490002005908A
:104460000C20069000200790012008900020099061
:104470000C200A9002A90948FEF7A0FA08B1FDF73E
:104480006DF800200090019069460448FEF754F949
:1044900008B1FDF763F80BB000BD000034D5012072
:1044A00000B58BB0242102A8FBF736FF0020009056
:1044B00001901948194908600020486000211748F8
:1044C00081604FF6FF71C1600021016181610320AD
:1044D00002900020039001200490002005900C2001
:1044E00006900020079001200890002009900C20E1
:1044F0000A9002A90948FEF761FA08B1FDF72EF803
:1045000000200090019069460448FEF715F908B1B3
:10451000FDF724F80BB000BD000400407CD501205D
:1045200000B58BB0242102A8FBF7F6FE0020009016
:104530000190194819490860002048600021174877
:1045400081604FF6FF71C16000210161816103202C
:1045500002900020039001200490002005900C2080
:1045600006900020079001200890002009900C2060
:104570000A9002A90948FEF721FA08B1FCF7EEFFFC
:1045800000200090019069460448FEF7D5F808B174
:10459000FCF7E4FF0BB000BD00080040C4D50120CB
:1045A00010B50B480B4908604FF4E130486000211A
:1045B00008488160C16001610C2141610021816175
:1045C000C161FEF7D9FF08B1FCF7C8FF10BD0000BC
:1045D000004C00405404002010B50B480B49086003
:1045E0004FF4E1304860002108488160C1600161FA
:1045F0000C21416100218161C161FEF7BDFF08B15D
:10460000FCF7ACFF10BD0000005000409C040020EF
:1046100010B50B480B4908604FF4E13048600021A9
:1046200008488160C16001610C2141610021816104
:10463000C161FEF7A1FF08B1FCF790FF10BD0000BB
:1046400000100140E404002010B50B480B4908603D
:104650004FF4E1304860002108488160C160016189
:104660000C21416100218161C161FEF785FF08B124
:10467000FCF774FF10BD0000004400402C05002032
:1046800010B50B480B4908604FF4E1304860002139
:1046900008488160C16001610C2141610021816194
:1046A000C161FEF769FF08B1FCF758FF10BD0000BB
:1046B000004800407405002010B50B480B49086005
:1046C0004FF4E1304860002108488160C160016119
:1046D0000C21416100218161C161FEF74DFF08B1EC
:1046E000FCF73CFF10BD000000140140BC05002099
:1046F00000BFFEE770B59CB006461EB94FF0FF3014
:104700001CB070BD702224496846FBF7ECFD002503
:104710003AE006EB4514C5EBC5005DF820002060CB
:10472000C5EBC500694601EB80008088A080C5EB21
:10473000C50001EB80008068A060C5EBC50001EBFF
:1047400080008089A081C5EBC50001EB8000006975
:104750002061C5EBC50001EB800040696061C5EBDD
:10476000C50001EB8000007E207600202077607776
:104770000120A077D4E90401FEF7E4FC00212046E3
:1047800003F0C9FA681CC5B2042DC2DB012086F80B
:1047900080000020B4E7000060BB000870B504464C
:1047A0000D46164624B194F8800008B1042D02DBB2
:1047B0004FF0FF3070BD64225142304603F012FBCF
:1047C000064604EB4510314603F0A5FA0020F1E758
:1047D00070B5044604B970BD002506E004EB451031
:1047E000002103F098FA681CC5B2042DF6DB00BF67
:1047F000F1E72DE9F04104460D46164614B194F850
:10480000800018B94FF0FF30BDE8F08164225142BA
:10481000284603F0E7FA054664225142304603F089
:10482000E1FA064616B9A8462F4608E0002E03DD39
:104830002F466FF0090802E0A8466FF009073946D5
:1048400004F1200003F067FA394604F1400003F058
:1048500062FA4146204603F05EFA414604F16000E8
:1048600003F059FA0020CFE770B504460D4616460E
:1048700014B194F8800010B94FF0FF3070BD64227D
:104880000021284603F0AEFA0546AEB9684241B2AF
:1048900004F1200003F03FFA684241B204F1400005
:1048A00003F039FA2946204603F035FA294604F187
:1048B000600003F030FA14E0294604F1200003F010
:1048C0002AFA294604F1400003F025FA684241B271
:1048D000204603F020FA684241B204F1600003F080
:1048E0001AFA0020CAE7000010B50248FFF702FFDD
:1048F00010BD0000E494012000BFFEE710B5514850
:10490000D0ED041AB0EE612AD0ED021AB0EE611AB1
:10491000D0ED011AF0EE610AD0ED001AB0EE610A96
:10492000DFED491A494804F083F84948D0ED041AEC
:10493000B0EE612AD0ED021AB0EE611AD0ED011A84
:10494000F0EE610AD0ED001AB0EE610ADFED3E1A1A
:10495000404804F06DF84048D0ED041AB0EE612AEA
:10496000D0ED021AB0EE611AD0ED011AF0EE610A34
:10497000D0ED001AB0EE610ADFED331A374804F0CB
:1049800057F83748D0ED041AB0EE612AD0ED021A7C
:10499000B0EE611AD0ED011AF0EE610AD0ED001A06
:1049A000B0EE610ADFED281A2E4804F041F82E48D7
:1049B000D0ED041AB0EE612AD0ED021AB0EE611A01
:1049C000D0ED011AF0EE610AD0ED001AB0EE610AE6
:1049D000DFED1D1A254804F02BF82548D0ED041A08
:1049E000B0EE612AD0ED021AB0EE611AD0ED011AD4
:1049F000F0EE610AD0ED001AB0EE610ADFED121A96
:104A00001C4804F015F8B2EE0E0A104804F064F8E1
:104A1000B2EE0E0A0F4804F05FF8B2EE0E0A0F482D
:104A200004F05AF8B2EE0E0A0E4804F055F89FED65
:104A3000120A0E4804F050F89FED030A0D4804F0E6
:104A40004BF810BDACC001200000000068950120AB
:104A500010C10120A495012074C10120E09501201E
:104A6000D8C101201C9601203CC20120589601208B
:104A700050C20120949601200000984210B52DEDFF
:104A8000048B4D48007810B14C48007810B9BDEC4B
:104A9000048B10BDFBF77CFFFBF7B8FFFBF7F4FFBF
:104AA000FCF730F84648D0ED030AB0EE600A4548FE
:104AB00003F00EFFB0EE408A4348D0ED030AB0EE9B
:104AC000600A424803F004FFF0EE408A4048D0ED0F
:104AD000030AB0EE600A3F4803F0FAFEB0EE409AD7
:104AE0003D48D0ED030AB0EE600A3C4803F0F0FE0A
:104AF000F0EE409A3A4890ED040AB0EE401A90ED7C
:104B0000030AF0EE400AB0EE480A03F0F4FEB0EEFD
:104B1000408A344890ED040AB0EE401A90ED030A42
:104B2000F0EE400AB0EE680A03F0E5FEF0EE408ACF
:104B30002D4890ED040AB0EE401A90ED030AF0EE15
:104B4000400AB0EE490A03F0D6FEB0EE409A27487C
:104B500090ED040AB0EE401A90ED030AF0EE400A20
:104B6000B0EE690A03F0C7FEF0EE409ABDEEC80A47
:104B700010EE100A42B200211D48FFF70FFEBDEEF5
:104B8000E80A10EE100A42B201211948FFF706FEAA
:104B9000BDEEC90A10EE100A42B202211448FFF716
:104BA000FDFDBDEEE90A10EE100A42B203211048E5
:104BB000FFF7F4FD00BF6AE764C2012006C00120D0
:104BC000A494012068950120B4940120A4950120AB
:104BD000C4940120E0950120D49401201C9601206A
:104BE000ACC0012010C1012074C10120D8C1012036
:104BF000E494012000B5C1B000224FF48061114857
:104C0000FDF7C8F8C82005F079FD012291020D4892
:104C1000FDF7C0F840F6B83005F070FD4FF47A7338
:104C2000182209490948FEF7A3FF4FF47A7005F0EE
:104C300065FD64234FF4807201A90448FEF7AAFEC3
:104C400041B000BD0018024008BB0008BC050020B0
:104C50002DE9F04F91B083460C4616461F46DDE91C
:104C60001A89B9F1610F01D1612000E0602082460C
:104C700000200C90042E0BDB20788DF8300060783B
:104C80008DF83100A0788DF83200E0788DF833008F
:104C900001208DF834008DF835A08DF83670002095
:104CA0000AE0B8F1000F02D018F8001000E0FF2170
:104CB000C21C0DAB9954401C0628F2DB002006E014
:104CC0000CA90A5C00F109010DAB5A54401C0428E0
:104CD000F6DB282102A8FBF71FFB282002A90D23E1
:104CE0000DAACDE9001040210F4803F016FF05463C
:104CF000032D0EDB9DF80800D5280AD19DF8090088
:104D0000412806D19DF80A0018B9002011B0BDE86D
:104D1000F08F012D04DB9DF8080008B90020F5E7AD
:104D20004FF0FF30F2E70000BC0500202DE9F04312
:104D30008BB080460E4615469946129F01208DF88D
:104D4000280030208DF829008DF82A60202002A943
:104D500003230AAACDE9001040211A4803F0DDFE22
:104D60000446032C19DB9DF80800D52815D19DF8C1
:104D70000900412811D19DF80A0070B9132C1EDBDF
:104D8000002004E0C11C02AA515C2954401C1028D8
:104D9000F8DB00200BB0BDE8F083002C0FDD9DF8A0
:104DA000080060B9112C0ADB002004E0411C02AAB3
:104DB000515C2954401C1028F8DB0020EAE74FF032
:104DC000FF30E7E7BC0500202DE9FF4F95B089468D
:104DD00090461C467BA103C9CDE913010020206049
:104DE00060602072602013A900234246CDE90010C4
:104DF00049461598FFF72CFF18B1002019B0BDE8FF
:104E0000F08F322005F07AFC4B460BAA0221CDF838
:104E100000801598FFF78AFF08B10020EEE79DF8A3
:104E20002C006A490870084600780A2804D101203D
:104E3000674908700020E1E7644800780B2803D137
:104E4000002063490870D9E7642005F057FC4B4601
:104E50000FAA0121CDF800801598FFF767FF08B170
:104E60000020CBE704205B490860002004E00FA984
:104E7000095C594A1154401C0428F8DB9DF83C0099
:104E80009DF83D1040EA01259DF83E009DF83F1039
:104E900040EA012625706670002D04DDB5F5347FEB
:104EA00001DA012000E000208246002E04DDB6F584
:104EB000347F01DA012000E0002083460027BAF1A8
:104EC000000F00D07F1CBBF1000F00D07F1C0FB97A
:104ED000002093E7642005F011FCBAF1000F2FD0F9
:104EE000207808AB09AA0AA9FBF74CFE10B94FF0CD
:104EF000000A24E004A89DF82410CDE900109DF8D4
:104F0000283042464946159800F032FD10B94FF05E
:104F1000000A13E0A01C04A99DF820209DF824306D
:104F2000CDE90032CDE902109DF8283042464946CD
:104F30001598FCF716FB08B94FF0000A00BF02E015
:104F4000002060802071642005F0D8FBBBF1000FC9
:104F50002FD0607808AB09AA0AA9FBF713FE10B995
:104F60004FF0000B24E004A89DF82410CDE90010B8
:104F70009DF8283042464946159800F0F9FC10B9D2
:104F80004FF0000B13E0601D04A99DF820209DF850
:104F90002430CDE90032CDE902109DF82830424698
:104FA00049461598FCF7DDFA08B94FF0000B00BF31
:104FB00003E00020A4F80500E0710120207200BF8A
:104FC0001CE70000FFFFFFFFFFFF00001C000020A8
:104FD00006C001201800002014000020F0B5C3B066
:104FE00006460D4664234FF4807203A92C48FEF751
:104FF000D1FC00202B49088001222B492848FEF7CC
:105000002AFD2AA207CA8DE807004FF47A730B2203
:1050100069462348FEF7ACFD40F6B83005F06EFB5C
:105020002048008810B9002043B0F0BD002430E0D3
:105030001D48005DD5282BD11B49601C085C4B28FE
:1050400026D11848018804F10D00814220DB164961
:10505000A01C0F5C012F1AD1E01D085C2870287875
:10506000042814DB2878072811DC297804F10800CB
:1050700008440C490988884209DC2A780A4B04F163
:10508000080019183046FBF72EF90120CCE700BFC5
:10509000641C04480088401EA042C9DC0020C3E70D
:1050A000BC05002024000020A10B00200000FF040C
:1050B000FCD44A0100E100002DE9F0432DED028B04
:1050C00081B00646B0EE408A424890F8B2540024BF
:1050D000FCF766FE8146092E59D2DFE806F0050A84
:1050E000141D582F3D4A4F002046641C0DF80050F7
:1050F00052E04FF0FF31284602F014FF2146641CB5
:105100000DF8010048E00121284602F00BFF21467E
:10511000641C0DF801003FE04FF0FF31284602F01B
:1051200001FF2146641C0DF801000121284602F010
:10513000F9FE2146641C0DF801002DE04FF0FF310F
:10514000284602F0EFFE2146641C0DF801002046BF
:10515000641C0DF800501FE00121284602F0E2FE19
:105160002146641C0DF801002046641C0DF8005017
:1051700012E02046641C0DF800500DE00221284684
:1051800002F0D0FE2146641C0DF8010004E0204628
:10519000641C0DF8005000BF00BF002716E01DF88A
:1051A00007802A464146304603F010FA68B1082EBF
:1051B00005D1404601B0BDEC028BBDE8F08340460E
:1051C00003F03AFA08B94046F4E77F1CA742E6DB51
:1051D0002846EFE7D096012010B540F2E45126486A
:1051E000FBF79AF818212548FBF796F80A20224980
:1051F00081F8E00581F8E105084690F8E00540B245
:1052000081F8B004084690F8E10541B21A4880F8E8
:10521000B114002180F8B214012190F9B104C0EB5F
:105220000010154A02EB800092F9B02402EB420212
:105230008154114890F9B104C0EB00100E4A02EB02
:10524000800092F9B02402EB420210444170012028
:10525000094981F8E20500200849087048704FF4B8
:10526000FA700881044890F9B12490F9B01404A0B0
:1052700001F026FE10BD0000D0960120B49C012054
:105280005B50617468506C616E6E696E675D204939
:105290006E697469616C697A65642061742028257F
:1052A000642C2564290A00002DE9F0412DED048BC2
:1052B0000446082C02DB2046082400BF0026FE48D6
:1052C0000078052839D2DFE800F00339D3FDFC006F
:1052D0000120FA490870FA4890ED000A01F09CFCA0
:1052E000042C2AD0072C28D03CB3F54890ED000AB6
:1052F000DFEDF40A30EE600A10EE101A0846FBF7F4
:10530000A0F841EC190BB0EE490AF0EE690A01F081
:1053100007FFB0EE408AF0EE608A9FEDEB0B53EC96
:10532000102B51EC180BFBF79FF806D2204603F028
:105330001DF910B10120E04908700AE2E04890ED43
:10534000000A2046FFF7B8FE0546062C2BD1E048A0
:1053500090F8B204A84226D10020D84908700F2244
:105360000021DC48FFF71AFA0F220121D948FFF784
:1053700015FA0F220221D748FFF710FA0F22032156
:10538000D448FFF70BFA4FF47A70FCF7F5FB0120D5
:10539000CA490870FFF7B2FA0A20FCF7EDFB0020BB
:1053A000C5490870D5E1CA4890F8B204A84253D064
:1053B000C74991F8B214691A081DC11700EB917121
:1053C0008910A0EB81014FB2032F1CD10020BB49F3
:1053D00008700F220021BF48FFF7E0F90F220121DA
:1053E000BC48FFF7DBF90F220221BA48FFF7D6F9D4
:1053F0000F220321B748FFF7D1F94B20FCF7BCFB84
:105400009620FCF7B9FB0020AC4908700A22002165
:10541000B048FFF7C3F90A220121AE48FFF7BEF9F1
:105420000A220221AB48FFF7B9F90A220321A94851
:10543000FFF7B4F94FF49670FCF79EFB01209F49EB
:105440000870FFF75BFA0A20FCF796FB9A48457054
:105450000220994908700AE0012098490870FFF776
:105460004DFA0A20FCF788FB00209349087070E190
:10547000002092490870984890ED000A8E4880ED0F
:10548000030A02465178924A92F8B20402F0B6FC3E
:10549000894890ED040ADFED910A30EE600A10EEC3
:1054A000101A0846FAF7CDFF41EC190BB0EE490A85
:1054B000F0EE690A01F034FEB0EE408AF0EE608A48
:1054C00001E02EE19AE09FED860B53EC102B51EC9E
:1054D000180BFAF7C9FF01D2002688E0764890ED54
:1054E000040ADFED810A30EE600A10EE101A084659
:1054F000FAF7A7FF41EC190BB0EE490AF0EE690A82
:1055000001F00EFEB0EE408AF0EE608A9FED740B63
:1055100053EC102B51EC180BFAF7A6FF01D2022620
:1055200065E0654890ED040ADFED700A30EE600A30
:1055300010EE101A0846FAF784FF41EC190BB0EE92
:10554000490AF0EE690A01F0EBFDB0EE408AF0EE98
:10555000608A9FED630B53EC102B51EC180BFAF79C
:1055600083FF01D2012642E0534890ED040ADFEDAB
:10557000600A30EE600A10EE101A0846FAF761FF72
:1055800041EC190BB0EE490AF0EE690A01F0C8FDD2
:10559000B0EE408AF0EE608A9FED510B53EC102B79
:1055A00051EC180BFAF760FF20D3434890ED040A42
:1055B000DFED500A30EE600A10EE101A0846FAF7D6
:1055C00040FF41EC190BB0EE490AF0EE690A01F018
:1055D000A7FDB0EE408AF0EE608A9FED410B53ECE0
:1055E000102B51EC180BFAF73FFF00D20326304680
:1055F00001F0D4FB032030490870AAE02E4890ED5A
:10560000050AF0EE400A344890ED000A02F0C2FBB1
:1056100010EE107A3846FAF714FF41EC180BB0EE92
:10562000480AF0EE680A01F07BFDB0EE409AF0EE19
:10563000609A9FED310B53EC102B51EC190BFAF7DC
:1056400013FF6DD82348FFF7C3F8C820FCF794FA7E
:105650000A2200211F48FFF7A1F80A2201211D4854
:10566000FFF79CF80A2202211A48FFF797F80A224E
:1056700003211848FFF792F8C820FCF77DFA0F22A3
:1056800000211448FFF78AF80F2201211148FFF783
:1056900085F80F2202210F48FFF780F80F2203211F
:1056A0000C48FFF77BF8C820FCF766FA02494878F7
:1056B00000F062F8002023E0B49C012064C20120C5
:1056C000A0C00120000098420000000000002E4011
:1056D000D0960120E49401209CC00120000000002D
:1056E000000000A09999B93F0000B4C20000B44284
:1056F000000034C3000034430000000000001440E8
:1057000016490870FF20164908700020486008728A
:10571000012014490870FFF7F1F80A20FCF72CFA71
:1057200017E000200F4908701FED140A0E4803F01F
:10573000F1F91FED160A0D4803F0ECF91FED190AF7
:105740000B4803F0E7F91FED1B0A0A4803F0E2F9E2
:1057500000BF00BFBDEC048BBDE8F081B49C01200C
:10576000CC9C012064C2012068950120A4950120F1
:10577000E09501201C96012030B501238340DAB268
:10578000424B93F9B134C3EB0313404C04EB830356
:1057900094F9B04404EB440423445B7813433B4C3A
:1057A00094F9B144C4EB0414384D05EB840495F925
:1057B000B05405EB45052C44637030B101280DD081
:1057C000022814D0032824D11AE0304B93F8B134C6
:1057D0005B1E5CB22D4B83F8B1441AE02B4B93F85F
:1057E000B0345B1C5BB2294C84F8B03411E0274B19
:1057F00093F8B1345B1C5CB2244B83F8B14408E0ED
:10580000224B93F8B0345B1E5BB2204C84F8B0346A
:1058100000BF00BF1D4B83F8B20493F8DF35632B44
:1058200015DA1A4B93F8DF4593F8DF355B1CDDB2D0
:10583000164B83F8DF5504EB440403F2B3431C44D6
:10584000124BB3F8B054258093F8B234A3700123FF
:105850008340D9B20D4B93F9B134C3EB03130B4C16
:1058600004EB830394F9B04404EB44041B5D0B4345
:10587000064C94F9B144C4EB0414044D05EB8404C4
:1058800095F9B05405EB4505635530BDD096012020
:1058900070B52DED048B1348007800B312480078E2
:1058A000032817DB11484478807845B22046FAF780
:1058B000B7FD41EC190B9FED0E0B53EC102BFAF7D3
:1058C0003DFD41EC180BFAF7FFFD0B4908600B4951
:1058D0000D7000BF00200349087003490870BDEC3B
:1058E000048B70BDAAC00120A9C00120DCD8012012
:1058F000000000000000F03FA0C00120A4C0012073
:105900001748007800B170471648007820B916484B
:105910000078FD2800D0F6E7134801781148027896
:105920000078401C0F4B18701048815418460078BE
:10593000022809DB18460078401E0C49085CFE2846
:1059400002D101200649087006480078642804D373
:105950000020044908700249087000BFD3E7000026
:10596000AAC00120A9C00120A8C00120DCD80120C4
:105970002DE9FF4707460D4616461C46DDE90C8912
:1059800013A103C9CDE9020108EB840000F0FF0A6E
:10599000602002A9CDE90010A006030E3246294678
:1059A0003846FFF755F918B1002004B0BDE8F0877C
:1059B000322004F0A3FE2B464A4651463846009654
:1059C000FFF7B4F908B10020EFE70120EDE7000090
:1059D000FFFFFFFFFFFF00002DE9F04F2DED028BD1
:1059E0009BB0064688461446F0EE408AB0EE608AC8
:1059F0001EB1B8F1000F00DD44B914B10020C4F8A5
:105A000010081BB0BDEC028BBDE8F08F02201A908D
:105A10004FEA880019901998FF2802DC4FF4807033
:105A2000199000201890179000BF09E00021CD4A7E
:105A300002EBC0025160CC4A02EBC0025160401C34
:105A4000B0F5006FF2DBC7481890C74817904FF4C5
:105A50000060199000270AE006EB8700B0F90230D9
:105A600036F92720DDE9180104F0A4FA7F1C474528
:105A7000F2DB0025002006902FE0069836F9207012
:105A8000069806EB8000B0F902B0394607EBD172F8
:105A90005210A7EB4202EAB958460BEBD0725210F3
:105AA000ABEB4202B2B95B463A464FF4006117983D
:105AB00004F03EFA70B95B463A464FF4006117981D
:105AC00004F078FAA94820F8257000EB8500A0F8CA
:105AD00002B06D1C0698401C06900698404502DAFC
