:020000040800F2
:10000000C852002061020008DD2B0008F72200081A
:10001000212A0008990900082D3F0008000000006F
:10002000000000000000000000000000A101000826
:100030009B09000800000000FD010008F9370008D6
:100040007B0200087B0200087B0200087B0200089C
:100050007B0200087B0200087B0200087B0200088C
:100060007B0200087B0200087B0200087B0200087C
:100070007B0200087B0200087B0200087B0200086C
:100080007B0200087B0200087B0200087B0200085C
:100090007B0200087B0200087B0200087B0200084C
:1000A0007B0200087B0200087B0200087B0200083C
:1000B0007B0200087B0200087B0200087B0200082C
:1000C0007B0200087B0200087B0200087B0200081C
:1000D0007B020008253E0008313E00083D3E000836
:1000E0007B0200087B0200087B0200087B020008FC
:1000F0007B0200087B0200087B0200087B020008EC
:100100007B0200087B0200087B0200087B020008DB
:100110007B020008453B0008C93800087B02000844
:100120007B0200087B0200087B0200087B020008BB
:100130007B0200087B0200087B0200087B020008AB
:100140007B0200087B0200087B0200087B0200089B
:100150007B0200087B0200087B0200087B0200088B
:100160007B0200087B0200087B0200087B0200087B
:100170007B0200087B0200087B02000800000000F0
:100180007B0200087B020008DFF810D000F0D0FAF4
:1001900000480047A54D0008AFF30080C85200207A
:1001A0002C4B19680868B0E8F04F80F30988BFF35A
:1001B0006F8F4FF0000080F311887047000000003F
:1001C00008480068006880F308884FF0000080F35A
:1001D000148862B661B6BFF34F8FBFF36F8F00DF35
:1001E00000BF00BF08ED00E0DFF80C00016841F43B
:1001F00070010160704700BF88ED00E0EFF30980F7
:10020000BFF36F8F134B1A681EF0100F08BF20ED5D
:10021000108A20E9F04F106009B44FF0500080F3CD
:100220001188BFF34F8FBFF36F8F05F02BFB4FF09B
:10023000000080F3118809BC19680868B0E8F04F25
:100240001EF0100F08BFB0EC108A80F30988BFF3CE
:100250006F8F704738000020EFF305807047000073
:100260000648804706480047FEE7FEE7FEE7FEE750
:10027000FEE7FEE7FEE7FEE7FEE7FEE7B938000827
:10028000890100082DE9F05F0546002092469B4653
:1002900088460646814640241BE02846414647469C
:1002A000224600F07CF853465A46C01A914110D3BA
:1002B00011461846224600F063F82D1A67EB010834
:1002C0004F4622460120002100F05AF817EB0009A2
:1002D0004E41201EA4F10104DFDC484631462A4687
:1002E0004346BDE8F09F40EA01039B0703D009E0C5
:1002F00008C9121F08C0042AFAD203E011F8013B12
:1003000000F8013B521EF9D27047D2B201E000F86A
:10031000012B491EFBD270470022F6E710B51346A9
:100320000A4604461946FFF7F0FF204610BD00F0CC
:10033000004230F000400AD0C10D01F56071C0F3F9
:10034000160042EA0151C2084007114370470020DD
:100350000146704730B50B4601460020202201249B
:1003600009E021FA02F59D4205D303FA02F5491B83
:1003700004FA02F52844151EA2F10102F1DC30BD99
:10038000202A04DB203A00FA02F100207047914055
:10039000C2F1200320FA03F3194390407047202A4A
:1003A00004DB203A21FA02F00021704721FA02F31F
:1003B000D040C2F1200291400843194670472DE910
:1003C000FE4F804681EA0300C00F0C46009021F0EA
:1003D000004123F00045B8EB0200A94105D2404698
:1003E000214690461C460B46024623F0004010432F
:1003F00047D0270DC7F30A00C3F30A510290401AF1
:10040000019040286BDAC3F3130040F4801B00987E
:10041000924620B10023D2EB030A63EB0B0B019849
:100420005946C0F140025046FFF7AAFF06460D4666
:1004300050465946019A00F08DF910EB08006141D1
:10044000002487EA115284EAE7731A4340D0009AE5
:1004500062B3019A012A4FEA075215DC001B61EBD7
:1004600002014FF0004202EA0752CDE90042001CAF
:1004700041F5801132462B4600F08DF903B0BDE8FE
:10048000F08F40462146F9E7001B61EB0201001C9A
:1004900041F5801300185B412018A2F5001747EBC7
:1004A000030140EAD570B6196D4111E06D084FEABD
:1004B000360645EAC0754FEA0752001B61EB0201A0
:1004C000001C41F5801149084FEA300000195141E4
:1004D00032462B4603B0BDE8F04F00F04DB900980E
:1004E000012240000023D0EB020263EBE07300988E
:1004F00021464FEAE074B8EB000061EB0401E9E744
:1005000083F000435BE781F0004158E72DE9FE4F9F
:1005100081EA030404F0004421F0004100944FF00C
:10052000000B23F0004350EA01045ED052EA0304BA
:100530005BD0C3F30A54C1F30A552C44A4F2F3343C
:100540000194A0FB0254C1F3130141F48011C3F3E1
:10055000130343F4801301FB024400FB034E840A9F
:10056000970A44EA815447EA8357A4FB0768029537
:100570008D0A05FB07854FEA932C04FB0C542705D5
:10058000029D4FEA065847EA1637B5EB08056EEBB1
:10059000070C870E920E47EA811742EA8312A7FBE7
:1005A0000201B6EB0B0164EB00042B0D43EA0C33A4
:1005B0005E1844EB1C50DA465146E7FB0201C5F3D6
:1005C00013044FEA0B3343EA14534FEA0432019CFD
:1005D00043EA0603A4F10C040294009CCDE900B4A4
:1005E00000F0D9F803B0BDE8F08F00200146F9E72C
:1005F0002DE9F04D81EA030404F0004B21F00045A1
:1006000014464FF0000A23F0004150EA050220D0C2
:1006100054EA01021DD0C5F30A570246C5F313037D
:10062000C1F31300C1F30A5640F4801543F480135C
:10063000A7EB0608101BD64608F2FD3873EB050041
:1006400002D308F1010801E092185B41B8F1000FF4
:1006500003DA00200146BDE8F08D00204FF4801140
:10066000064684460EE0171B73EB050705D3121BE5
:1006700063EB050306434CEA010C49084FEA3000DE
:1006800092185B4150EA0107EDD152EA030012D003
:1006900082EA040083EA0501084305D0101BAB4140
:1006A00006D20122002306E000224FF0004302E0C0
:1006B0006FF0010253101AEB06004CEB085110EBDF
:1006C0000A0041EB0B01BDE8F04D00F055B8C1F355
:1006D0000A52C1F3130140F2FF3341F480119A42F0
:1006E00002DA00200146704740F233439A42A2F2F8
:1006F000334202DC5242FFF752BEFFF741BE000018
:1007000030B5041E71F1000404DB4FF00044404298
:1007100064EB0101141E73F1000405DB1C464FF06D
:100720000043524263EB0403994208BF904230BD3C
:10073000064C074D06E0E06840F0010394E807002E
:1007400098471034AC42F6D3FFF722FDDC5F000877
:10075000FC5F0008202A06DBCB17203A41FA02F0A2
:1007600043EAE07306E041FA02F3D040C2F120020E
:10077000914008431946704710B5141E73F10004E8
:1007800008DA401C41F1000192185B411A4301D183
:1007900020F0010010BD2DE9F04D92469B4611B1AD
:1007A000B1FA81F202E0B0FA80F220329046FFF70F
:1007B000E7FD04460F4640EA0A0041EA0B015346B2
:1007C0005A46084313D0114653EA010019D0C8F124
:1007D00040025046FFF7E3FD05460E465046594697
:1007E0004246FFF7CDFD084305D0012004E0204636
:1007F0003946BDE8F08D0020054346EAE0762C43FB
:1008000037430A986305E40AA0EB08000022FD0ABA
:1008100044EA47540A3002D500200146E9E70105C1
:1008200010196941DDE9084500196941BDE8F04D3D
:10083000A2E770B58C1810F8015B15F0070301D121
:1008400010F8013B2A1106D110F8012B03E010F833
:10085000016B01F8016B5B1EF9D12B0705D4002356
:10086000521E0DD401F8013BFAE710F8013BCB1AF8
:10087000921C03E013F8015B01F8015B521EF9D5ED
:10088000A142D8D3002070BD70B50E4890ED030A88
:1008900000F0FEF80C4E04467078844210D004EB51
:1008A000840106F11C0000EB8105064895EC030A63
:1008B00004F0DEFB95ED040A024804F0D6FB7470E8
:1008C00070BD000050470020B800002070B50E48F1
:1008D00090ED030A00F0DCF80C4E0446B078844238
:1008E00010D004EB840106F1800000EB810506487E
:1008F00095EC030A04F0BCFB95ED040A024804F0F1
:10090000B4FBB47070BD00008C470020B80000201C
:1009100070B50E4890ED030A00F0BAF80C4E04468C
:10092000F078844210D004EB840106F1E40000EB7F
:100930008105064895EC030A04F09AFB95ED040A3C
:10094000024804F092FBF47070BD0000C84700201C
:10095000B800002070B50E4890ED030A00F098F83A
:100960000C4E04463079844210D004EB840106F525
:10097000A47000EB8105064895EC030A04F078FBAF
:1009800095ED040A024804F070FB347170BD00005C
:1009900004480020B8000020FEE7704710B5016051
:1009A0000446027108463C2100F064FF21680020E3
:1009B00009684862E0809FED030AA06084ED030AA5
:1009C00010BD00000000000002681168496A09B209
:1009D000C180037903B14942C1801268002151628C
:1009E000B0F90610DFED0A0A00EE101A8268B8EEC0
:1009F000C00A0A44826080EE201A9FED060ADFEDED
:100A0000060A21EE000A80EE201A80ED031A7047D4
:100A10000000A544E25CA3410AD7233C10B50022A4
:100A20000B490C48FFF7BAFF0A4801220A49103067
:100A3000FFF7B4FF0748002208492030FFF7AEFF58
:100A400004480022BDE8104005493030FFF7A6BF3A
:100A5000D00400208C4600201805002060050020EE
:100A6000A805002010B50848FFF7AEFF0648103073
:100A7000FFF7AAFF04482030FFF7A6FF0248BDE8B1
:100A800010403030FFF7A0BF8C46002072B6FEE762
:100A900010EE100A0C49884201DA0020704710EE6F
:100AA000100A094949420844B0F5F80F01D2012063
:100AB000704710EE100A05490844B0F5501F01D2E6
:100AC00002207047032070470000F041000094BDF1
:100AD0002DE9F0410446876D00F066F9064694F86A
:100AE00035000025022806D08020606584F8345047
:100AF0000120BDE8F0812068016821F01601016045
:100B00002068416921F080014161206C08B9A06C26
:100B100020B12068016821F00801016020680168A7
:100B200021F0010101600CE000F03EF9801B052876
:100B300007D920206065032084F8350084F83450FC
:100B4000D7E720680068C007EED194F85C103F201A
:100B50008840B860012084F8350084F834500020C3
:100B6000C7E790F83510022903D0802141650120A4
:100B70007047052180F835100068016821F00101F7
:100B8000016000207047000070B5044600F00CF9C9
:100B90000546601C02D004480078044400F004F9C3
:100BA000401BA042FAD370BD280000202DE9F84F69
:100BB000DFF8BCA10022012503264FF00F090AF13E
:100BC000040BAAF1040E00BF0B6805FA02F42340DF
:100BD000A34270D10F7907F00307012F01D0022F34
:100BE00016D187684FEA420806FA08FC27EA0C0784
:100BF000D1F80CC00CFA08FC4CEA070CC0F808C08D
:100C00004768A7430C79C4F3001494403C43446004
:100C10000C79E443A4070AD0C4684FEA420C06FAF0
:100C20000CF7BC438F6807FA0CF72743C7600C79B1
:100C300004F00304022C12D1D40800EB840CDCF87D
:100C400020405707FF0E09FA07F824EA0804D1F8F4
:100C5000108008FA07F848EA0408CCF820800468F5
:100C60004FEA420C06FA0CF7BC430F7907F0030772
:100C700007FA0CF7274307604C6814F4403F70D024
:100C80003C4C276847F480472760246822F003071C
:100C900004F480440094384C07EB040CDCF808485A
:100CA00097074FEA177809FA08F7BC43334FB84261
:100CB00002D1002724E054E0314FB84201D101278E
:100CC0001EE0304FB84201D1022719E02E4FB84242
:100CD00001D1032714E02D4FB84201D104270FE0C2
:100CE0002B4FB84201D105270AE02A4FB84201D163
:100CF000062705E0284FB84201D1072700E0082762
:100D000007FA08F72743CCF80878DAF80040574686
:100D1000D1F804C09C435FEACC2C00D51C433C6056
:100D2000DBF800405F46D1F804C09C435FEA8C2C9E
:100D300000D51C433C60DEF800407746D1F804C083
:100D40009C435FEA8C3C00D51C433C60084F083F45
:100D50003C68D1F804C09C435FEACC3C00D51C43FE
:100D60003C60521C102AFFF42FAFBDE8F88F000042
:100D7000083C01404438024000300140000002407D
:100D80000004024000080240000C02400010024033
:100D90000014024000180240001C02400AB18161A8
:100DA00070470904FBE700000148806870470000B5
:100DB0002800002002488168027811448160704751
:100DC000280000200B4810B5016841F40071016053
:100DD000016841F480610160016841F48071016043
:100DE000032000F09FF80F2000F006F800F050F804
:100DF000002010BD003C024030B505461F4887B0BA
:100E00000024016841F010010160006806A900F0AB
:100E10001000009001A800F031F90498A8B100F08A
:100E20004DF940001649174AB0FBF1F11648491E2A
:100E3000026040F2E732C0E90324C0E90114846192
:100E400000F08CFB040003D015E000F037F9E9E76F
:100E50000D4800F0EDFB04000DD1362000F034F811
:100E6000102D07D200222946362000F03BF8074813
:100E7000056000E0012407B0204630BD4038024044
:100E800040420F0000100040780800202C00002095
:100E90000C4882B0016841F480410160006800F4B0
:100EA000804000900748001F016841F080510160B8
:100EB0000068002200F0805000900F21901E02B0C8
:100EC00000F010B844380240002809DB00F01F028F
:100ED000012191404009800000F1E020C0F800119C
:100EE00070470000F0B40E4B1B680C46C3F302239E
:100EF000C3F10705042D00D90425191D072901D2C6
:100F0000002300E0DB1E012606FA05F1491E214000
:100F100099409E40761E16403143F0BC03F0F2B873
:100F20000CED00E0064900F0070208684FF6FF03E9
:100F3000184040EA0220034A10430860704700004E
:100F40000CED00E00000FA052DE9F0470E46050023
:100F500065D0DFF81481D8F80000F7B200F0070080
:100F6000B04207D288F80070D8F8000000F00700FF
:100F7000B04254D128683D4C810712D5400703D5B3
:100F8000206840F4E05020602878000703D52068EE
:100F900040F4604020602068A96820F0F000084319
:100FA00020602878C0072DD03049686808390128AA
:100FB00012D0022813D0032811D00968890700290C
:100FC0002DDA216821F0030101432160FFF7ECFED7
:100FD000814641F2883A0EE009688903EFE7096823
:100FE0008901ECE7FFF7E0FEA0EB0901514502D9CA
:100FF0000320BDE8F0872068696800F00C00B0EBC2
:10100000810FEFD1D8F80010404601F00701B1423E
:1010100007D90770006800F00700B04201D0012036
:10102000E7E72878400705D52068E96820F4E05014
:10103000084320602878000706D52068296920F435
:10104000604040EAC100206000F058F82168084A7A
:10105000C1F30311515CC8400649086006480068A6
:10106000FFF7CAFE0020C4E7003C024008380240F7
:10107000045E0008340000202C0000200F220260D3
:101080000C4A136803F003034360136803F0F00392
:101090008360136803F4E053C36012684FF4E053B5
:1010A00003EAD20202610448006800F00700086009
:1010B0007047000008380240003C024004480549DF
:1010C00000680968044AC1F38221515CC840704736
:1010D0003400002008380240145E00080448054926
:1010E00000680968044AC1F34231515CC840704746
:1010F0003400002008380240145E0008154810B57E
:10110000006810F00C02144813D04110042A0FD0CC
:10111000082A0ED10F4C241F2268236802F03F02D8
:101120005B0207D52068C0F38810A0FB010106E030
:10113000084610BD2168C1F38811A1FB00010023FE
:10114000FFF7A0F82168C1F30141491C4900B0FB39
:10115000F1F010BD083802400024F4002DE9F84FEA
:1011600004006ED02078DFF84C93C007A9F1040585
:101170004AD009F104000168C1F38101012908D0B6
:101180000068C0F3810002280AD1D9F800004002AB
:1011900006D52868800337D560680028E1D033E0A1
:1011A0006068B0F5803F10D0B0F5A02F286810D04F
:1011B00020F480302860286820F48020286060684F
:1011C000A8B1FFF7F1FD06460DE0286840F4803035
:1011D000F4E740F480202860F7E700BFFFF7E4FD64
:1011E000801B642873D828688003F7D50CE0FFF7CC
:1011F000DBFD064605E000BFFFF7D6FD801B642837
:10120000F0D828688003F7D42078DFF8AC82800714
:101210004FF0000A3ED5A748001D016811F00C0FE1
:1012200008D00068C0F3810002280BD1D9F8000073
:10123000400207D42868800716D5E068012800D14D
:1012400012E033E1E068B8B10120C8F80000FFF710
:10125000ABFD064605E000BFFFF7A6FD801B022898
:10126000C0D828688007F7D52868216920F0F800E1
:1012700040EAC10028600DE0C8F800A0FFF794FD27
:10128000064604E0FFF790FD801B02281FD828685F
:101290008007F7D42078000722D5864F87486169F8
:1012A000703771B101210160FFF77EFD064604E051
:1012B000FFF77AFD801B022809D838688007F7D528
:1012C0000EE0C0F800A0FFF76FFD064605E082E0E3
:1012D000FFF76AFD801B02287DD838688007F7D4A5
:1012E0002078400768D5DFF8CCB100270BF13C0B24
:1012F000DBF80000C0000BD4DBF8001041F0805197
:10130000CBF80010DBF80000012700F080500090BF
:101310006B4E3068C00510D4306840F48070306087
:10132000FFF742FD009005E0FFF73EFD0099401AEF
:10133000022850D83068C005F6D55E4EA0686C36DD
:1013400001280FD00528306810D020F0010030604F
:10135000306820F004003060A068B8B1FFF724FDC9
:1013600000900FE0306840F00100F4E740F0040026
:101370003060F7E7FFF718FD0099411A41F2883015
:10138000814266D830688007F4D50EE0FFF70CFD87
:10139000009007E0FFF708FD0099411A41F28830FC
:1013A000814256D830688007F4D42FB1DBF80010A2
:1013B00021F08051CBF80010A069C8B33D49091D48
:1013C0000968C1F3810102294AD00228504607D09A
:1013D000C8F8600000E03CE0FFF7E6FC04463BE0B4
:1013E0004746C8F86000FFF7DFFC064605E000BF8F
:1013F000FFF7DAFC801B02282BD828688001F7D47D
:10140000D4E907010843A16A2E4A490802EB0141C9
:10141000626A41EA8211084394F82C1040EA0161A3
:10142000C9F8001001203866FFF7BEFC044606E04C
:101430003EE000BFFFF7B8FC001B022809D828686F
:101440008001F7D534E000BFFFF7AEFC001B022897
:1014500002D90320BDE8F88F28688001F4D427E082
:101460000128F7D0D9F80000E26900F48001914228
:101470001CD1226A00F03F01914217D147F6C0719A
:10148000626A0140B1EB821F10D1A26A4FF0FF33B4
:1014900000F4403103EB5202B1EB024F06D194F855
:1014A0002C1000F07060B0EB016F01D00120D1E78B
:1014B0000020CFE70438024000004742800E474238
:1014C000007000400000FFFF7047704770B590F853
:1014D0003C20012A32D0012480F83C40022280F8CE
:1014E0003D2003685A689D6822F070060A683243FE
:1014F0005A60134B02689A4214D0B2F1804F11D057
:10150000104B9A420ED0104B9A420BD00F4B9A427E
:1015100008D00F4B9A4205D00E4B9A4202D00E4B88
:101520009A4204D1496825F080031943916080F8FC
:101530003D40002180F83C10084670BD022070BD7F
:10154000000001400004004000080040000C004082
:1015500000040140004001400018004010B50400A4
:1015600003D094F83D0010B107E0012010BD002029
:1015700084F83C00204600F01FF8022084F83D006B
:10158000211D206802F0A6F9012084F8460084F8A5
:101590003E0084F83F0084F8400084F8410084F85D
:1015A000420084F8430084F8440084F8450084F83D
:1015B0003D00002010BD000008B5184A0168184819
:1015C000914207D1016841F400310160006800F4E4
:1015D000003009E0134A914208D1016841F48021AA
:1015E0000160006800F48020009008BD0C480E4A9D
:1015F000001F914207D1016841F08001016000683D
:1016000000F08000F0E7094A9142EED1016841F410
:1016100080710160006800F48070E5E700440140DB
:101620004438024000480140001C004000200040B7
:1016300090F83D10012901D001207047022180F867
:101640003D100168CA6842F00102CA600068114991
:10165000884214D0B0F1804F11D00F4988420ED08B
:101660000E4988420BD00E49884208D00D49884265
:1016700005D00D49884202D00C49884204D18168C6
:1016800001F00701062903D0016841F00101016062
:1016900000207047000001400004004000080040A6
:1016A000000C0040000401400040014000180040D0
:1016B0002DE9F0410D46040003D094F83D0018B127
:1016C00008E00120BDE8F081002084F83C002046BD
:1016D00000F040F8022084F83D002068816844F260
:1016E000070291438160211D206802F0F3F822680F
:1016F00090689169166A2B68AF69034340F2033022
:10170000814341EA0721A868EF6908434FF6FC418D
:101710008843E96840EA0720014328692F6A0001ED
:1017200040EA0730084369686D6926F0AA0646EA70
:101730000515294393602268906154F8460B0162B5
:10174000012004F81F09E0752076E0762077A07567
:101750000020B7E770B586B0044614216846FEF74E
:10176000DBFD3D48256800223C49022401268542D4
:1017700019D13A481430036843F00103036000684C
:1017800000F001000590086840F01000086008684B
:10179000694600F0100005904FF420600090CDE9FC
:1017A00001422F4833E02D4B2E481033B5F1804FC6
:1017B00018D02D4EB54231D11D6845F002051D608F
:1017C0001B6803F0020305930B6843F001030B60F1
:1017D000096801F001010591C0210091CDE90142A4
:1017E000694635E01D6845F001051D601B6803F082
:1017F000010305930B6843F001030B60096801F0D6
:101800000101059122210091CDE901426946CDE90E
:10181000032600BFFFF7CAF906B070BD1348854222
:10182000FAD1186840F004001860186800F004004D
:101830000590086840F0080008600868694600F0F4
:10184000080005904FF440500090CDE9014208484F
:10185000CDE90324DEE700000000014030380240FB
:101860000010024000000240000400400008004058
:10187000000C024070B590F83E60044690F83F506E
:1018800090F8423090F84320022021B104290ED074
:10189000012E1BD114E0012E18D1012B16D184F892
:1018A0003E0084F8420001220021206820E0012D42
:1018B0000CD1012A0AD184F83F0084F8430014E0D7
:1018C000012D03D1012B01D1012A01D0012070BDCE
:1018D00084F83E0084F83F0084F8420084F8430016
:1018E00001220021206802F05DF801220421206815
:1018F00002F058F82068016841F001010160002001
:1019000070BD70472DE9F04104460068C66805695E
:101910004FF00007A90713D5B10711D5F91E0161D2
:1019200001202077206880698007204602D0FFF7D9
:10193000E8FF04E000F0D6F8204600F068F92777C9
:10194000680716D5700714D521686FF00400086188
:10195000022020772068806910F4407F204602D062
:10196000FFF7CFFF04E000F0BDF8204600F04FF98C
:101970002777280715D5300713D521686FF00800A1
:101980000861042020772068C0698007204602D0C3
:10199000FFF7B7FF04E000F0A5F8204600F037F9A4
:1019A0002777E80616D5F00614D521686FF01000E9
:1019B0000861082020772068C06910F4407F204625
:1019C00002D0FFF79EFF04E000F08CF8204600F004
:1019D0001EF92777E80708D0F00706D021686FF0D6
:1019E00001000861204600F077F9280608D5300686
:1019F00006D521686FF0800008612046FFF764FD7E
:101A0000680608D5700606D521686FF040000861A9
:101A1000204600F06BF9A8060AD5B00608D5216863
:101A20006FF0200008612046BDE8F041FFF74DBD92
:101A3000BDE8F08170B586B0044614216846FEF713
:101A40006BFC2468214E00222149022303252148F2
:101A5000B44209D10C6844F020040C60096801F01C
:101A60002001059140210BE01B4EB44212D10C68BD
:101A700044F020040C60096801F0200105918021E8
:101A80000091CDE90132CDE903256946FFF78EF8D3
:101A900006B070BD114E0925B44209D10C6844F05E
:101AA00020040C60096801F020010591B115E7E7F9
:101AB0000B4EB442ECD10C6844F020040C60096871
:101AC00001F0200105917115DAE7000000440140A2
:101AD000303802400014024000480140001C004021
:101AE00000200040704770B5044690F83C00002686
:101AF0000D4601280FD0012084F83C006AB1042A69
:101B00001DD0082A2FD00C2A3FD00126002084F8AF
:101B10003C00304670BD022070BD206801F050FFCF
:101B20002068816941F0080181612068816921F0A4
:101B300004018161206881692A69114311E02068EC
:101B400001F06EFF2068816941F4006181612068C5
:101B5000816921F480618161206881692A6941EA93
:101B600002218161D2E7206801F090FF2068C169FD
:101B700041F00801C1612068C16921F00401C1611F
:101B80002068C1692A69114311E0206801F0B2FFA1
:101B90002068C16941F40061C1612068C16921F414
:101BA0008061C1612068C1692A6941EA0221C1617D
:101BB000ACE710B5040003D094F83D0010B107E085
:101BC000012010BD002084F83C00204600F01EF8E3
:101BD000022084F83D00211D206801F07BFE0120D9
:101BE00084F8460084F83E0084F83F0084F8400002
:101BF00084F8410084F8420084F8430084F84400EB
:101C000084F8450084F83D00002010BD70477047FF
:101C100010B50446022249B104290ED0082913D078
:101C200094F84100012816D0012010BD94F83E0020
:101C30000128F9D184F83E200FE094F83F000128F4
:101C4000F2D184F83F2008E094F840000128EBD15D
:101C500084F8402001E084F841200122206801F04E
:101C6000A1FE16492068164A884201D0904203D14D
:101C7000436C43F4004343642068884213D0B0F1BE
:101C8000804F10D00F4988420DD00F4988420AD0AA
:101C90000E49884207D0904205D00D49884202D0B3
:101CA0000C49884204D1816801F00701062903D05C
:101CB000016841F001010160002010BD00000140F9
:101CC000000401400004004000080040000C0040F7
:101CD000004001400018004000680349884201D1DB
:101CE000FFF768B870470000001000407047704769
:101CF00070470000F8B5016804460868CA684B6977
:101D000010F00F0F4FF0000559D003F0010602F458
:101D10009077374365D0C10705D0D10503D5616CF5
:101D200041F001016164410705D5D90703D0616C19
:101D300041F002016164810705D5D90703D0616CC8
:101D400041F004016164010707D502F0200131432D
:101D500003D0616C41F008016164616C00293AD0E4
:101D6000800604D5900602D5204601F01FFF2068AA
:101D70004069616CC0F38010090700D460B320464D
:101D800001F0EDFE20684069400621D5206814303E
:101D900050E8001F21F0400140E80012002AF5D170
:101DA000E06BA8B172490165E06BFEF7DAFE00282E
:101DB00011D0E06B016D01B0BDE8F040084783062B
:101DC0000FD593060DD52046BDE8F84001F0EEBED4
:101DD0002046FFF78DFFF8BD2046FFF789FF6564B9
:101DE000F8BD266B2023012E7ED1C6067CD5D606F3
:101DF0007AD508684868009048694FF002064006A6
:101E00004DD5E26B106840684FF480770004000CF9
:101E10003AD0A18D814237D9E085D069B8422DD022
:101E200020680C3050E8001F21F4807140E8001257
:101E3000002AF5D12068143050E8001F21F001017C
:101E400040E80012002AF5D12068143050E8001F45
:101E500021F0400140E80012002AF5D184F8423018
:101E6000256320680C3050E8001F21F0100140E885
:101E70000012002AF5D1E06BFEF72AFE6663A08D02
:101E8000E18D401A81B206E0A18D8142A8D1D069CE
:101E9000B842A5D166632046FFF729FFF8BDA08DA3
:101EA000E18D401A81B2E08D0028F7D00029F5D0ED
:101EB00020680C3050E8002F22F4907240E8002790
:101EC000002FF5D12068143050E8002F22F00102D5
:101ED00040E80027002FF5D184F8423025632068C0
:101EE0000C3050E8002F00E006E022F0100240E83D
:101EF0000023002BF3D1CDE705062BD5150629D5F8
:101F000094F841002128C9D1A068B0F5805F01D1C3
:101F10002069B0B1206A411C2162216800784860C4
:101F2000E08C401E0004000CE084B7D12068C1683A
:101F300021F08001C1602068C16841F04001C160AA
:101F4000F8BD206A0088C0F308004860206A801C41
:101F50002062E5E74006F3D55006F1D5CA68204671
:101F600022F04002CA6084F8413000F0C3F9F8BDA5
:101F7000513B000870B5040004D094F841000025DE
:101F800010B106E0012070BD84F84050204600F0FA
:101F900023F8242084F841002068C16821F400510E
:101FA000C160204601F064FE2068016921F490417F
:101FB00001612068416921F02A0141612068C168FE
:101FC00041F40051C1606564202084F8410084F828
:101FD00042006563002070BD2DE9F04387B00446E0
:101FE00014216846FEF798F96A49DFF8A48123684E
:101FF0000024684A103902250326082766484FF452
:10200000406C43451AD1136843F4002313601268EF
:1020100002F4002205920A6842F004020A6009688C
:10202000CDE9024601F00401CDE90471CDE900C516
:102030006946FEF7BBFD07B0BDE8F083DFF85C81C1
:10204000DFF85C91434532D1136843F48013136089
:10205000126802F4801205920A6842F004020A60D3
:102060000A6802F0040205920A6842F008020A6057
:10207000096802AB01F0080105914FF48051CDE9E8
:10208000001583E8D0006946FEF790FD0420CDE9F5
:10209000000502AB694683E8D0004846FEF786FD9E
:1020A000002205213520FEF71DFF352026E03D4F9B
:1020B0000720BB4225D1374A121D136843F0100395
:1020C0001360126802F0100205920A6842F00102E1
:1020D0000A600968029401F0010105914FF4C061A2
:1020E000CDE90015CDE9036069462F48FEF75EFD96
:1020F000002205212520FEF7F5FE2520FEF7E4FE4F
:1021000099E72A4FBB4220D1136843F40033136090
:10211000126802F4003205920A6842F008020A606E
:102120000968029401F0080105916021CDE90015CC
:10213000CDE9036069464846FEF738FD00220521D7
:102140002620FEF7CFFE2620D8E7194FBB42D7D175
:10215000136843F480231360126802F4802205920E
:102160000A6842F002020A600968CDE9024601F0FD
:102170000201CDE90401CDE900C569460D48FEF72D
:1021800015FD002205212720FEF7ACFE2720B5E72C
:10219000004C00404038024000080240005000401F
:1021A000000C0240001001400000024000440040CA
:1021B000004800400004024090F84230202B01D03B
:1021C0000220704721B11AB10023036301F0D6BD8C
:1021D0000120704710B500681349884207D11348A1
:1021E000007803F0B3F901221049114817E01149B2
:1021F000884203D101220D490F4810E00F4988425F
:1022000005D101F063FE01220D490E4807E00E4999
:10221000884208D101F054FA0C490D480122BDE86A
:102220001040FFF7C9BF10BD00440040240000204B
:10223000E807002000100140A007002000480040EF
:10224000A50000203008002000500040A60000201B
:10225000580700202DE9F843044690F841009846BD
:1022600016460D46202802D00220BDE8F88385B12D
:102270007EB100206064212084F84100FEF794FDC7
:10228000A6848146E684A0682027B0F5805F02D04E
:1022900003E00120E9E7206910B12E4600250EE099
:1022A00000260CE08021204601F083FDA8B9C6B1CC
:1022B00016F8010B21684860E08C401EE084E08C39
:1022C0004B464FF00002CDF800800028EAD14FF0D5
:1022D0004001204601F06DFD40B184F841700320BB
:1022E000C3E735F8020BC0F30800E3E784F8417058
:1022F0000020BAE77047FEE710B588B1012812D078
:10230000022813D0032814D10A49032305220A48BE
:10231000FFF7A0FFBDE8104040F6B830FEF734BC30
:1023200004490F39F1E703490A39EEE70149491F2A
:10233000EBE710BD2B5E00083008002010B52DED36
:10234000028B02F0A3FD1E4CF0EE400AB0EE608A54
:1023500094ED020A02F09AFD84ED020AD4ED030A1C
:1023600094ED001A38EE400A70EE810AC4ED030ABB
:1023700002F08CFDF0EE400A94ED030A94ED011A90
:1023800070EE011A80EE211A84ED041A94ED020A0F
:1023900001EE200A84ED020A02F078FD84ED020AC3
:1023A000D4ED040AB7EE001A71EE600A94ED031A38
:1023B00060EE810AC4ED030ABDEC028B10BD000083
:1023C000B04500200A489FED090ADFED0B0A80EDB9
:1023D000000A9FED080A80ED010AC0ED020AB7EE7F
:1023E000000A80ED030AC0ED040A70476F12033B38
:1023F000B04500200AD7A33C0000000010B5B8B0DB
:102400001C222C496846FDF76EFF0021684602F049
:1024100063FD294C27491C2220601C3107A8FDF7C9
:1024200062FF002107A802F057FD224960601C22CC
:1024300038310EA8FDF757FF00210EA802F04CFD21
:102440001C49A0601C22543115A8FDF74CFF002147
:1024500015A802F041FD1749E0601C2270311CA84C
:10246000FDF741FF00211CA802F036FD1149206153
:102470001C228C3123A8FDF736FF002123A802F08F
:102480002BFD0C4960611C22A8312AA8FDF72BFF07
:1024900000212AA802F020FD0649A0611C22C431B7
:1024A00031A8FDF720FF002131A802F015FDE06101
:1024B00038B010BD245D0008040000202DE9F04173
:1024C00086B014216846FDF727FF364800240168CE
:1024D00041F004010160016801F004010591016807
:1024E00041F020010160016801F0200105910168BF
:1024F00041F080010160016801F0800105910168EF
:1025000041F001010160016801F0010105910168DC
:1025100041F010010160016801F0100105910168AE
:1025200041F002010160016801F0020105910168BA
:1025300041F00801016000681B4E00F008004FF4F4
:1025400040450590002229463046FEF727FC174FEC
:1025500000221F213846FEF721FCDFF854800022BC
:1025600003214046FEF71AFC00950125CDE90154F0
:10257000694630460394FEF719FB1F200090CDE911
:102580000154694638460394FEF710FB032000907F
:10259000CDE90154694640460394FEF707FB06B0B7
:1025A000BDE8F081303802400008024000140240CB
:1025B0000010024010B588B01C216846FDF7ACFE43
:1025C00015481449002401600921C0E9011440F2B2
:1025D000E731C0E9031480218161FEF7BFFF08B134
:1025E000FEF754FA0C48FFF7E4FA08B1FEF74EFA8A
:1025F0006020CDE900040294002269460648049454
:10260000FFF771FA08B1FEF741FA0348FFF712FA33
:1026100008B010BD00440140F005002010B588B09E
:102620001C216846FDF778FE154814490024016016
:102630000921C0E9011440F2E731C0E90314802107
:102640008161FEF78BFF08B1FEF720FA0C48FFF717
:10265000B0FA08B1FEF71AFA6020CDE9000402943E
:102660000022694606480494FFF73DFA08B1FEF7D8
:102670000DFA0348FFF7DEF908B010BD004801402D
:102680003806002010B588B01C216846FDF744FECE
:1026900015481449002401600421C0E9011440F2E6
:1026A000E731C0E9031480218161FEF757FF08B1CB
:1026B000FEF7ECF90C48FFF77CFA08B1FEF7E6F9F3
:1026C0006020CDE900040294002269460648049483
:1026D000FFF709FA08B1FEF7D9F90348FFF7AAF99D
:1026E00008B010BD001C00408006002010B588B066
:1026F0001C216846FDF710FE1548144900240160AE
:102700000421C0E9011440F2E731C0E9031480213B
:102710008161FEF723FF08B1FEF7B8F90C48FFF717
:1027200048FA08B1FEF7B2F96020CDE9000402943E
:102730000022694606480494FFF7D5F908B1FEF770
:10274000A5F90348FFF776F908B010BD0020004056
:10275000C806002010B58CB024216846FDF7DCFDCA
:1027600000241748099415490A94C0E900144FF64B
:10277000FF71C0E902410461446184610320CDE935
:1027800000040120CDE902040C210491CDE90540AB
:10279000CDE9074169460A48FEF78AFF08B1FEF70E
:1027A00075F9099409A906480A94FEF78FFE0028D6
:1027B00001D0FEF76BF90CB010BD00000000014025
:1027C000D004002010B58CB024216846FDF7A4FD8C
:1027D0000024164809944FF080410A94C0E900147F
:1027E0004FF6FF71C0E90241046184610320CDE925
:1027F00000040120CDE902040C210491CDE905403B
:10280000CDE9074169460948FEF752FF08B1FEF7D6
:102810003DF9099409A905480A94FEF757FE0028D6
:1028200001D0FEF733F90CB010BD000018050020F0
:1028300010B58CB024216846FDF76EFD00241648C3
:10284000099414490A94C0E900144FF6FF71C0E9D5
:102850000241046184610320CDE900040120CDE937
:1028600002040C210491CDE90540CDE907416946F8
:102870000948FEF71DFF08B1FEF708F9099409A9F8
:1028800005480A94FEF722FE002801D0FEF7FEF864
:102890000CB010BD000400406005002010B58CB0E5
:1028A00024216846FDF738FD002416480994144990
:1028B0000A94C0E900144FF6FF71C0E902410461B7
:1028C00084610320CDE900040120CDE902040C213C
:1028D0000491CDE90540CDE9074169460948FEF775
:1028E000E7FE08B1FEF7D2F8099409A905480A9451
:1028F000FEF7ECFD002801D0FEF7C8F80CB010BDC3
:1029000000080040A80500200C4810B50A490160E5
:102910004FF4E1314160002181600C22C160C0E9C7
:1029200004128161C161FFF725FB002803D0BDE8D7
:102930001040FEF7ABB810BD004C0040100700205F
:102940000C4810B50A4901604FF4E13141600021A3
:1029500081600C22C160C0E904128161C161FFF78E
:1029600009FB002803D0BDE81040FEF78FB810BD6A
:1029700000500040580700200C4810B50A4901607B
:102980004FF4E1314160002181600C22C160C0E957
:1029900004128161C161FFF7EDFA002803D0BDE8A0
:1029A0001040FEF773B810BD00100140A0070020D2
:1029B0000C4810B50A4901604FF4E1314160002133
:1029C00081600C22C160C0E904128161C161FFF71E
:1029D000D1FA002803D0BDE81040FEF757B810BD6B
:1029E00000440040E80700200C4810B50A49016087
:1029F0004FF4E1314160002181600C22C160C0E9E7
:102A000004128161C161FFF7B5FA002803D0BDE867
:102A10001040FEF73BB810BD0048004030080020D1
:102A2000FEE700002DE9F0439DB0060033D0702290
:102A30001A496846FDF757FC0025A846E9460127D4
:102A4000C5EBC50106EB451459F8212009EB8100BF
:102A500022608188A1808168A1608189A18101694A
:102A6000216141696161007E207684F81C8084F8D0
:102A70001D80A7772069FFF7CBF80021204601F0E1
:102A8000B1FF6D1CEDB2042DDAD386F88070002002
:102A90001DB0BDE8F0834FF0FF30F9E7305E00086D
:102AA00070B513460D46040004D094F8800008B1B8
:102AB000042D02D34FF0FF3070BD642251421846FE
:102AC00001F0DAFF014604EB451001F08BFF002016
:102AD00070BD70B5050009D0002405EB441000213D
:102AE00001F080FF641CE4B2042CF6D370BD2DE924
:102AF000F04117460B46060015D096F8800090B1BD
:102B0000642255422946184601F0B6FF0446642265
:102B10002946384601F0B0FF011E6FF0090006D0CB
:102B200007DD054607E04FF0FF30BDE8F0812546A0
:102B300001E025460446214606F1200001F052FF3F
:102B4000214606F1400001F04DFF2946304601F0D4
:102B500049FF294606F1600001F044FF0020E4E748
:102B60002DE9F04117460B46040023D094F880006D
:102B700000B364220021184601F07EFF054604F1EF
:102B8000200004F1400604F16008B7B1294601F0C5
:102B900029FF2946304601F025FF684241B20D4623
:102BA000204601F01FFF2946404601F01BFF002090
:102BB000BDE8F0814FF0FF30FAE7694249B20F46B5
:102BC00001F010FF3946304601F00CFF2946E7E7D7
:102BD0000148FFF727BF0000CC460020FEE70000B9
:102BE00010B537482DED028B9FED368A90ED042A03
:102BF00090EC030AF0EE481A334802F00BFA304822
:102C0000F0EE481A643090EC030A90ED042A2E4846
:102C10003C3002F0FFF92A48F0EE481AC83090EC38
:102C2000030A90ED042A2848783002F0F3F9274887
:102C3000F0EE481A90EC030A90ED042A2248B430D2
:102C400002F0E8F92148F0EE481A643090EC030AEB
:102C500090ED042A1C48F03002F0DCF91B48F0EE3D
:102C6000481A783090EC030A90ED042A184802F0D4
:102C7000D1F9B2EE0E0A144802F0FDF91248B2EE94
:102C80000E0A3C3002F0F7F90F48B2EE0E0A783027
:102C900002F0F1F90E48B2EE0E0A783802F0EBF9C4
:102CA0000B489FED0C0A3C3802F0E5F9B0EE480AFB
:102CB000BDEC028B0648BDE8104002F0DCB9000014
:102CC000C00000200000000050470020EC01002060
:102CD0007C4800200000984210B546482DED048B3A
:102CE000007800287ED0FDF7CFFDFDF7EFFDFDF762
:102CF0000FFEFDF72FFE404890ED030A3F4802F01B
:102D000015F93F48B0EE408A90ED030A3B483C304D
:102D100002F00CF93B48B0EE409A90ED030A3748B8
:102D2000783002F003F93848F0EE409A90ED030A4B
:102D30003248B43002F0FAF82E48F0EE408A0830FB
:102D4000B0EE480A90ED041AD0ED030A02F0FAF84A
:102D50002848B0EE408A6C30B0EE490A90ED041A73
:102D6000D0ED030A02F0EEF82248B0EE409AD030DF
:102D7000B0EE690A90ED041AD0ED030A02F0E2F811
:102D80002248F0EE409AB0EE680A90ED041AD0EDB9
:102D9000030A02F0D7F8F0EE408ABDEEC80A00211F
:102DA00010EE100A42B21A48FFF77AFEBDEEC90AC9
:102DB000012110EE100A42B21548FFF771FEBDEE78
:102DC000E90A022110EE100A42B21148FFF768FE2C
:102DD000BDEEE80ABDEC048B032110EE100A42B2EE
:102DE0000B4800E003E0BDE81040FFF759BEBDEC22
:102DF000048B10BDB80000208C46002050470020F6
:102E00009C460020AC460020BC460020EC0100207F
:102E1000CC4600202DE9F8430746294890F8B254E3
:102E2000FDF7C2FF4FF0FF31E946092F37D2DFE847
:102E300007F0363E0709361534363900012415E00F
:102E4000012134E0284601F09FFE8DF800000121A9
:102E5000284601F099FE8DF8010006E0284601F0B1
:102E600093FE8DF800008DF8015002245FF00006FB
:102E70002A4619F8060080460146384601F034FF1C
:102E800028B1082F19D0404601F058FFA8B1761C90
:102E9000A642EDDB2846BDE8F8830121DEE78DF888
:102EA0000050CBE707A1164801F0D6FF02212846C3
:102EB00001F06AFE8DF80000C0E74046EBE7000035
:102EC000C84800205B44454255475D204465616425
:102ED00020656E642064657465637465642028668B
:102EE0005F63726F73733D38292C20707265706157
:102EF00072696E6720552D7475726E0A00000000AD
:102F00001007002010B540F2E4511348FDF704FA11
:102F100018211248FDF700FA0F480A21002280F814
:102F2000E01580F8E11580F8B01480F8B11404467B
:102F300080F8B224012384F8763280F8E23507481D
:102F4000027042704FF4FA720281BDE810400A46E6
:102F500003A001F0ADB80000C8480020AC4E00202E
:102F60005B50617468506C616E6E696E675D20497C
:102F70006E697469616C697A6564206174202825C2
:102F8000642C2564290A00002DE9F04F06462DED3A
:102F9000028B85B0082805D302460826EDA1F94822
:102FA00001F05AFFF84F0024DFF8E0833878F84D3D
:102FB0004FF0010BA7F2E459A246052868D2DFE8DA
:102FC00000F00326DBFCFB0085F800B05C4698EDC2
:102FD000000A00F0ADFF042E5AD0072E58D0002E64
:102FE00056D098ED000ADFEDEB0AEB4930EE600AAF
:102FF000B0EEC00A10EE100A884249DA304601F0FD
:10300000CDFD10B13C70E5A187E1F3A185E1D8F8D1
:103010000000FDF78CF9CDE900013246FBA1D9484B
:1030200001F01AFF98ED000A3046FFF7F3FE044660
:10303000062E32D199F8B204A0422ED1FE49D148D1
:1030400001F00AFF544685F800A00F220021FB483A
:10305000FFF726FD0F220121F848FFF721FD0F227F
:103060000221F648FFF71CFD0F220321F348FFF76A
:1030700017FDC820FDF788FDF149C24801F0ECFEBC
:1030800085F800B0FFF7ACFD0A20FDF77DFD3C7030
:1030900005B0BDEC028BBDE8F08F99F8B204A042F8
:1030A00060D0201A001DC11700EB917121F00301BF
:1030B000401A40B2032823D1E2A1B24801F0CCFE6D
:1030C00085F800A00F220021DC48FFF7E9FC0F2261
:1030D0000121DA48FFF7E4FC0F220221D748FFF76D
:1030E000DFFC0F220321D548FFF7DAFC4B20FDF768
:1030F0004BFD9620FDF748FDDFA1A24801F0ACFE94
:10310000E8A1A04801F0A8FE85F800A00A2200214D
:10311000CA48FFF7C5FC0A220121C848FFF7C0FCD6
:103120000A220221C548FFF7BBFC0A220321C3483B
:10313000FFF7B6FC4FF49670FDF726FD85F800B05A
:10314000FFF74EFD0A20FDF71FFD7C70022038704E
:1031500005B02246BDEC028BE0A1BDE8F04F8948E6
:1031600001F07ABE85F800B0FFF73AFD0A20FDF7BE
:103170000BFD87F800A08BE785F800A0DFF868A3B7
:103180009AED000A87ED030A797899F8B20401F004
:103190007BFC7869FDF7CBF8804689463869FDF7F6
:1031A000C6F805460E46DAF80000FDF7C0F841EC17
:1031B000100B53EC102B01E0B7E041E08DE8600309
:1031C000CAA1704801F048FE97ED040AD748F0EE16
:1031D000C00A10EE901A81422CDBDFEDD50A70EEAA
:1031E000600AF0EEE00A10EE901A814201DA022441
:1031F00020E0DFEDD00A70EE600AF0EEE00A10EE9B
:10320000901A814201DA012414E0DFEDCB0A70EE5E
:10321000600AF0EEE00A10EE901A814209DBDFED61
:10322000C70A30EE600AB0EEC00A10EE101A8142F2
:1032300000DA0324204600F0B9FE0320387027E7A7
:103240007869FDF774F8804689463869FDF76FF8AC
:10325000A54CCDE900012068FDF769F841EC100BA1
:10326000A2A153EC102B4748CDE9028901F0F4FDEF
:10327000D7ED050A94ED000A01F0E4FBB0EEC00AB8
:1032800010EE100AAE498842D9DC6C48FFF721FCE9
:10329000C820FDF779FC0A2200216848FFF700FCEE
:1032A0000A2201216548FFF7FBFB0A22022163483D
:1032B000FFF7F6FB0A2203216048FFF7F1FBC82065
:1032C000FDF762FC0F2200215C48FFF7E9FB0F22AB
:1032D00001215A48FFF7E4FB0F2202215748FFF76C
:1032E000DFFB0F2203215548FFF7DAFBC820FDF76B
:1032F0004BFC787800F056F9924987F800A0FF223D
:103300000A70C1F804A081F808A085F800B0FFF7A2
:1033100067FC0A20FDF738FC8BA105B01948BDEC0D
:10332000028BBDE8F04F01F097BD85F800A09FED3E
:10333000938A9348B0EE480A01F0A7FEB0EE480A1F
:10334000904801F0A2FEB0EE480A8F4801F09DFEC1
:103350001CE100005B44454255475D20665F637297
:103360006F73733D256420636F6E76657274656458
:1033700020746F203820286465616420656E64299C
:103380000A00000010070020AC4E0020B40000200E
:10339000B800002000009842000070415B444542A4
:1033A00055475D2043726F73732064657465637461
:1033B000656420616E6420737461626C652C2065A5
:1033C0006E746572696E672041545F43524F535368
:1033D0002073746174650A005B44454255475D2063
:1033E00043726F73732064657465637465642062EF
:1033F000757420756E737461626C652C20776169D9
:1034000074696E672E2E2E0A000000005B44454250
:1034100055475D2041742063726F73733A20665F75
:1034200063726F73733D25642C20665F72686F3D15
:10343000252E32660A000000945F0008CC4600206A
:10344000F85E00085B44454255475D204C65667454
:10345000207475726E2064657465637465642C20D5
:1034600074616B696E6720322065787472612073B5
:10347000746570730A0000005B44454255475D2047
:103480004C656674207475726E2065787472612064
:10349000737465707320636F6D706C657465640A16
:1034A000000000005B44454255475D205072652D89
:1034B0007475726E2064656C61793A20636F6E7406
:1034C000696E75696E6720737472616967687420CC
:1034D000666F72203330306D730A00006E65787449
:1034E0005F6469723A256400B00000205B44454285
:1034F00055475D205475726E696E673A20665F7934
:1035000061773D252E32662C207461726765745F89
:103510007961773D252E32662C207475726E5F744A
:1035200061726765743D252E32660A00CDCCCC3DB4
:103530000000B4C20000B442000034C300003443B1
:103540000000A040B84800205B44454255475D203C
:103550005475726E20636F6D706C657465642C2099
:1035600072657475726E696E6720746F20666F6C19
:103570006C6F77206C696E650A0000000000000027
:10358000504700208C470020C847002005B0B0EE0F
:10359000480ABDEC028B0248BDE8F04F01F075BD52
:1035A0000448002038B52C490122824091F9B134F9
:1035B00091F9B044C3EB031301EB830304EB440420
:1035C00023445C7814435C7030B1012808D0022891
:1035D0000AD0032813D10DE091F8B1345B1E06E048
:1035E00091F8B0345B1C08E091F8B1345B1C81F8B1
:1035F000B13404E091F8B0345B1E81F8B03481F846
:10360000B20491F8DF0563280DD200EB4003401CA3
:1036100081F8DF0511480B4430F8404FA3F8B3445C
:10362000807883F8B50491F9B104C0EB001001EB88
:10363000800391F9B00400EB40001C5C14431C545F
:1036400091F8B204009091F9B13491F9B02404A139
:103650000D4801F001FC38BDC8480020384D00205D
:103660005B506F736974696F6E5D204D6F76656432
:1036700020746F202825642C2564292066616369E5
:103680006E672025640A0000100700200A48C178F0
:1036900000290FD08178032909D3084A51789278FC
:1036A00000EE101AB8EEC00A80ED050A0271002182
:1036B000C170817070470000A000002028460020E3
:1036C0000E48C178002918D102468178927909B94B
:1036D000FD2A12D10A4B5A54491CC9B281700229E1
:1036E00006D35A1812F8012CFE2A01D10122C27009
:1036F000642902D300218170C1707047A0000020AE
:1037000028460020094D4FF4FA7401221021284662
:10371000FDF744FB204601F0D3FB00221021284690
:10372000FDF73CFB204601F0CBFBEEE70014024026
:10373000322001F0C5FBFBE72DED028B82B0154C6A
:10374000154D164E164FDFF85C80B5EE008A2068E6
:10375000FCF7EDFD95ED031AD6ED031A41EC100BC5
:1037600011A131EE211AD7ED031A53EC102B10489A
:1037700031EE211AD8ED031A31EE211A21EE081A82
:10378000BDEEC11A8DED001A01F066FB642001F058
:1037900097FBDCE7B00000208C4600209C46002010
:1037A000AC460020BC4600202325662C256424005E
:1037B0001007002000F048FB052001F081FBF9E72D
:1037C000FDF750F90A2001F07BFBF9E7FFF784FAD7
:1037D000052001F075FBF9E7FFF758FF052001F020
:1037E0006FFBF9E7034C2078FFF7CEFB0A2001F0CE
:1037F00067FBF8E7A400002010B5502080F3118883
:10380000BFF34F8FBFF36F8F02F08AF918B10449ED
:103810004FF080500860002080F3118810BD000038
:1038200004ED00E030B593B030216846FCF774FD3C
:1038300014210CA8FCF770FD1D480025016841F01B
:1038400080510160006800F08050119019480168B3
:1038500041F4804101600068022400F4804011902E
:103860000120039010200490009406940820CDE9D4
:103870000750A820CDE9090404200B906846FDF705
:103880006DFC08B172B6FEE70CA90F2081E831008B
:103890004FF4A0500F904FF48050109005210CA8C9
:1038A000FDF752FB002801D072B6FEE713B030BD21
:1038B00040380240007000400248016841F4700145
:1038C0000160704788ED00E00148FEF71BB800007A
:1038D00078080020F0B50268274B284D284E294F64
:1038E000294C4FF0804C984209D0604507D0A8423F
:1038F00005D0B04203D0B84201D0A04204D122F09A
:10390000700E4A6842EA0E0298421BD0604519D0F8
:10391000A84217D0B04215D0B84213D0A04211D05F
:103920001A4DA8420ED01A4DA8420BD0194DA842EC
:1039300008D0194DA84205D0184DA84202D0184D04
:10394000A84203D122F44075CA682A434D6922F087
:1039500080022A438D68C5620D688562984201D055
:10396000A04201D109690163016841F004010160CD
:10397000012141610260F0BD0000014000040040EF
:1039800000080040000C00400004014000400140DD
:10399000004401400048014000180040001C004065
:1039A0000020004010B501F01F030121046A994076
:1039B0008C430462016A9A401143016210BD000009
:1039C000F0B5036A026A22F0010202624268846969
:1039D000124E24F073050C682C4323F002058B680B
:1039E0002B430D4DA84201D0B04205D123F008076A
:1039F000CB683B4323F00403A84201D0B04205D179
:103A00004D6922F4407215438A692A4342608461F9
:103A1000496841630362F0BD0000014000040140B9
:103A2000F0B5026A036A23F01003036243688469F5
:103A30000D6824F4E64444EA05248D6822F020024F
:103A400042EA05120F4D104EA84201D0B04206D1F5
:103A5000CF6822F0800242EA071222F04002A84218
:103A600001D0B04207D14D6923F4406343EA850396
:103A70008D6943EA8503436084614968816302621A
:103A8000F0BD00000000014000040140F0B5026AF2
:103A9000036A23F4807303624368C46922F40072EA
:103AA00024F073050C68124E2C438D6842EA0522FF
:103AB0000E4DA84201D0B04206D1CF6822F4006278
:103AC00042EA072222F48062A84201D0B04207D124
:103AD0004D6923F4405343EA05138D6943EA051306
:103AE0004360C4614968C1630262F0BD00000140E7
:103AF0000004014030B5046A026A22F48052026276
:103B00004268C3690D6823F4E64343EA05238D68E0
:103B100024F4005444EA0534084DA84202D0084D6C
:103B2000A84204D14D6922F4804242EA85124260E3
:103B3000C36149680164046230BD000000000140B7
:103B4000000401400148FEF7D5B8000058070020E6
:103B500010B5806B0021C185FEF7CAF810BD016861
:103B60000C3151E8002F22F4907241E80023002B21
:103B7000F5D10168143151E8002F22F0010241E82B
:103B80000023002BF5D1016B012909D101680C310B
:103B900051E8002F22F0100241E80023002BF5D15C
:103BA000202180F8421000210163704708B590F889
:103BB0004210222901D0022008BD82684FF48053B0
:103BC0009A4201D1016921B1816A9A421BD04AB15E
:103BD0000AE00268816A5268C2F308020A80816AB8
:103BE000891C08E0026972B10268526802F07F0223
:103BF0000A70816A491C8162C18D491E0904090C41
:103C0000C18503D01BE002685268F1E70168CA6809
:103C100022F02002CA600168CA6822F48072CA6079
:103C200001684A6922F001024A61202180F84210AD
:103C300000214163026B012A03D0FEF7CBFA00207A
:103C400008BD016301680C3151E8002F22F0100219
:103C500041E80023002BF5D101680A68D20602D59D
:103C60000A6849680091818DFEF741F8E7E7000096
:103C700070B5044600680169E26821F440511143BF
:103C800001612169A068E269084361691143084341
:103C90002168CA6849F20C639A430243CA602068EB
:103CA0004169A26921F440711143416131492068A1
:103CB000884202D03049884202D1FDF70FFA01E074
:103CC000FDF7FCF9E2690023192164253226B2F5DB
:103CD000004F626828D0A0FB0101930F9200FCF70F
:103CE000D1FA0146B0FBF5F06FF01802504301EB3A
:103CF000800006EB0010B0FBF5F000F0F002B1FB25
:103D0000F5F002EB0012B1FBF5F06FF01803584329
:103D100001EB800006EB0010B0FBF5F000F00F00A7
:103D200021681044886070BDA0FB010192185B41BE
:103D3000FCF7A8FA0146B0FBF5F00201B1FBF5F083
:103D40006FF01803584301EB800006EBC000B0FB96
:103D5000F5F000F0F80002EB4002B1FBF5F058433B
:103D600001EB800006EBC000B0FBF5F000F00700AF
:103D7000D6E70000001001400014014081628285F6
:103D8000C28500214164222180F84210016921B1DD
:103D90000168CA6842F48072CA6001684A6942F0E8
:103DA00001024A610068C16841F02001C160002041
:103DB00070472DE9F843984617460D460446089E7D
:103DC00024E0701C22D0FCF7EFFFA0EB0800B0420B
:103DD0001AD8CEB12068C168490717D5802D15D0F3
:103DE000402D13D00168C94309070FD4016800258D
:103DF000406800902046FFF7B2FE0820606484F817
:103E000040500120BDE8F8830320FBE720680068EC
:103E100035EA000004D00020B842D2D00020F1E7FB
:103E20000120F9E70148FDF765BF0000A007002069
:103E30000148FDF75FBF0000E80700200148FDF7DB
:103E400059BF00003008002010B51C4C60780028D5
:103E500032D020780A282CD31949DFED1A0AB1F99B
:103E60000220B1F9040000EE102AB1F90610B8EEF4
:103E7000C00A20EE201A9FED140A21EE001A84EDEC
:103E8000021A01EE100AB8EEC11A21EE201A21EE34
:103E9000001A84ED031A01EE101AB8EEC11A61EE91
:103EA000200A20EE800A84ED040AFEF747FA84ED2A
:103EB000040A00206070207010BD0000A0000020E7
:103EC000C44500200000003800003443154810B5F8
:103ED000417800290DD1034601785B79002211B1A8
:103EE000012903D006E0552B03D103E0532B01D069
:103EF000027010BD0C4C6354491CC9B201700229F8
:103F00000AD3631813F8024CFB2C05D113F8013CBB
:103F1000462B01D1012343706429EAD30270427019
:103F200010BD0000A0000020C4450020FEE70000F6
:103F300070B51C4800F0FAFFBDEEC00A1A4890EDBB
:103F4000041AD0ED030AB8EEC00A00F0FBFFBDEE84
:103F5000C00A144810EE105AF03805F10F0400EEB4
:103F6000104AB8EEC00A01F090F8C5F10F0500EE56
:103F7000105A0C48B8EEC00AB43801F086F800EECA
:103F8000105A0848B8EEC00A783801F07EF800EE02
:103F9000104ABDE870400348B8EEC00A3C3801F052
:103FA00074B80000404800205002002010B550B105
:103FB00001280DD0022813D0032818D01148FEF78D
:103FC00088FD11A119E00F48FEF783FD19A114E047
:103FD0006FF063020F210B48FEF789FD1DA10CE075
:103FE00064220F210748FEF782FD21A105E001228E
:103FF0001E210448FEF7B4FD24A1BDE810402B4863
:1040000000F02ABFCC4600205B44454255475D2066
:104010005941573A20556E6B6E6F776E20747572EA
:104020006E20747970652C2073746F7070696E6780
:104030000A0000005B44454255475D205941573A0C
:10404000204E6F207475726E2C2073746F707069BF
:104050006E670A005B44454255475D205941573A17
:10406000205475726E696E67206C6566740A000074
:104070005B44454255475D205941573A205475727B
:104080006E696E672072696768740A005B44454216
:1040900055475D205941573A20552D7475726E2051
:1040A000737461727465640A0000000010070020D8
:1040B0000FB4054B10B503A9044A029800F004F9A7
:1040C00010BC5DF814FB0000754B0008780200205E
:1040D0007CB50C001D461646014601D0601E00E06E
:1040E0000020CDE90010064B6A462946304600F014
:1040F000EBF8002C02D0009A002111707CBD00006A
:10410000CF4900080907090E002804DB00F1E02070
:1041100080F80014704700F00F0000F1E02080F8F4
:10412000141D704702E008C8121F08C1002AFAD106
:1041300070477047002001E001C1121F002AFBD127
:10414000704700002DE9FF5F82B00021DDE90430F7
:10415000020DDDF840B0034318D044F61050A2F22F
:10416000FF3242431514119801281FD0A5EB0B0014
:10417000401C5FEA000A4FF000064E4FDFF838910E
:10418000B046504615D5CAF1000413E01198012439
:104190004AA3012801D16FEA0B010298119AC0E9E4
:1041A0000031C0E9024206B0BDE8F09FCBF100004B
:1041B000DFE704460021404A491842EB0450CDE9AC
:1041C000001012E0E00707D032463B464046494621
:1041D000FCF79CF98046894632463B461046194614
:1041E000FCF794F906460F466410002CEAD1DDE98D
:1041F0000401DDE90023BAF1000F06DAFCF786F9C5
:1042000042464B46FCF782F905E0FCF7F1F94246DD
:104210004B46FCF7EDF904460E460022284BFCF70E
:104220006FFA03D84FF0FF30014607E00022254B1C
:1042300020463146FCF7C3F8FCF749FA102409E0A0
:10424000002C0ADB0A220023FCF71CF8039B303207
:104250001A55641E50EA0102F2D1641C039AC4F19B
:1042600011031444119A012A03D0012208430DD1ED
:104270000AE0084304D000204FF0110B119072E7C0
:10428000A3EB0B056D1E0DE05B4504DD4FF0000256
:1042900005F1010504E003DA4FF00002A5F1010584
:1042A000002AECD002981199C0E90231C0E900451A
:1042B00079E70000000014400000F03F30000000EB
:1042C0000000F0430000E03F2DE9FF4F95B09A4613
:1042D000884606460025EEE1252877D100242746AA
:1042E000F94A0121039400E0044316F8013F203B02
:1042F00001FA03F01042F7D130782A2811D06FF07C
:104300002F033078A0F13002092A16D8039A44F01E
:10431000020402EB820203EB42021044761C03907B
:10432000EFE758F8042B0392002A03DA504244F4D2
:104330000054039044F00204761C30782E2816D1E5
:1043400016F8010F44F004042A280DD06FF02F0254
:104350003078A0F13003092B09D807EB870302EB73
:104360004303C718761CF3E758F8047B761C3078B3
:104370006C280FD006DC4C2817D068280DD06A288E
:1043800014D104E0742810D07A280FD10DE044F441
:1043900000140AE044F4801401E044F440147278FC
:1043A000824202D104F58014761C761C307866288F
:1043B0000BD013DC582877D009DC002875D04528AD
:1043C000F6D04628F4D047281AD193E118E06328A4
:1043D00035D0642879D0652812D18BE1702873D04C
:1043E00008DC6728F1D069286FD06E280DD06F28BF
:1043F00006D1ACE073282CD0752874D0782853D01F
:104400005246179990476D1C54E1C4F3025002289C
:1044100009D003280DD0D8F8001004280DD00D6065
:1044200008F1040846E1D8F80010EA17C1E9005283
:10443000F6E7D8F800100D80F2E70D70F0E718F8F5
:10444000041B8DF8001000208DF80100EB460120C0
:1044500003E058F804BB4FF0FF3061074FF0000154
:1044600002D40DE009F101018946B9420FDA814514
:10447000F8DB1BF809100029F4D108E009F101016B
:1044800089468142FADB1BF809100029F6D103980E
:104490005346A0EB090721463846179A00F080FAE8
:1044A000284400EB090507E044E008E10DE01BF8B3
:1044B000010B524617999047B9F10109F7D25346BB
:1044C00021463846179AF2E039E00A21C4F3025235
:1044D0004FF0000B0091022A06D058F8040BC117C8
:1044E000032A09D00AE023E008F1070020F00702C0
:1044F000F2E80201904605E000B2C117042A01D19A
:1045000040B2C117002906DA0A460021404261EB99
:1045100002012D2202E0220504D52B228DF8042071
:10452000012203E0E20701D02022F7E7914657E09D
:104530000A2100E010214FF0000B00910BE0102148
:104540004FF0000B44F004040827009103E008201A
:104550004FF0000B0090C4F30252022A05D058F825
:10456000040B0021032A08D008E008F1070020F01E
:104570000702F2E80201904603E080B2042A00D16B
:10458000C0B24FF0000922072AD53278702A07D02E
:10459000DDF800C08CF0100C5CEA0B0C05D00EE0CE
:1045A00040228DF80420012208E050EA010306D0E1
:1045B00030238DF804308DF8052002229146009BAF
:1045C00083F0080353EA0B030AD150EA010201D138
:1045D000620705D530228DF804204FF001097F1EB7
:1045E0003278582A04D039A20C920CAA02920BE01D
:1045F0003BA2F9E75B46009AFBF744FE0C9B9B5CF1
:10460000029A521E0292137050EA0102F2D10298ED
:1046100004A9081A00F1200B600702D524F48034A5
:1046200000E001275F4502DDA7EB0B0000E0002062
:1046300000EB0B01009003984944401A0390E003FB
:1046400006D453462146179A039800F0A9F9054469
:10465000002706E001A85246C05D179990476D1CDF
:104660007F1C4F45F6DBE0030CD553462146179AD5
:10467000039800F095F9054404E03020524617995C
:1046800090476D1C0099481E00900029F5DC08E059
:104690000298029952460078491C02911799904756
:1046A0006D1CBBF10001ABF1010BF1DC5BE100F033
:1046B00065F90544761C307800287FF40DAE19B0FA
:1046C0002846BDE8F08F0000092801003031323360
:1046D000343536373839616263646566000000003E
:1046E0003031323334353637383941424344454628
:1046F00000000000600700D4062708F1070020F042
:104700000700F0E80223804603F0004C5FEA0C004B
:1047100001D097A009E0200501D596A005E0E007AB
:1047200001D095A001E0AFF24C001390307823F057
:10473000004365280CD006DC452809D046281DD04A
:1047400047287FD13BE0662818D067287AD136E029
:104750000021112F01DB112000E0781CCDE90001C0
:1047600004A90CA8FFF7EEFCDDE90D010C9A4FF04F
:10477000000B07F10109109200914EE04FF000404C
:104780000097CDE9011004A90CA8FFF7DBFCDDE9D7
:104790000D020C9B0F994FF0000B91461093009265
:1047A00011B9791C00EB0109B7EB090003D4C0F182
:1047B000FF3B07F10109A9EB0700019042E0012F3F
:1047C00000DA01270021112F01DD112000E0384619
:1047D000CDE9000104A90CA8FFF7B4FCDDE90D0147
:1047E0000C9A00914FF0000BB946109221070FD49C
:1047F000009A4A4503DA914601E0A9F10109B9F1AD
:10480000010F05DD109AA9F10101515C3029F4D0A6
:10481000B84202DA10F1040F03DA0121CDE90110E8
:1048200010E0002803DC8344A9EB000102E0411CF6
:10483000494500DD8946A0EB0B00401C01904FF07C
:1048400000400290200705D40198484502DB4FF054
:10485000FF30019000208DF84B0002980DF14B07BE
:10486000B0F1004F25D002200C902B200D90029823
:1048700000280CDA404202902D200D9007E00A211A
:104880000298FBF767FD3031029007F8011D0C9983
:10489000481E0C900029F2DC02980028EFD1791E06
:1048A0000D980870307800F0200040F0450007F8BF
:1048B000020D11A8C01BC01D02901398007800B112
:1048C000012000EB0901019801EBE071029801441D
:1048D0000398401A401E0390E00306D45346214635
:1048E000179A039800F05CF805441398007818B103
:1048F0005246179990476D1CE00323D55346214635
:10490000179A039800F04CF805441BE0BBF1000F28
:1049100007DB0098584504DD1098179910F80B0034
:1049200001E0179930205246904701980BF1010B96
:10493000401E05F10105019004D12E205246179921
:1049400090476D1CB9F10001A9F10109DEDC05E019
:1049500017F8010B5246179990476D1C0299481E93
:1049600002900029F4DC53462146179A03989EE6EC
:104970002D0000002B000000200000002DE9F04178
:10498000044600251E461746880404D405E039462F
:104990002020B0476D1C641EF9D52846BDE8F08183
:1049A0002DE9F041044600251E469046C80301D576
:1049B000302700E02027880404D505E0414638462A
:1049C000B0476D1C641EF9D52846BDE8F0814A68E1
:1049D000002A06D00A68531C0B6010704868401EFD
:1049E0004860704770B504002AD0A07F002827D007
:1049F000207E08B1484200E0084645B2217749B11F
:104A00006426002D0CDD0121204600F06BFD4FF4E3
:104A10007A700BE00021204600F064FD00210AE0DE
:104A20000221204600F05EFD4FF6184015FB00F015
:104A300090FBF6F081B22046BDE8704000F075BDF5
:104A400070BD000030EEC00A0849DFED090A10EE23
:104A5000100A884202DD30EE600A704710EE100A3C
:104A600004498842F9D930EE200A704700003443E7
:104A70000000B443000034C3884201DA084670479E
:104A80009042FCDD104670472DE9F04380462E48E9
:104A90000F46DFED2E1A90ED000AA1EB0800001D75
:104AA000C11700EB917121F00301401A44B2DFED10
:104AB000280A284887B03CB19FED271A012C06D060
:104AC000022C0ED0032C0ED0C0ED041A05E0DFED51
:104AD000231A30EE410AC0ED041A214A80ED050A7E
:104AE0000AE09FED201A80ED041A30EE010AF4E787
:104AF00030EE600A80ED050A10EE101A9142F7DCE4
:104B0000194A00BF10EE101A914204D930EE200A63
:104B100080ED050AF6E7814610EE100AFBF707FC68
:104B200005460E46D9F81000FBF701FC0A4602A91B
:104B3000009481E865003B4642460C490C4800F071
:104B40008BF907B0BDE8F083B00000200000000042
:104B50000000B443AC4E00200000B4420000B4C2D8
:104B60000000344300003443000034C3445F0008B5
:104B70001007002003490A685206FCD5C2B24A60F9
:104B800070470000001001400844001DC11700EBF1
:104B9000917121F00301401AC0B2704710B504466C
:104BA000FCF702F90146164800220378A34205D01B
:104BB000047041600272224612A10CE0436833B1D6
:104BC000CB1AC3606E2B13D3017A41B10EE0416062
:104BD000027222461AA1264800F03EF90EE0012199
:104BE0000172224623A1224800F036F9012010BDAF
:104BF000027222462DA11E4800F02EF9002010BDA1
:104C0000B84800205B44454255475D2053746162BB
:104C1000696C6974793A2043726F737320636861B9
:104C20006E67656420746F2025642C207265737430
:104C3000617274696E672074696D65720A000000A4
:104C40005B44454255475D2053746162696C6974E9
:104C5000793A205374617274696E672074696D6566
:104C60007220666F722063726F73733D25640A0051
:104C7000100700205B44454255475D205374616234
:104C8000696C6974793A2043726F737320256420CC
:104C90006973206E6F7720737461626C6520616642
:104CA00074657220256C75206D730A005B44454263
:104CB00055475D2053746162696C6974793A204389
:104CC000726F737320256420737461626C65206653
:104CD0006F7220256C75206D7320286E65656420C9
:104CE0003131306D73290A00891A091DCA1701EB89
:104CF000927222F00302891A49B231B101290AD015
:104D000002290DD0032914D10DE0A0B1042812D03E
:104D1000072810D00DE002280DD006280BD008E09F
:104D2000082808D005E0012805D0052803D003286D
:104D300001D000207047012070470000184B10B5CB
:104D400093F9B02493F9B11430B1012806D00228A8
:104D500006D0032809D106E0491E02E0521C03E0F8
:104D6000491C49B201E0521E52B2142A13D2002942
:104D700011DB14290FDAC1EB011103EB810102EB06
:104D80004202801D114400F0030001248440497850
:104D9000E0B2014201D0012010BD002010BD000092
:104DA000C848002008B5FCF70DF8FEF73BFDFDF7FD
:104DB00085FBFDF7E1FDFDF7FBFDFDF7A5FDFDF72B
:104DC00013FEFDF7C7FCFDF7FDFCFDF731FDFDF718
:104DD00065FDFDF7EFFBFDF755FCFDF71FFCFDF74B
:104DE00085FCFDF7ADFDFBF719FEFDF7F1FEFDF7C4
:104DF000F7FE0120FDF780FAFDF7E4FAFEF782F8EE
:104E0000012269460B48FDF7D7F9012269460A4895
:104E1000FDF7D2F9012209490948FDF7CDF9012230
:104E200008490948FDF7C8F9FDF7E8FA00F04FF81E
:104E3000FEE70000E8070020A0070020A5000020F2
:104E400030080020A600002058070020014600205E
:104E5000842900D0C81C70470FB44FF4007130B5DE
:104E6000ADF5017D054686AB6846859AFFF730F9BA
:104E7000044682B2FF2369462846FDF7EBF90DF59B
:104E8000017D204630BC5DF814FB0000DFED090A0F
:104E9000094901E030EE600A10EE100A8842F9DCA0
:104EA000064900BF10EE100A884202D930EE200AEF
:104EB000F8E770470000B44300003443000034C3F7
:104EC00010B500B9012000F079FC002010BD10B52C
:104ED00000F09AFC002010BD7FB50D4604464169E4
:104EE000B0F9080081B1A16971B1FFF7AFFFD4E952
:104EF00005128DE80700D4E900102B46226900F066
:104F0000E4FD039004B070BDFFF7A0FF03A9CDE955
:104F10000001208A2B4682B2D4E9001000F0A8FDDF
:104F2000012801D00020EDE70398EBE710B5044617
:104F300080ED040A00F016F8204600F083F894EDA6
:104F4000050A10BDB4EEE00AF1EE10FA02D2B0EE9E
:104F5000600A7047B4EEC10AF1EE10FAF9DDB0EE66
:104F6000410A704790ED030AD0ED040A234A30EE5F
:104F7000600A80ED070AF0EEC00A10EE901A914226
:104F800002DDDFED1F0A15E0D0ED0B0A1D4A70EEC1
:104F9000800A10EE901AC0ED0B0A914203DDDFED9E
:104FA0001A0AC0ED0B0A10EE901A184A914203D962
:104FB000DFED170AC0ED0B0AD0ED000A60EE801A93
:104FC000C0ED0C1AD0ED010A90ED0B1A20EE811AFB
:104FD00080ED0D1AD0ED080A90ED022A31EE811A0B
:104FE00070EE600A60EE820AC0ED0E0A71EE200AD1
:104FF000C0ED050A80ED080A70470000000020415E
:10500000000000000000C8420000C8420000C8C202
:105010000000C8C280ED062A80EC040A9FED080A51
:1050200080ED0B0A80ED080A80ED090A80ED050A83
:1050300080ED0C0A80ED0D0A80ED0E0A704700002D
:1050400000000000D0ED050A90ED060AF4EEC00A5B
:10505000F1EE10FA06DCB1EE400AF4EEC00AF1EE11
:1050600010FA01D280ED050A704780ED060A7047FC
:1050700080EC030A704780ED030AF0EE401A90ECD2
:10508000030A90ED062AFFF7C5BF80ED030A7047BB
:105090002DE9F041184C0F460546E6682068001DD2
:1050A00000F09AFA38B9206890F82C100120884056
:1050B000216981432161681C07D137B12168BDE8AE
:1050C000F0410E48091D00F0CBBA20683544B542C6
:1050D0004560216805D2A06BBDE8F041091D00F0D4
:1050E000A7BA606B091D00F0A3FAA06A854200D23E
:1050F000A562BDE8F0810000380000209C09002076
:105100002DE9F041054600F0B7FA2E4CA068401C8E
:10511000A06020682C4F10B1606940B32DE025607D
:10512000A068012829D1002606EB860007EB800045
:1051300000F070FA761C072EF6D323488C3000F06E
:1051400069FA2148A03000F065FA1F48B43000F039
:1051500061FA1D48C83000F05DFA1B48DC3000F0F1
:1051600059FA19488C3060631430A06305E0206858
:10517000E96AC06A884200D82560606A401C6062A3
:10518000E96A0120226988401043206101EB810017
:1051900007EB8000291D00F063FA00F08DFA6069CA
:1051A00000280CD02068E96AC06A884207D2074903
:1051B0004FF080500860BFF34F8FBFF36F8FBDE893
:1051C000F081000038000020C008002004ED00E05D
:1051D00010B5044690F8510058B101280CD00228AF
:1051E0000FD0502080F31188BFF34F8FBFF36F8F24
:1051F000FEE7206B00F074FA2046BDE8104000F096
:105200006FBA10BD10484FF47051420706D0C01D50
:105210000D4920F00700411AC1F570510B4A0023D7
:105220000144C2E900030839183A21F0070111606E
:105230004B600B600B1AC0E9001393604FF0004005
:105240005360506170470000B00900208C000020BE
:10525000144E154CA6F1C8074FF08058DFF84C905B
:1052600012E000BF00F008FAF068C568281D00F0E1
:10527000B3F9A068401EA0606068401E606000F046
:105280001BFA2846FFF7A4FF60680028EAD13868B7
:105290000128F9D9C9F80080BFF34F8FBFF36F8F92
:1052A000F2E70000880900203800002004ED00E04B
:1052B0002DE9F0479A46DDE9098481466FF0030342
:1052C000206B03EB82021044089E20F0070778074A
:1052D00007D0502080F31188BFF34F8FBFF36F8F3B
:1052E000FEE7002561B1002023180A5C83F8342012
:1052F0000A5C12B1401C1028F6D384F8435001E038
:1053000084F83450072E00D30626E662C4E91165FE
:10531000201D00F08AF904F1180000F086F92461DC
:10532000C6F107006462A061E56484F850505246FB
:105330004946384600F0C0F82060B8F1000F01D0AF
:10534000C8F80040BDE8F08730B5114900E01146CB
:105350000A688242FBD34B685C18844203D14068E0
:1053600018444860084643681C18944209D1084C08
:10537000183C2468A24209D052681A4442600A6864
:1053800012680260814200D0086030BD0460F9E715
:105390008C0000200648416B096829B1416BC9683F
:1053A000C9684968816270474FF0FF31FAE7000031
:1053B0003800002008484068401C4FF0500080F33F
:1053C000118804D0BFF34F8FBFF36F8FFEE7BFF399
:1053D0004F8FBFF36F8FFEE7940000202DE9F0415F
:1053E0000546002700F046FA324E306808B9FFF74C
:1053F00009FF706905424ED1C5B3083568070ED064
:1054000005F00700C0F108000544680707D05020E8
:1054100080F31188BFF34F8FBFF36F8FFEE72DB37B
:105420007068854237D82348183001460C6801E07F
:1054300020460C466168A94202D221680029F7D1B2
:1054400031688C4227D0076821680160606808379E
:10545000411B10290FD96019420708D0502080F352
:105460001188BFF34F8FBFF36F8FFEE713E04160EA
:105470006560FFF769FF61687068401A7060B26824
:10548000904200D2B060706901430020C4E900017D
:10549000F068401CF06000F0E3FB780707D0502074
:1054A00080F31188BFF34F8FBFF36F8FFEE738464D
:1054B000BDE8F0817400002010B5031F4FF0807428
:1054C0001C601B1F21F001011960191F044B0B60A8
:1054D00014390A60091F6FF0020244380A6010BDD7
:1054E000B553000870B50D00044604D0012D06D058
:1054F000022D0FD110E0A1880022206802E0A188CF
:1055000001222068FBF74AFCA1890022D4F8080098
:10551000FBF744FC657770BDA18800222068FBF78B
:105520003DFCA1890122A068F2E742690069006898
:105530002AB1042A05D0082A05D0016470474163C6
:10554000704781637047C1637047000008B51F4909
:10555000002300934A78632808D06F280CD06E2867
:105560000FD0652816D074281AD01BE012B1052A76
:1055700014D017E0012002E0012A13D10220487064
:1055800008BD022A02D0032A02D00BE00320F6E76E
:105590000420F4E7042A05D10520F0E70620EEE711
:1055A000062A01D04B7008BD09484B706946006857
:1055B00000F010FA00980028F5D006494FF080500E
:1055C0000860BFF34F8FBFF36F8F08BD240000202A
:1055D0000000002004ED00E0D0E9013201699A608A
:1055E000D0E901235A604A68824201D182684A6048
:1055F000002202610868401E0860086870470000C9
:10560000034B036003F15400086080201060704772
:105610007C02002000F108014FF0FF32C0E90112C6
:10562000C160016100210160704700210161704784
:1056300030B50B685A1C02D000F1080202E0026982
:1056400004E02246546825689D42FAD953684B60AD
:1056500099608A60516008610168491C016030BD31
:1056600042684A6093688B609368596091600861F2
:105670000168491C01607047502080F31188BFF316
:105680004F8FBFF36F8F0A494868401C486001285C
:105690000CD10848006810F0FF0F07D0502080F3AD
:1056A0001188BFF34F8FBFF36F8FFEE77047000085
:1056B0009400002004ED00E00849486828B1401E2D
:1056C000486001D180F311887047502080F3118821
:1056D000BFF34F8FBFF36F8FFEE7000094000020F1
:1056E00070B500282AD0164DA0F1080460686969D9
:1056F000084207D1502080F31188BFF34F8FBFF3CA
:105700006F8FFEE722683AB1502080F31188BFF313
:105710004F8FBFF36F8FFEE78843606000F0AAF8F9
:1057200060686968084468602046FFF70DFE2869D4
:10573000401C2861BDE8704000F092BA70BD0000C6
:10574000740000204FF0E0200021016181610549D3
:105750004FF47A720968B1FBF2F1491E41610721E9
:10576000016170473400002010B5FAF775FD11494A
:1057700010280ED300F1E02090F8F0030A78904250
:1057800007D2502080F31188BFF34F8FBFF36F8F84
:10579000FEE709480068896800F4E060884207D99C
:1057A000502080F31188BFF34F8FBFF36F8FFEE758
:1057B00010BD0000940000200CED00E010B50200C8
:1057C00014D00F48006B38B1502080F31188BFF31C
:1057D0004F8FBFF36F8FFEE700F04CF800211046AB
:1057E000FFF756FC00F03CFA002807D105494FF0BE
:1057F00080500860BFF34F8FBFF36F8F10BD000064
:105800003800002004ED00E010B586B000240394B9
:1058100005AA04A903A80494FFF7F2FEDDE9030139
:105820000094CDE9011000230EA11048059A00F064
:105830004CF90F490028C86211D0502080F311881C
:10584000BFF34F8FBFF36F8F4FF0FF30886201209F
:105850004861CC6006B0BDE8104000F041B806B029
:1058600010BD000049444C450000000051520008A2
:10587000380000200248016B491C0163704700009A
:10588000380000201448016B11B10121C16170473B
:105890000021C1610169B1FA81F1C1F11F0101EB80
:1058A00081020E4951F822306BB101EB820101F106
:1058B00008034A6852684A609A4201D152684A60B5
:1058C000D16801607047502080F31188BFF34F8F7B
:1058D000BFF36F8FFEE7000038000020C0080020F3
:1058E0001CB537480168374A914207D1502080F3F0
:1058F0001188BFF34F8FBFF36F8FFEE70068314908
:10590000491E884207D1502080F31188BFF34F8F82
:10591000BFF36F8FFEE72C4908780190FF200870D5
:1059200008788DF800009DF800009DF8002000F038
:10593000F000904207D0502080F31188BFF34F8FC2
:10594000BFF36F8FFEE79DF80000204C00F0500081
:1059500020700720A06005E09DF8002052008DF81F
:105960000020401E9DF800201206F5D4A0600328F8
:1059700007D0502080F31188BFF34F8FBFF36F8F94
:10598000FEE74FF44070A060019808700C4820308A
:10599000016841F470010160016841F070410160EB
:1059A000FFF7D0FE00206060FAF71EFC084801688F
:1059B00041F040410160FAF703FC00201CBD0000EB
:1059C00000ED00E071C20F4100E400E0940000200F
:1059D00034EF00E070B50E46040009D0206C78B1B9
:1059E000502080F31188BFF34F8FBFF36F8FFEE716
:1059F000502080F31188BFF34F8FBFF36F8FFEE706
:105A0000206848B9A06838B1502080F31188BFF3EE
:105A10004F8FBFF36F8FFEE7FFF7A6FE5020EFF327
:105A2000118580F31188BFF34F8FBFF36F8FA16B88
:105A3000E06B884218D994F94500491CA163411CC8
:105A400004D0401C84F8450001200EE0606A002864
:105A5000FAD004F1240000F0C9F80028F4D0002E98
:105A6000F2D001203060EFE7002085F3118870BD8F
:105A70002DE9FF5F8346DDE90E87994616468A4683
:105A80009000FFF7ABFC05001CD05420FFF7A6FCEC
:105A9000040014D00020256384F85100CDE90240B1
:105AA000CDE900874B46324651465846FFF700FC89
:105AB0002046FFF725FB012004B0BDE8F09F2846F3
:105AC000FFF70EFE4FF0FF30F6E7F0B585B0DDE9E9
:105AD0000B640A9DA6B1DCB1542700972663022609
