:020000040800F2
:100000003046002061020008911B000821190008F9
:100010008D1B000823040008912500080000000043
:10002000000000000000000000000000A101000826
:100030002704000800000000FD010008191F000847
:100040007B0200087B0200087B0200087B0200089C
:100050007B0200087B0200087B0200087B0200088C
:100060007B0200087B0200087B0200087B0200087C
:100070007B0200087B0200087B0200087B0200086C
:100080007B0200087B0200087B0200087B0200085C
:100090007B0200087B0200087B0200087B0200084C
:1000A0007B0200087B0200087B0200087B0200083C
:1000B0007B0200087B0200087B0200087B0200082C
:1000C0007B0200087B0200087B0200087B0200081C
:1000D0007B02000871250008812500087B020008CA
:1000E0007B0200087B0200087B0200087B020008FC
:1000F0007B0200087B0200087B0200087B020008EC
:100100007B0200087B0200087B0200087B020008DB
:100110007B0200087B020008192000087B0200080F
:100120007B0200087B0200087B0200087B020008BB
:100130007B0200087B0200087B0200087B020008AB
:100140007B0200087B0200087B0200087B0200089B
:100150007B0200087B0200087B0200087B0200088B
:100160007B0200087B0200087B0200087B0200087B
:100170007B0200087B0200087B02000800000000F0
:100180007B0200087B020008DFF810D000F00CF9B9
:10019000004800472D280008AFF3008030460020BB
:1001A0002C4B19680868B0E8F04F80F30988BFF35A
:1001B0006F8F4FF0000080F311887047000000003F
:1001C00008480068006880F308884FF0000080F35A
:1001D000148862B661B6BFF34F8FBFF36F8F00DF35
:1001E00000BF00BF08ED00E0DFF80C00016841F43B
:1001F00070010160704700BF88ED00E0EFF30980F7
:10020000BFF36F8F134B1A681EF0100F08BF20ED5D
:10021000108A20E9F04F106009B44FF0500080F3CD
:100220001188BFF34F8FBFF36F8F03F0F3FC4FF0D4
:10023000000080F3118809BC19680868B0E8F04F25
:100240001EF0100F08BFB0EC108A80F30988BFF3CE
:100250006F8F704728010020EFF305807047000082
:100260000648804706480047FEE7FEE7FEE7FEE750
:10027000FEE7FEE7FEE7FEE7FEE7FEE705200008F3
:10028000890100082DE9F05F0546002092469B4653
:1002900088460646814640241BE02846414647469C
:1002A000224600F070F853465A46C01A914110D3C6
:1002B00011461846224600F057F82D1A67EB010840
:1002C0004F4622460120002100F04EF817EB0009AE
:1002D0004E41201EA4F10104DFDC484631462A4687
:1002E0004346BDE8F09F40EA01039B0703D009E0C5
:1002F00008C9121F08C0042AFAD203E011F8013B12
:1003000000F8013B521EF9D27047D2B201E000F86A
:10031000012B491EFBD270470022F6E710B51346A9
:100320000A4604461946FFF7F0FF204610BD421C5E
:1003300010F8011B0029FBD1801A704730B50B461D
:10034000014600202022012409E021FA02F59D4205
:1003500005D303FA02F5491B04FA02F52844151ED9
:10036000A2F10102F1DC30BD202A04DB203A00FAC0
:1003700002F1002070479140C2F1200320FA03F3FC
:10038000194390407047202A04DB203A21FA02F0FA
:100390000021704721FA02F3D040C2F120029140BF
:1003A0000843194670470000064C074D06E0E06818
:1003B00040F0010394E8070098471034AC42F6D3AC
:1003C000FFF7E6FE104D0008304D000870B58C18A0
:1003D00010F8015B15F0070301D110F8013B2A1159
:1003E00006D110F8012B03E010F8016B01F8016B46
:1003F0005B1EF9D12B0705D40023521E0DD401F842
:10040000013BFAE710F8013BCB1A921C03E013F80A
:10041000015B01F8015B521EF9D5A142D8D300203F
:1004200070BD00BFFEE7704772B600BFFEE770B553
:100430000446A56D00F066F9064694F835000228DA
:1004400008D08020606500BF002084F8340000BF21
:10045000012070BD2068006820F016002168086047
:100460002068406920F0800021684861206C08B94C
:10047000A06C28B12068006820F00800216808609E
:100480002068006820F001002168086010E000F09A
:1004900039F9801B05280BD920206065032084F8DA
:1004A000350000BF002084F8340000BF0320D0E7EF
:1004B0002068006800F001000028E8D194F85C1082
:1004C0003F208840A860012084F8350000BF00204C
:1004D00084F8340000BF00BFBBE7014691F8350047
:1004E000022803D08020486501207047052081F84C
:1004F00035000868006820F001000A6810600020DC
:10050000F3E70000F8B502460B4600250024002062
:100510000021D6E0012606FA01F51E6806EA050468
:10052000AC4274D11E7906F00306012E04D01E7968
:1005300006F00306022E13D190684F000326BE403A
:10054000B0434F00DE68BE403043906050680126E3
:100550008E40B0431E79C6F300168E403043506083
:100560001E7906F00306032E09D0D0684F0003263B
:10057000BE40B0434F009E68BE403043D0601E79FD
:1005800006F00306022E13D1CF0802F1200656F81A
:1005900027004E07F70E0F26BE40B0434F07FF0E51
:1005A0001E69BE403043CF0802F1200646F82700FE
:1005B00010684F000326BE40B0431E7906F00306C4
:1005C0004F00BE40304310605E6806F44036002E97
:1005D00076D000BF002600963C4E366846F4804632
:1005E0003A4F3E603E46366806F48046009600BFAD
:1005F00000BF374E8F0856F827008E07370F0F269B
:10060000BE40B043334EB24202D1002624E057E050
:10061000314EB24201D101261EE0304EB24201D12C
:10062000022619E02E4EB24201D1032614E02D4ECF
:10063000B24201D104260FE02B4EB24201D1052671
:100640000AE02A4EB24201D1062605E0284EB24207
:1006500001D1072600E008268F073F0FBE40304338
:100660001B4E8F0846F82700224E3068A0435E6874
:1006700006F4801606B120431E4E3060361D3068E9
:10068000A0435E6806F4001606B12043194E361DDD
:100690003060184E361F3068A0435E6806F400369E
:1006A00006B12043134E361F3060361F3068A0431A
:1006B0005E6806F4803606B120430E4E083E306078
:1006C000491C1029FFF426AFF8BD00004438024051
:1006D00008380140000002400004024000080240C7
:1006E000000C0240001002400014024000180240BA
:1006F000001C0240083C01400AB1816101E00B048A
:10070000836170470148006870470000F0000020D6
:1007100003480068034909780844014908607047A4
:10072000F0000020F800002010B50D48006840F4EB
:1007300000700B4908600846006840F4806008605B
:100740000846006840F480700860032000F0E0F87C
:100750000F2000F007F800F05FF8002010BD000047
:10076000003C02402DE9F04188B004460027B8461D
:1007700000BF002001902348006840F0100021498C
:1007800008600846006800F01000019000BF00BF3C
:1007900002A903A800F092F9069F1FB900F0B6F96C
:1007A000054602E000F0B2F945001748B5FBF0F04D
:1007B000A0F1010815481649086040F2E7311448D5
:1007C000C160C0F80480002101618160816100F096
:1007D00065FC064696B90E4800F094FC06466EB9D4
:1007E000362000F043F8102C07D200222146362094
:1007F00000F050F80748046000E00126304608B0D9
:10080000BDE8F0814038024040420F000010004037
:10081000BC030020F400002008B500BF00200090B9
:100820001148006840F480400F490860084600689D
:1008300000F48040009000BF00BF00BF0020009087
:10084000081F006840F08050091F086008460068D3
:1008500000F08050009000BF00BF00220F21901ECA
:1008600000F018F808BD0000443802400146084670
:1008700000280DDB00BF00BF00F01F0301229A40DB
:1008800043099B0003F1E023C3F8002100BF00BF30
:1008900000BF70472DE9F05F80460D4616460027E1
:1008A00001F0A2FE074639462A46334601F007000A
:1008B000C0F1070ABAF1040F02D94FF0040A01E0AF
:1008C000C0F1070AD14600F1040ABAF1070F02D2BB
:1008D0004FF0000A01E0A0F1030AD4464FF0010AEC
:1008E0000AFA09FAAAF1010A0AEA020A0AFA0CFA51
:1008F0004FF0010B0BFA0CFBABF1010B0BEA030BF6
:100900004AEA0B042146404601F076FEBDE8F09F1E
:1009100000BF00F00702064B19684FF6FF031940AD
:10092000044B0B4343EA0221014B196000BF70479F
:100930000CED00E00000FA0570B504460D460CB958
:10094000012070BD5848006800F00700A84209D295
:1009500055490D700846006800F00700A84201D014
:100960000120EEE7207800F0020002281DD1207857
:1009700000F00400042805D14C48006840F4E05021
:100980004A490860207800F00800082805D1474847
:10099000006840F46040454908604448006820F021
:1009A000F000A168084341490860207800F0010088
:1009B000A8B36068012807D13C4808380068C0F334
:1009C0004040B8B90120BCE76068022802D06068E6
:1009D000032807D1354808380068C0F3406048B99B
:1009E0000120AEE7314808380068C0F3400008B97C
:1009F0000120A6E72D48006820F003006168084345
:100A00002A490860FFF77EFE064609E0FFF77AFEF6
:100A1000801B41F28831884202D9032091E707E028
:100A20002248006800F00C006168B0EB810FEDD146
:100A30001D48006800F00700A84209D91A490D7046
:100A40000846006800F00700A84201D0012078E7BE
:100A5000207800F00400042807D11448006820F42E
:100A6000E050E168084311490860207800F0080070
:100A7000082808D10D48006820F46040216940EA48
:100A8000C1000A49086000F061F808490968C1F32B
:100A90000311074A515CC8400649086006480068CF
:100AA000FFF760FE00204CE7003C0240083802409F
:100AB000B84C000830000020F40000200F22026033
:100AC0000D4A126802F0030242600B4A126802F0FB
:100AD000F0028260084A126802F4E052C260064ADC
:100AE000126802F46042D2080261044A126802F0FD
:100AF00007020A607047000008380240003C0240CC
:100B000001480068704700003000002000B5FFF782
:100B1000F7FF04490968C1F38221034A515CC840C8
:100B200000BD000008380240C84C000800B5FFF7BF
:100B3000E7FF04490968C1F34231034A515CC840E8
:100B400000BD000008380240C84C00082DE9F047FD
:100B5000002400250026A1462548006800F00C006E
:100B600020B1042805D008283AD105E0DFF88490A8
:100B700039E0DFF8849036E01D48001F006800F07F
:100B80003F041B48001F006800F4800078B11A4839
:100B90001749091F0968C1F38811A0FB01700146BC
:100BA000224600233846FFF76DFB05460EE011484C
:100BB0000F49091F0968C1F38811A0FB01700146A4
:100BC000224600233846FFF75DFB05460848001F14
:100BD0000068C0F30140401C4600B5FBF6F902E096
:100BE000DFF8109000BF00BF4846BDE8F087000066
:100BF000083802400024F40000127A00F8B50446D8
:100C00000CB90120F8BD207800F00100002874D054
:100C1000F948006800F00C0004280DD0F648006880
:100C200000F00C00082813D1F348001F006800F4FE
:100C30008000B0F5800F0BD1EF4808380068C0F392
:100C40004040002859D06068002856D10120D9E7DB
:100C500000BF6068B0F5803F08D1E74808380068F9
:100C600040F48030E449083908601EE06068B0F55F
:100C7000A02F0DD1E0480838006840F48020DE49FC
:100C8000083908600846006840F4803008600CE0CD
:100C9000D9480838006820F48030D74908390860FE
:100CA0000846006820F48020086000BF606890B1AA
:100CB000FFF728FD054606E0FFF724FD401B6428EA
:100CC00001D903209EE7CC4808380068C0F34040B3
:100CD0000028F1D011E0FFF715FD054606E0FFF70B
:100CE00011FD401B642801D903208BE7C248083856
:100CF0000068C0F340400028F1D1207800F00200E5
:100D000002285FD1BC48006800F00C0058B1BA4816
:100D1000006800F00C0008281CD1B748001F0068CC
:100D200000F48000B0B9B44808380068C0F340004F
:100D300020B1E068012801D0012063E7AE480838FF
:100D4000006820F0F800216940EAC100AA4908398A
:100D5000086037E0E06800B30120A8490860FFF7A9
:100D6000D1FC054606E0FFF7CDFC401B022801D967
:100D7000032047E7A04808380068C0F34000002877
:100D8000F1D09D480838006820F0F800216940EA59
:100D9000C10099490839086014E0002097490860AB
:100DA000FFF7B0FC054606E0FFF7ACFC401B02284D
:100DB00001D9032026E7904808380068C0F34000B6
:100DC0000028F1D1207800F0080008282CD16069B3
:100DD000A8B101208A490860FFF794FC054606E0A7
:100DE000FFF790FC401B022801D903200AE7824844
:100DF0006C300068C0F340000028F1D014E00020FF
:100E00007F490860FFF77EFC054606E0FFF77AFCA5
:100E1000401B022801D90320F4E677486C300068B3
:100E2000C0F340000028F1D1207800F0040004282D
:100E300070D1002770483830006800F0805090B9B9
:100E400000BF002000906C483830006840F08050AF
:100E50006949383108600846006800F08050009009
:100E600000BF00BF01276748006800F48070B0B978
:100E70006448006840F4807062490860FFF742FCF3
:100E8000054606E0FFF73EFC401B022801D903207F
:100E9000B8E65C48006800F480700028F2D000BF1B
:100EA000A068012808D154486830006840F001006B
:100EB0005149683108601DE0A06805280DD14E48F1
:100EC0006830006840F004004B496831086008460B
:100ED000006840F0010008600CE047486830006896
:100EE00020F001004449683108600846006820F09D
:100EF0000400086000BFA068A8B1FFF703FC054626
:100F000009E0FFF7FFFB401B41F28831884202D91C
:100F1000032077E626E0384868300068C0F34000D8
:100F20000028EED013E0FFF7EDFB054608E0FFF7E1
:100F3000E9FB401B41F28831884201D9032061E678
:100F40002D4868300068C0F340000028EFD1012F21
:100F500007D129483830006820F0805026493831C0
:100F6000086000BFA069002845D02348006800F051
:100F70000C0008285DD0A069022845D100201F4937
:100F80000866FFF7BFFB054606E0FFF7BBFB401B0B
:100F9000022801D9032035E6174808380068C0F355
:100FA00040600028F1D1D4E907010843616A40EAB2
:100FB00081110122A06AC2EB500041EA00412C20BD
:100FC000005D41EA00600C49091F086001200B49DF
:100FD0000866FFF797FB054606E0FFF793FB401B0B
:100FE000022801D903200DE6034808380068C0F341
:100FF00040600028F1D049E0083802400000474234
:10100000800E474200700040002021490866FFF72B
:1010100079FB054606E0FFF775FB401B022801D966
:101020000320EFE51B480068C0F340600028F2D1C0
:101030002CE0A069012800D1E4E51648001D0668EF
:10104000A069012820D006F48001E06981421BD10B
:1010500006F03F01206A814216D147F6C070304049
:10106000616AB0EB811F0FD106F440310122A06A02
:10107000C2EB5000B1EB004F06D106F070612C209E
:10108000005DB1EB006F01D00120BBE50020B9E5A8
:1010900000004742003802407047704710B50446D0
:1010A0000CB9012010BD94F83D0028B9002084F847
:1010B0003C00204600F025F8022084F83D00211D68
:1010C000206800F0B1FF012084F8460000BF84F8DA
:1010D0003E0001213F20015540200155412001558E
:1010E00000BF00BF012084F8420043200155442086
:1010F00001554520015500BF012084F83D00002026
:10110000D0E77047014691F83D00012801D0012049
:101110007047022081F83D000868C06840F0010077
:101120000B68D8601A4B086898421BD00868B0F169
:10113000804F17D0174B0868984213D0164B086899
:1011400098420FD0154B086898420BD0144B086892
:10115000984207D0134B0868984203D0124B086896
:1011600098420CD10868806800F00702062A0CD06B
:101170000868006840F001000B68186005E0086826
:10118000006840F001000B6818600020C0E7000014
:10119000000001400004004000080040000C004036
:1011A000000401400040014000180040704770B545
:1011B00004462068C5682068066906F00200022817
:1011C00019D105F00200022815D1401F21680861DD
:1011D000012020772068806900F0030018B12046C4
:1011E000FFF7E4FF05E0204600F097F8204600F006
:1011F00095F80020207706F00400042819D105F0A6
:101200000400042815D1C04321680861022020771A
:101210002068806900F4407018B12046FFF7C6FFCF
:1012200005E0204600F079F8204600F077F800202D
:10123000207706F00800082819D105F008000828D2
:1012400015D1C04321680861042020772068C06957
:1012500000F0030018B12046FFF7A8FF05E0204684
:1012600000F05BF8204600F059F80020207706F0E7
:101270001000102819D105F01000102815D1C04316
:1012800021680861082020772068C06900F4407058
:1012900018B12046FFF78AFF05E0204600F03DF830
:1012A000204600F03BF80020207706F0010048B10E
:1012B00005F0010030B16FF001002168086120469F
:1012C00000F02EF806F08000802809D105F080009B
:1012D000802805D1C043216808612046FFF7DCFE65
:1012E00006F04000402809D105F04000402805D113
:1012F000C04321680861204600F01EF806F0200077
:10130000202809D105F02000202805D1C0432168FC
:1013100008612046FFF7C1FE70BD704770470000AE
:1013200010B5044603492068884201D1FFF7F0F95F
:1013300010BD00000010004070477047704700006B
:101340002DE9F84F0446206805682068C6682068C3
:1013500047694FF00009CA4605F00F09B9F1000FBF
:101360000AD105F0200038B106F0200020B1204657
:1013700000F019FFBDE8F88FB9F1000F7CD007F03D
:10138000010018B906F49070002875D005F001002E
:1013900030B106F4807018B1606C40F001006064F8
:1013A00005F0040030B107F0010018B1606C40F0A6
:1013B0000200606405F0020030B107F0010018B1CE
:1013C000606C40F00400606405F0080048B106F06D
:1013D000200010B907F0010018B1606C40F008005F
:1013E0006064606C002846D005F0200028B106F04B
:1013F000200010B1204600F0D6FE20684069C0F3FE
:10140000801A606C00F0080010B9BAF1000F2DD0FE
:10141000204600F082FE2068406900F0400040282D
:1014200020D100BF00BF2168143151E8001F21F016
:1014300040002168143141E80002002AF3D100BFC6
:10144000E06B50B17F48E16B0865E06BFFF745F852
:1014500088B1E06B016D88470DE02046FFF76EFF15
:1014600009E009E02046FFF769FF04E02046FFF7A6
:1014700065FF002060647DE7206B012878D105F0CE
:101480001000002874D006F010000028FAD000BF29
:10149000002000902068006800902068406800905C
:1014A00000BF00BF2068406900F04000402870D1B4
:1014B000E06B006840681FFA80F8B8F1000F58D060
:1014C000A08D404555DDA4F82E80E06BC069B0F5D5
:1014D000807F43D000BF00BF21680C3151E8001F5E
:1014E00021F4807021680C3141E80002002AF3D118
:1014F00000BF00BF00BF2168143151E8001F21F078
:1015000001002168143141E80002002AF3D100BF34
:1015100000BF00BF2168143151E8001F21F04000D6
:101520002168143141E80002002AF3D100BF2020D5
:1015300084F842000020206300BF00BF21680C3106
:1015400051E8001F21F0100021680C3141E8000231
:10155000002AF3D100BFE06BFEF769FF0220606351
:10156000A08DE28D801A81B22046FFF7E6FE0EE0E4
:1015700052E0A08D40450AD1E06BC069B0F5807F94
:1015800005D102206063A18D2046FFF7D6FEF1E66B
:10159000FFE7A08DE18D401A1FFA80F8E08DD0B3EF
:1015A000B8F1000F37D000BF00BF21680C3151E8FF
:1015B000001F21F4907021680C3141E80002002ADC
:1015C000F3D100BF00BF00BF2168143151E8001FF4
:1015D00021F001002168143141E80002002AF3D112
:1015E00000BF202084F842000020206300BF00BF1D
:1015F00021680C3151E8001F21F0100021680C31E6
:1016000041E80002002AF3D100BF02206063414696
:101610002046FFF792FEADE605F0800030B106F0FF
:10162000800018B1204600F073FFA3E605F04000EB
:1016300030B106F0400018B1204600F0A4FD99E654
:1016400000BF97E60921000810B504460CB9012037
:1016500010BDA06900B100E000BF94F8410028B9B6
:10166000002084F84000204600F02AF8242084F866
:1016700041002068C06820F400502168C8602046FE
:1016800000F010FE2068006920F490402168086195
:101690002068406920F02A00216848612068C068FD
:1016A00040F400502168C86000206064202084F865
:1016B000410084F842000020606300BFC8E70000DA
:1016C00010B586B00446142101A8FEF725FE5B493B
:1016D0002068884239D100BF002000905848006837
:1016E00040F01000564908600846006800F01000FD
:1016F000009000BF00BF00BF002000905048143889
:10170000006840F001004E4914390860084600683E
:1017100000F00100009000BF00BF4FF4C0600190D6
:1017200002200290002003900320049007200590DF
:1017300001A94448FEF7E6FE002205212520FFF717
:10174000A9F82520FFF792F875E03F492068884204
:101750003AD100BF002000903948001F006840F4D3
:1017600000303749091F08600846006800F400305F
:10177000009000BF00BF00BF002000903048143828
:10178000006840F008002E491439086008460068D7
:1017900000F00800009000BF00BF60200190022010
:1017A000029000200390032004900720059001A9D7
:1017B0002648FEF7A7FE002205212620FFF76AF83B
:1017C0002620FFF753F836E021492068884232D1BD
:1017D00000BF002000901A48001F006840F48020DD
:1017E0001749091F08600846006800F4802000902F
:1017F00000BF00BF00BF00200090114814380068EF
:1018000040F002000E49143908600846006800F0F4
:101810000200009000BF00BF4FF440600190022022
:10182000029000200390032004900720059001A956
:101830000848FEF767FE06B010BD0000001001402A
:10184000443802400000024000440040000C0240C6
:10185000004800400004024070B504460D4616469C
:1018600094F8420020280BD105B10EB9012070BDBB
:101870000020206332462946204600F029FEF6E784
:101880000220F4E710B504460B492068884209D1CC
:101890000A48007801F01CFE012208490848FFF7B9
:1018A000DBFF08E007492068884204D1012206498D
:1018B0000648FFF7D1FF10BD00440040280000207B
:1018C0004C040020001001402900002004040020E6
:1018D00010B5034693F84100202813D101B10AB98D
:1018E000012010BD19629A84DA84002058642120F6
:1018F00083F841001868C06840F080001C68E06010
:101900000020EEE70220ECE7034A0168914202D191
:101910000021024A1170704700440040EC00002092
:1019200000BFFEE700B5B3B0314B0FCBCDE931239B
:10193000CDE92F0100212FA800F0B2FF2D4908604A
:101940002B4B10330FCBCDE92D23CDE92B010021FB
:101950002BA800F0A5FF284908601C22244920314B
:1019600024A8FEF7C0FC002124A800F0ADFF234905
:1019700008601C221E493C311DA8FEF7B4FC002162
:101980001DA800F0A1FF1E4908601C22184958310B
:1019900016A8FEF7A8FC002116A800F095FF19492B
:1019A00008601C22124974310FA8FEF79CFC00212C
:1019B0000FA800F089FF144908601C220C499031DF
:1019C00008A8FEF790FC002108A800F07DFF0F4951
:1019D00008601C220649AC3101A8FEF784FC0021F6
:1019E00001A800F071FF0A49086033B000BD000093
:1019F000F04B0008200000202400002008000020F8
:101A00000C0000201000002014000020180000200E
:101A10001C00002000B587B0142102A8FEF77CFC52
:101A200000BF002001902D48006840F020002B49A5
:101A300008600846006800F02000019000BF00BF69
:101A400000BF002001900846006840F08000086058
:101A50000846006800F08000019000BF00BF00BF92
:101A6000002001900846006840F001000860084628
:101A7000006800F00100019000BF00BF00BF00201F
:101A800001900846006840F00200086008460068BF
:101A900000F00200019000BF00BF00BF00200190D5
:101AA0000846006840F0080008600846006800F03A
:101AB0000800019000BF00BF002213210848FEF774
:101AC0001BFE13200290012003900020049005903B
:101AD00002A90348FEF716FD07B000BD30380240EA
:101AE0000014024010B50B480B4908604FF4E13078
:101AF0004860002108488160C16001610C2141619A
:101B000000218161C161FFF79FFD08B1FEF78CFCE8
:101B100010BD0000001001400404002010B50B4867
:101B20000B4908604FF4E1304860002108488160AB
:101B3000C16001610C21416100218161C161FFF738
:101B400083FD08B1FEF770FC10BD000000440040AA
:101B50004C04002010B50B480B4908604FF4E130ED
:101B60004860002108488160C16001610C21416129
:101B700000218161C161FFF767FD08B1FEF754FCE8
:101B800010BD0000004800409404002000BFFEE7A4
:101B900000BFFEE700BF012210210848FEF7ACFDA0
:101BA0004FF4FA7000F06BFE002210210348FEF79C
:101BB000A3FD4FF4FA7000F062FEECE7001402405F
:101BC00003220021012002F01FF91B49086008468A
:101BD000006850B900BF502080F31188BFF34F8FC9
:101BE000BFF36F8F00BF00BFFEE7002112480068FF
:101BF00002F096FB11A000F0CDFC15A001F076FDDF
:101C000000BF4FF0FF310C48006802F089FB01284B
:101C1000F7D111A001F06AFD16A001F067FD1CA02C
:101C200001F064FD21A001F061FD27A000F0B2FCED
:101C3000002029490870E4E70000002048656C6C2A
:101C40006F204672656552544F530D0A0000000024
:101C500072657374FFFFFF006D61696E2E74322E22
:101C60007478743D22636F6E6E65637422FFFFFFAC
:101C700000000000726F61642E74322E7478743D1F
:101C800022636F6E6E65637422FFFFFF0000000029
:101C90007265636F72642E74322E7478743D2263A1
:101CA0006F6E6E65637422FFFFFF000073657474CE
:101CB000696E672E74322E7478743D22636F6E6E77
:101CC00065637422FFFFFF004765742053656D61F3
:101CD00070686F72650D0A000400002000BF0A20C2
:101CE00000F0CDFDFBE700009EB000BF4FF0FF32DB
:101CF00004A90F48006802F05FFA0128F6D1C82055
:101D000000F0BDFD002046214FF4F072CDE9001235
:101D1000034608A2CDE90210642105A800F04AFCA0
:101D200005A801F0E3FC09A000F034FCDEE70000A8
:101D3000200000206C696E652025642C25642C250C
:101D4000642C25642C2564FFFFFF00005265636F3F
:101D5000726420436F6D6D616E642053656E740D07
:101D60000A000000002400BF2046611CCCB20528F8
:101D700007DD2248007820B9002401201F4908709F
:101D80000CE02046611CCCB2052807DD1B4800781A
:101D9000012803D100201949087000241748007851
:101DA00001281CD1012211461548FEF7A5FC01228D
:101DB00002211348FEF7A0FC4FF4FA7000F05FFD1B
:101DC000002201210E48FEF797FC002202210C4858
:101DD000FEF792FC4FF4FA7000F051FDC4E70122C7
:101DE00011460748FEF788FC012202210448FEF74D
:101DF00083FC4FF47A7000F042FDB5E70500002047
:101E000000140240ACB000BF4FF0FF322BA93A489B
:101E1000006802F0D1F90128F6D14FF4FA7000F011
:101E20002EFD36A001F062FCBDF8AC0031282DD1AA
:101E30004A2237496846FEF756FA5A223449103981
:101E400014A8FEF750FA14A80FC801F00BFB4A22A1
:101E50002F496846FEF747FA5A222D49103914A82F
:101E6000FEF741FA14A80FC801F02AF94A222849BE
:101E70006846FEF738FA5A222549103914A8FEF7A9
:101E800032FA14A80FC801F043FA30E0BDF8AC00F4
:101E900032282CD14A221F496846FEF724FA5A22DA
:101EA0001C49103914A8FEF71EFA14A80FC801F037
:101EB000D9FA4A2217496846FEF715FA5A221549F7
:101EC000103914A8FEF70FFA14A80FC801F0F8F89B
:101ED0004A2210496846FEF706FA5A220D4910397F
:101EE00014A8FEF700FA14A80FC801F011FA4FF475
:101EF0007A7000F0C4FC87E724000020636C652042
:101F000073302E69642C323535FFFFFF000000006E
:101F1000A20000204800002010B500BF502080F330
:101F20001188BFF34F8FBFF36F8F00BF02F0BAFB72
:101F300018B14FF080500449086000BF002080F3C2
:101F4000118800BF10BD000004ED00E000B593B0A3
:101F5000302107A8FEF7E0F9142102A8FEF7DCF90A
:101F600000BF002001902548006840F080502349C0
:101F700008600846006800F08050019000BF00BF74
:101F800000BF002001901E48006840F480401C49BA
:101F900008600846006800F48040019000BF00BF60
:101FA0000220079001200A9010200B9002200D9033
:101FB00000210E9108210F91A82110910221119169
:101FC0000421129107A8FEF719FE08B1FEF72CFABA
:101FD0000F20029002200390002004904FF4A050A4
:101FE00005904FF480500690052102A8FEF7A4FC4E
:101FF00008B1FEF719FA13B000BD000040380240E6
:10200000007000400348006840F470000149086017
:102010007047000088ED00E010B50248FFF7C7F8F0
:1020200010BD0000BC03002010B502682B4B984285
:102030000ED0B0F1804F0BD0294B984208D0294BDD
:10204000984205D0284B984202D0284B984203D1A1
:1020500022F070024B681A43204B984220D0B0F116
:10206000804F1DD01E4B98421AD01E4B984217D05D
:102070001D4B984214D01D4B984211D01C4B9842D6
:102080000ED01C4B98420BD01B4B984208D01B4BD8
:10209000984205D01A4B984202D01A4B984203D16D
:1020A00022F44072CB681A4322F080034C6943EA61
:1020B00004028B68C3620B688362084B984202D0AB
:1020C0000A4B984201D10B690363036843F0040390
:1020D000036001234361026010BD00000000014065
:1020E0000004004000080040000C004000040140D3
:1020F00000400140004401400048014000180040F9
:10210000001C00400020004070B50446A56B002074
:10211000E8852846FFF712F970BD00BF00BF0268CE
:102120000C3252E8002F22F4907102680C3242E81F
:102130000013002BF3D100BF00BF00BF02681432B0
:1021400052E8002F22F001010268143242E8001325
:10215000002BF3D100BF016B01290ED100BF00BFDE
:1021600002680C3252E8002F22F0100102680C3293
:1021700042E80013002BF3D100BF202180F8421069
:1021800000210163704710B504462068C06820F044
:1021900040002168C860202084F841002046FFF7F5
:1021A000B3FB002010BDF8B504460025002694F8C6
:1021B0004200222873D1A068B0F5805F0BD120695E
:1021C00048B9A66A20684068C0F308003080A06A59
:1021D000801CA06214E0A56AA068B0F5805F03D0FF
:1021E000A06828B9206918B920684068287004E000
:1021F0002068406800F07F002870A06A401CA06240
:10220000E08D401E80B2E085002846D12068C0687D
:1022100020F020002168C8602068C06820F4807029
:102220002168C8602068406920F001002168486189
:10223000202084F8420000206063206B012826D112
:102240000020206300BF00BF21680C3151E8001F4F
:1022500021F0100021680C3141E80002002AF3D17E
:1022600000BF2068006800F0100010280AD100BFED
:10227000002000902068006800902068406800906E
:1022800000BF00BFA18D2046FFF757F802E02046AF
:10229000FFF7F8FA0020F8BD01E00020FBE702207C
:1022A000F9E700002DE9F84F04462068006920F4A2
:1022B0004050E1680843216808612169A06808432B
:1022C00061690843E169084300902068C06849F2E9
:1022D0000C618843009908432168C8602068406900
:1022E00020F44070A169084321684861764920685C
:1022F000884203D075492068884203D1FEF716FC56
:10230000814602E0FEF702FC8146E069B0F5004F2D
:102310006CD102206168A0FB015003461920A9FB83
:10232000007001462A463846FDF7ACFF6421B0FB39
:10233000F1F04FEA001A02206168A0FB01510B4640
:102340001920A9FB00712A463846FDF79BFF8346FA
:1023500002206168A0FB015003461920A9FB00710F
:102360002A463846FDF78EFF6421B0FBF1F000EB02
:10237000C00101EB0010ABEB8000322101EBC0008B
:102380006421B0FBF1F000F0F8000AEB400A0220F3
:102390006168A0FB015003461920A9FB00700146AB
:1023A0002A463846FDF76EFF834602206168A0FB8F
:1023B000015003461920A9FB00712A463846FDF753
:1023C00061FF6421B0FBF1F000EBC00101EB0010F4
:1023D000ABEB8000322101EBC0006421B0FBF1F0D7
:1023E00000F007005044216888606AE004206168BA
:1023F000A0FB015003461920A9FB007001462A46A4
:102400003846FDF73FFF824604206168A0FB01507B
:1024100003461920A9FB007001462A463846FDF7FD
:1024200031FF6421B0FBF1F000EBC00101EB0010C3
:10243000AAEB8000322101EB00106421B0FBF1F027
:1024400000F0F00A04206168A0FB01700346192027
:10245000A9FB00513A462846FDF714FF6421B0FB62
:10246000F1F00AEB001A04206168A0FB01510B4651
:102470001920A9FB00712A463846FDF703FF834661
:1024800004206168A0FB015003461920A9FB0070DD
:1024900001462A463846FDF7F5FE6421B0FBF1F00F
:1024A00000EBC00101EB0010ABEB8000322101EB2F
:1024B00000106421B0FBF1F000F00F0050442168DF
:1024C0008860BDE8F88F0000001001400014014052
:1024D00010B5034699629A85DA8500205864222057
:1024E00083F84200186928B11868C06840F4807009
:1024F0001C68E0601868406940F001001C68606179
:102500001868C06840F020001C68E060002010BD22
:10251000014691F84100212828D18868B0F5805FF4
:102520000BD1086948B90A6A1088C0F308000B6823
:102530005860086A801C086205E00B6A581C086233
:1025400018780B685860C88C401E80B2C88458B98F
:102550000868C06820F080000B68D8600868C06810
:1025600040F040000B68D860002070470220FCE774
:1025700010B50248FEF7E4FE10BD00000404002080
:1025800010B50248FEF7DCFE10BD00004C04002030
:1025900000BFFEE70FB4054B10B503A9044A02982B
:1025A00000F04EF810BC5DF814FB00001128000884
:1025B000640100200FB47CB50C0009AD01D0611E90
:1025C00000E00021CDE90001064B6A462946089843
:1025D00000F036F8002C02D0009A002111707CBC6B
:1025E0005DF814FBF927000802480068C0F30220D8
:1025F000704700000CED00E010B5002804DB0A076E
:10260000130E054A135406E00A07140E034A00F09D
:102610000F031B1FD45410BD00E400E018ED00E0D0
:1026200002E008C8121F08C1002AFAD1704770479B
:10263000002001E001C1121F002AFBD170470000F9
:102640002DE9FF4F8BB09A460F460546002606E05F
:1026500025280BD052460D9990476D1C761C287882
:102660000028F5D10FB03046BDE8F08F0024A04619
:102670000122604900E0044315F8013F203B02FAC3
:1026800003F00842F7D128782E2817D115F8010F4A
:1026900044F004042A280ED06FF02F022878A0F10D
:1026A000300109290AD808EB880102EB410100EB4F
:1026B00001086D1CF2E757F8048B6D1C2878692817
:1026C0003ED006DC0028CDD063280BD0642804D18E
:1026D00036E0732810D075284BD052460D9990479C
:1026E000761C85E017F8040B8DF8000000208DF8AB
:1026F0000100E946012003E057F8049B4FF0FF304A
:1027000061074FF0000401D40AE0641C44450DDA6F
:102710008442FADB19F804100029F6D106E0641CA3
:102720008442FCDB19F804100029F8D1264404E0A7
:1027300019F8010B52460D999047641EF8D257E0E4
:1027400001CF4FF00A0B002802DA40422D2102E0AF
:10275000210504D52B218DF82410012103E0E10788
:1027600005D02021F7E70DF1200908910CE00021A8
:10277000F9E701CF4FF00A0BF9E75946FDF7DEFD07
:1027800001F1300209F8012D0028F6D1ADEB090066
:1027900000F1200B600701D44FF00108D84502DD9D
:1027A000A8EB0B0000E000208046002406E009A80A
:1027B0005246005D0D999047641C761C089884422F
:1027C000F5DB04E0302052460D999047761CB8F1B5
:1027D0000001A8F10108F5DC05E019F8010B5246EB
:1027E0000D999047761CBBF10001ABF1010BF4DCB5
:1027F0006D1C34E7092801004A68002A06D00A68DF
:10280000531C0B6010704868401E48607047000001
:1028100000BF054A126802F04002002AF9D0C2B295
:10282000014B5A60704700000010014008B5FDF7E9
:102830007BFFFFF78BFBFFF7EDF8FFF753F9FFF78F
:102840006DF9FFF787F9012269460748FFF704F899
:10285000012269460548FEF7FFFFFFF763F800F025
:102860001AF800BFFEE700004C040020040400201A
:1028700001460020842901D0CA1C1044704770B55D
:10288000044625460DB1294600E00121084601F025
:1028900093F8002070BD10B501F05CF9002010BD68
:1028A000F8B504460D46A06840B1E06830B100209C
:1028B000009094E80F0001F0D4FAF8BD0022D4E9AA
:1028C000000101F0A1FAF8E77FB504460D46606902
:1028D00098B1A06988B1B4F90800FFF7C9FF0646AE
:1028E000D4E90510CDE9006102902B462269D4E9B4
:1028F000001001F069FE039013E0B4F90800FFF73F
:10290000B7FF064603A8CDE90060238A9AB22B469A
:10291000D4E9001001F026FE012802D0002004B006
:1029200070BD0398FBE700002DE9F04105460E4617
:102930001C4807681C480068001D00F0FDFE50B9E7
:102940001948006890F82C10012088401749096840
:10295000814316480160681C38B936B112480168D5
:10296000091D134800F032FF1AE07C190E48006878
:102970004460BC4207D20C480168091D0D4800683C
:1029800000F00AFF0CE008480168091D0A480068C9
:1029900000F002FF09480068844201D20748046041
:1029A000BDE8F0813C01002028010020400100200A
:1029B0001C420020300100202C0100205801002082
:1029C00010B5044600F00EFF23480068401C224961
:1029D00008602248006840B9204804600846006842
:1029E00001280DD100F0B0F90AE01D48006838B99F
:1029F0001A480068C06AE16A884201D81748046032
:102A000018480068401C1749086094F82C100120F1
:102A1000884015490968084313490860E16A01EBD9
:102A20008101124A02EB8100211D00F0CFFE00F06F
:102A300003FF0B48006868B108480068C06AE16A93
:102A4000884207D24FF0805009490860BFF34F8F8A
:102A5000BFF36F8F10BD0000380100202801002057
:102A6000440100205401002040010020404100208A
:102A700004ED00E010B516E000F0B4FE0C48C068AC
:102A8000C468201D00F058FE0A480068401E09492D
:102A9000086009480068401E0749086000F0CCFE45
:102AA000204600F05FF8044800680028E4D110BD1B
:102AB00008420020380100203401002070B504468F
:102AC0000D46206C70B1216CE0680144E160D4E9EE
:102AD0000210884201D32168E1602846226CE16837
:102AE000FDF701FC70BD2DE9F04104460F46154687
:102AF0004FF00008A66B206C48B9206800282CD144
:102B0000A06801F073FE80460020A06025E07DB93A
:102B10003946226C6068FDF7E6FB216C606808446A
:102B20006060D4E90101884217D32068606014E036
:102B30003946226CE068FDF7D6FB216CE068411A4B
:102B4000E1602168E068884203D2216CA068411AE4
:102B5000E160022D01D106B1761E701CA0634046D3
:102B6000BDE8F08110B5044694F8510030B9206BEF
:102B700000F080FE204600F07DFE1AE094F851003F
:102B8000012803D1204600F075FE12E094F85100B0
:102B9000022801D1012000E0002050B900BF5020E0
:102BA00080F31188BFF34F8FBFF36F8F00BF00BF5B
:102BB000FEE710BD01464A6A22B10A6B1268C2F1F3
:102BC000070000E00020704730B54FF470531748FD
:102BD00000F007042CB1C01D20F00700134C041BAB
:102BE0001B1B0246124C22600024114D6C60D01851
:102BF000083820F007000F4C206000240D4D2D6890
:102C00006C600C4D2D682C601146441A4C60094CC8
:102C100024680C60084D4C682C60084D4C682C6092
:102C20004FF00044064D2C6030BD000040050020F0
:102C3000FC000020040100200C01002008010020FD
:102C40001801002000BFFFF715FF064800680128A3
:102C5000F9D94FF0805004490860BFF34F8FBFF39C
:102C60006F8FF0E74041002004ED00E02DE9F041D6
:102C700006460D4617469846069C0DB9246000E0AE
:102C80002760E66325640121204601F05BF9BDE879
:102C9000F0812DE9FF5F81460E469246DDE90E7B0D
:102CA000109CAAF10100216B01EB800828F00708B5
:102CB00008F0070008B9012000E0002050B900BF6B
:102CC000502080F31188BFF34F8FBFF36F8F00BF89
:102CD00000BFFEE786B1002507E0715D04F1340016
:102CE0004155705D00B902E06D1C102DF5D300BF99
:102CF00000214320015502E0002084F83400072F12
:102D000000D30627E76267640020A064201D00F05E
:102D100040FD04F1180000F03CFD2461C7F10700FC
:102D2000A06164620020E06484F850004946404697
:102D3000039A00F0AFF92060BBF1000F01D0CBF88F
:102D40000040BDE8FF9F000010B5002407E004EB41
:102D500084010F4A02EB810000F00EFD641C072C79
:102D6000F5D30C4800F008FD0B4800F005FD0B48BA
:102D700000F002FD0A4800F0FFFC0A4800F0FCFCED
:102D800004480949086004480849086010BD00006B
:102D900040410020CC410020E0410020F4410020CF
:102DA000084200201C4200202C010020300100209D
:102DB00010B50146164800E0006803688B42FBD35B
:102DC0000246436813448B4204D143684C68234451
:102DD000436001460A464B6813440468A34211D17C
:102DE0000C4C03682468A34208D04B6804686468EC
:102DF00023444B6003681B680B6005E0054B1B68B0
:102E00000B6001E003680B60884200D0016010BDD8
:102E1000FC0000200401002070B5054600F0E2FC33
:102E2000A86B08B9012400E0002400F005FD20464D
:102E300070BD00000A490968096809B9012100E06C
:102E4000002121B14FF0FF31064A116006E004492C
:102E50000968C968C868034A416811607047000082
:102E60002C010020580100200E480068401C08B9C1
:102E7000012000E0002050B900BF502080F31188ED
:102E8000BFF34F8FBFF36F8F00BF00BFFEE700BFE0
:102E9000502080F31188BFF34F8FBFF36F8F00BFB7
:102EA00000BFFEE71C01002070B5044600F09AFC4C
:102EB00094F9455010E0606A08B9012000E0002054
:102EC00038B904F1240001F051FD18B100F0AEFD55
:102ED00000E003E0681E45B2002DECDC00BFFF20DF
:102EE00084F8450000F0A8FC00F07CFC94F9445004
:102EF00010E0206908B9012000E0002048B904F181
:102F0000100001F033FD08B100F090FD681E45B2DD
:102F100000E001E0002DECDC00BFFF2084F844005D
:102F200000F08AFC70BD00002DE9F04104464FF02E
:102F3000000800F067FE4948006808B9FFF744FE42
:102F4000474800682040002870D1D4B1083404F00C
:102F50000700B0B104F00700C0F10800044404F019
:102F6000070008B9012000E0002050B900BF502040
:102F700080F31188BFF34F8FBFF36F8F00BF00BF87
:102F8000FEE7002C52D03748006884424ED8364EB7
:102F90003046056801E02E462D686868A04202D2DE
:102FA00028680028F7D12D48006885423ED0306857
:102FB00000F10808286830606868001B102819D9DB
:102FC0002F1907F0070008B9012000E0002050B9D0
:102FD00000BF502080F31188BFF34F8FBFF36F8F76
:102FE00000BF00BFFEE76868001B78606C60384671
:102FF000FFF7DEFE1B4968680968081A194908606E
:103000000846006819490968884203D215480068D3
:10301000164908601249686809680843686000201A
:10302000286013480068401C1149086001F0EAFC60
:1030300008F0070008B9012000E0002050B900BFE7
:10304000502080F31188BFF34F8FBFF36F8F00BF05
:1030500000BFFEE74046BDE8F0810000040100200B
:103060001801002008010020FC0000200C010020B5
:10307000100100200648006830B10549096801F1D7
:103080004800896C491C01600148006870470000D5
:1030900028010020001F4FF080730360001F21F003
:1030A00001030360001F054B036014380260001F1A
:1030B0006FF002030360203870470000692E00089B
:1030C0000FB42DE9F047FEB04FF4E2716846FDF70A
:1030D00023F9BDF8660201F017FD8046BDF86802CD
:1030E00001F012FD8146BDF86A0201F051FD04466F
:1030F000BDF86C0201F04CFD0646BDF86E0201F011
:1031000047FD0546BDF8700201F042FD0746A01BD1
:10311000052190FBF1F0201AC1B2A8F101000DF8D1
:103120000010A01B00EB4000052190FBF1F0201ADD
:10313000C1B2A8F102000DF80010A01BC11700EBEE
:103140009171A4EBA101CAB2A8F103010DF801200D
:10315000A01B032190FBF1F03044C1B2A8F10400A0
:103160000DF80010A01B00EBD07106EB6101CAB294
:10317000A8F105010DF801200221A8F106000DF8C3
:103180000010E0B20DF80800A01B062190FBF1F042
:10319000201AC1B208F101000DF80010A01B400078
:1031A000032190FBF1F0201AC1B208F102000DF8E2
:1031B0000010A01B00EBD07106EB6101CAB208F150
:1031C00003010DF80120A01BC11700EB917106EB64
:1031D000A101CAB208F104010DF80120F1B208F111
:1031E00005000DF800100121401C0DF80010E81B2F
:1031F000072190FBF1F0281AC1B2A9F101000DF8E6
:103200000010E81B4000052190FBF1F0281AC1B224
:10321000A9F102000DF80010E81B4000032190FB0B
:10322000F1F0281AC1B2A9F103000DF80010E81B53
:103230004000032190FBF1F03844C1B2A9F1040031
:103240000DF80010F9B2401E0DF800100321401EC9
:103250000DF80010A81EC0B20DF80900E81BC11738
:1032600000EB9171A5EBA101CAB209F101010DF8C2
:103270000120E81B00EBD071A5EB6101CAB209F196
:1032800002010DF80120E81B00EBD07107EB610192
:10329000CAB209F103010DF80120E81B052190FBDA
:1032A000F1F03844C1B209F104000DF80010E81B38
:1032B000092190FBF1F03844C1B209F105000DF885
:1032C00000100121401C0DF800104FF0000A0BE027
:1032D0001DF80A3008A2322171A8FFF76BF971A816
:1032E00000F004FA0AF1010ABAF5E17FF0DB7EB0E2
:1032F000BDE8F0075DF814FB616464206D61696EE0
:103300002E73302E69642C302C2564FFFFFF0000E3
:103310000FB4F0B597B0BDF8BE00802806DABDF84E
:10332000BE0001F0F1FB1E3887B205E0BDF8BE001B
:1033300001F0EAFB283887B2BDF8C000802806DA21
:10334000BDF8C00001F0E0FB0A3084B204E0BDF833
:10335000C00001F0D9FB0446BDF8C200782804DDA6
:10336000BDF8C200193085B20EE0BDF8C2003228A7
:1033700005DDBDF8C200C0F1F50085B204E0BDF87E
:10338000C200C0F1EB0085B2BDF8C600782804DDAC
:10339000BDF8C600193086B20EE0BDF8C60032286E
:1033A00005DDBDF8C600C0F1F50086B204E0BDF849
:1033B000C600C0F1D70086B2FA20FFF760FA0DF11F
:1033C0008900032101220692CDE9072109900020FE
:1033D00002223223CDE903200293059064203B466C
:1033E00015A23221CDE900500AA8FFF7E3F80AA898
:1033F00000F07CF9FA20FFF742FA0DF1A200032158
:1034000001220692CDE907210990002002223223F1
:10341000CDE90320029305906420234606A23221C1
:10342000CDE900600AA8FFF7C5F80AA800F05EF928
:1034300017B0F0BC5DF814FB787374722025642C0F
:1034400025642C25642C25642C25642C25642C25CE
:10345000642C25642C25642C25642C22257322FFE2
:10346000FFFF00000FB400B59DB0FA20FFF707FA88
:10347000BDF8CE00BDF8C810BDF8CA20BDF8C630F2
:10348000CDE90032CDE902101EAB05A2642104A8EB
:10349000FFF790F804A800F029F91DB05DF814FBBF
:1034A0006D61696E2E74312E7478743D22257320FF
:1034B00043683A256420436E74733A256420436858
:1034C0003A256420436E74733A256422FFFFFF009F
:1034D0001CB5044600200190722C08D17B4800786E
:1034E00028B97A480078401C7849087052E0652C69
:1034F00009D176480078012805D174480078401C2D
:103500007249087046E0632C09D17048007802289F
:1035100005D16E480078401C6C4908703AE06F2C69
:1035200009D16A480078032805D168480078401C12
:10353000664908702EE0722C09D16448007804288E
:1035400005D162480078401C6049087022E0642C74
:103550001DD15E480078052819D100205B4908700C
:10356000012000905A48006880B1002301AA6946F2
:103570005748006800F032FD019838B14FF0805094
:1035800054490860BFF34F8FBFF36F8F02E00020F4
:103590004E490870632C08D14F48007828B94E482E
:1035A0000078401C4C49087060E06F2C09D14A48F3
:1035B0000078012805D148480078401C4649087029
:1035C00054E06E2C09D144480078022805D14248C5
:1035D0000078401C4049087048E06E2C09D13E48F4
:1035E0000078032805D13C480078401C3A4908700F
:1035F0003CE0652C09D138480078042805D13648CC
:103600000078401C3449087030E0632C09D13248FE
:103610000078052805D130480078401C2E490870F4
:1036200024E0742C1FD12C48007806281BD10020E0
:103630002949087029480068C0B129480078A8B90C
:1036400001A92648006800F047FD019838B14FF005
:10365000805020490860BFF34F8FBFF36F8F012068
:103660001F49087002E000201B490870732C08D124
:103670001C48007828B91B480078401C194908707C
:1036800022E043F2361084421BDC302C19DD154851
:103690000078012815D100941348006880B10023F8
:1036A00001AA69461048006800F098FC019838B1FA
:1036B0004FF0805007490860BFF34F8FBFF36F8F03
:1036C00002E00020074908701CBD00002A0000200D
:1036D0002000002004ED00E02B000020000000206E
:1036E000040000202C0000202400002070B50446B7
:1036F00000BF0D4800780028FBD101200A4908705E
:1037000064210A48FCF708FE234609A26421074801
:10371000FEF750FF0548FCF70AFE85B22A4603492A
:103720000448FEF7D5F870BDEC000020DC04002052
:10373000257300004C04002001460A69D1E90130DC
:103740009860D1E9010358605068884201D18868C7
:103750005060002008611068401E106010687047BB
:10376000034B0360034B0B60802313607047000022
:1037700068010020BC01002000F1080141604FF009
:10378000FF31816000F10801C16001610021016029
:10379000704700210161704710B502460B685C1C40
:1037A0000CB9106907E002F1080000E040684468C5
:1037B00024689C42FAD944684C604C68A1608860D7
:1037C00041600A611468641C146010BD42684A605C
:1037D00093688B60936859609160086103685B1C13
:1037E0000360704700BF502080F31188BFF34F8FF4
:1037F000BFF36F8F00BF0E480068401C0C49086083
:1038000008460068012812D10A480068C0B208B909
:10381000012000E0002050B900BF502080F3118843
:10382000BFF34F8FBFF36F8F00BF00BFFEE770473E
:103830001C01002004ED00E00D48006850B900BFF5
:10384000502080F31188BFF34F8FBFF36F8F00BFFD
:1038500000BFFEE706480068401E054908600846AC
:10386000006820B9002080F3118800BF00BF7047B6
:103870001C01002070B506463546002E44D0083D98
:103880002C46224960680968084008B1012000E020
:10389000002050B900BF502080F31188BFF34F8F34
:1038A000BFF36F8F00BF00BFFEE7206808B901209B
:1038B00000E0002050B900BF502080F31188BFF312
:1038C0004F8FBFF36F8F00BF00BFFEE70F496068E7
:1038D00009680840C0B12068B0B90C49606809683F
:1038E0008843606000F08EF90949606809680844FF
:1038F000074908602046FFF75BFA06480068401C4D
:103900000449086001F07EF870BD00001801002035
:10391000080100201401002000204FF0E021086180
:103920008861064800684FF47A71B0FBF1F0401EE0
:103930004FF0E02148610720086170473000002007
:1039400070B5FCF789FC0446102C16D304F1E02076
:1039500090F8F05315480078854201DB012000E023
:10396000002050B900BF502080F31188BFF34F8F63
:10397000BFF36F8F00BF00BFFEE70D48006800F483
:10398000E0600C490968884201D8012000E000206D
:1039900050B900BF502080F31188BFF34F8FBFF3A1
:1039A0006F8F00BF00BFFEE770BD00002001002048
:1039B0000CED00E02401002070B504460025D4B1D0
:1039C0001248006808B9012000E0002050B900BF8B
:1039D000502080F31188BFF34F8FBFF36F8F00BF6C
:1039E00000BFFEE700F00EF900212046FEF79CFF25
:1039F00001F008F805463DB94FF0805004490860D1
:103A0000BFF34F8FBFF36F8F70BD000060010020C8
:103A100004ED00E003490968016003490968416059
:103A200070470000500100203C01002001200149A6
:103A3000086070474C01002070B504460D4654B92B
:103A400000BF502080F31188BFF34F8FBFF36F8FFB
:103A500000BF00BFFEE70548016818312046FFF7A8
:103A60009BFE01212846FEF75FFF70BD2801002064
:103A70002DE9F04706460F4634464FF00109002E67
:103A800060D0A06C50B900BF502080F31188BFF304
:103A90004F8FBFF36F8F00BF00BFFEE7606CB8426F
:103AA00001D23D4600E0656CE06AA8424AD0A06CB5
:103AB000012847D124480068844201D0012000E059
:103AC000002050B900BF502080F31188BFF34F8F02
:103AD000BFF36F8F00BF00BFFEE7D4F82C80E56214
:103AE000A06900F0004010B9C5F10700A06108EB23
:103AF0008801164A02EB81016069884201D10120E8
:103B000000E00020F0B1201DFFF716FE40B994F848
:103B10002C10012088400E49096881430C4801603F
:103B200094F82C1001208840094909680843084985
:103B30000860E16A01EB8101044A02EB8100211D6A
:103B4000FFF744FEBDE8F087280100204041002037
:103B50004001002010B586B000200590049003AA13
:103B600004A905A8FFF7FCFD0022DDE904101346B7
:103B7000CDE9002102901CA11D48039A00F024FD0C
:103B80001C4908600846006808B1012400E00024D0
:103B9000012C15D100BF502080F31188BFF34F8F47
:103BA000BFF36F8F00BF4FF0FF3013490860012053
:103BB0001249086000201249086000F071F810E016
:103BC000601C08B1012000E0002050B900BF502067
:103BD00080F31188BFF34F8FBFF36F8F00BF00BF1B
:103BE000FEE706B010BD000049444C45000000004F
:103BF000452C00085C0100205801002044010020F1
:103C00003C01002002480068401C014908607047E0
:103C1000600100201D48006818B101201C4908609F
:103C200032E000201A4908601A480068B0FA80F0B3
:103C3000C0F11F0101EB8100174A52F8200008B1C2
:103C4000012000E0002050B900BF502080F311880F
:103C5000BFF34F8FBFF36F8F00BF00BFFEE701EBD5
:103C600081020D4B03EB820042685268426000F112
:103C700008024368934202D1426852684260426837
:103C8000D268064B1A6000BF704700006001002038
:103C90004C0100204001002040410020280100206C
:103CA0001CB5524800685249884201D0012000E00A
:103CB000002050B900BF502080F31188BFF34F8F10
:103CC000BFF36F8F00BF00BFFEE748480068484958
:103CD000491E884201D0012000E0002050B900BFF9
:103CE000502080F31188BFF34F8FBFF36F8F00BF59
:103CF00000BFFEE73F49084600780190FF200A46D2
:103D000010700846007800909DF8000000F0F00068
:103D10009DF80020904201D1012000E0002050B920
:103D200000BF502080F31188BFF34F8FBFF36F8F18
:103D300000BF00BFFEE79DF8000000F050002E4AD3
:103D4000107007202D4A106009E02C480068401EC2
:103D50002A4A10609DF800004006000E00909DF871
:103D6000000000F080008028EFD024480068C0F1F7
:103D70000700042801D1012000E0002050B900BF55
:103D8000502080F31188BFF34F8FBFF36F8F00BFB8
:103D900000BFFEE7194800680002184A106010468C
:103DA000008800F4E0601060124A019810700F481B
:103DB0002030006840F470000C492031086008464B
:103DC000006840F070400860FFF7A6FD00200C4935
:103DD0000860FCF709FA0B48006840F040400949C8
:103DE0000860FCF7EDF900201CBD000000ED00E0CC
:103DF00071C20F4100E400E02001002024010020F6
:103E00001C01002034EF00E02DE9F84305460E4682
:103E100017460DB1012000E0002050B900BF50202E
:103E200080F31188BFF34F8FBFF36F8F00BF00BFC8
:103E3000FEE705FB06F808F14800FFF775F80446B1
:103E400064B1A14609F14809002084F846003B46C8
:103E50004A46314628460094FEF708FF2046BDE852
:103E6000F8832DE9F84380460E4617461D46DDF8D7
:103E70002090B8F1000F01D0012000E0002050B9DF
:103E800000BF502080F31188BFF34F8FBFF36F8FB7
:103E900000BF00BFFEE70DB1012000E0002050B9D7
:103EA00000BF502080F31188BFF34F8FBFF36F8F97
:103EB00000BF00BFFEE707B10EB1012000E0002007
:103EC00050B900BF502080F31188BFF34F8FBFF36C
:103ED0006F8F00BF00BFFEE707B90EB9012000E0F9
:103EE000002050B900BF502080F31188BFF34F8FDE
:103EF000BFF36F8F00BF00BFFEE74820009000981F
:103F0000482801D1012000E0002050B900BF502016
:103F100080F31188BFF34F8FBFF36F8F00BF00BFD7
:103F2000FEE700BF2C464CB1012084F846004B460A
:103F30003A46314640460094FEF798FE2046BDE8DA
:103F4000F883000070B505460E462C4654B900BFF4
:103F5000502080F31188BFF34F8FBFF36F8F00BFE6
:103F600000BFFEE7FFF73EFCD4E90F12206801FB1B
:103F70000200A0600020A06320686060E06B401E2B
:103F8000226C216800FB0211E160FF2084F84400EC
:103F900084F845009EB9206908B9012000E000209E
:103FA000A8B904F1100000F0E1FC80B14FF080509E
:103FB00009490860BFF34F8FBFF36F8F07E004F12B
:103FC0001000FFF7D9FB04F12400FFF7D5FBFFF742
:103FD00033FC012070BD000004ED00E02DE9F84F36
:103FE00007468A4690461E463C4654B900BF5020BC
:103FF00080F31188BFF34F8FBFF36F8F00BF00BFF7
:10400000FEE7BAF1000F01D1206C08B9012000E0F1
:10401000002050B900BF502080F31188BFF34F8FAC
:10402000BFF36F8F00BF00BFFEE7022E02D1E06B2F
:10403000012801D1012000E0002050B900BF50202C
:1040400080F31188BFF34F8FBFF36F8F00BF00BFA6
:10405000FEE7FFF775FC00BF5021EFF3118081F3FD
:104060001188BFF34F8FBFF36F8F00BF0546A06B62
:10407000E16B884201D3022E25D194F945B0A06BA3
:104080000090324651462046FEF72DFD0BF101000F
:1040900088B9606A08B9012000E0002050B904F135
:1040A000240000F063FC28B1B8F1000F02D0012019
:1040B000C8F8000004E00BF1010040B284F84500AC
:1040C0004FF0010901E04FF0000900BF85F31188AE
:1040D00000BF4846BDE8F88F2DE9F04706460F4679
:1040E000344654B900BF502080F31188BFF34F8F7E
:1040F000BFF36F8F00BF00BFFEE7206C08B901203F
:1041000000E0002050B900BF502080F31188BFF3B9
:104110004F8FBFF36F8F00BF00BFFEE7206808B965
:10412000A06808B9012000E0002050B900BF50206D
:1041300080F31188BFF34F8FBFF36F8F00BF00BFB5
:10414000FEE7FFF7FDFB00BF5021EFF3118081F385
:104150001188BFF34F8FBFF36F8F00BF0546D4F8B0
:104160003890E06B48451ED994F945A009F101004B
:10417000A0630AF1010070B9606A08B9012000E08B
:10418000002068B904F1240000F0F0FB40B13FB119
:104190000120386004E00AF1010040B284F84500D3
:1041A0004FF0010801E04FF0000800BF85F31188CF
:1041B00000BF4046BDE8F0872DE9F74183B00546D2
:1041C0000E464FF000082C4654B900BF502080F333
:1041D0001188BFF34F8FBFF36F8F00BF00BFFEE7A3
:1041E0000EB9206C08B9012000E0002050B900BFD2
:1041F000502080F31188BFF34F8FBFF36F8F00BF44
:1042000000BFFEE700F03EFA08B9059808B90120A2
:1042100000E0002050B900BF502080F31188BFF3A8
:104220004F8FBFF36F8F00BF00BFFEE700BFFFF7E8
:10423000D9FAA76BF7B131462046FEF73FFC781E4E
:10424000A063206908B9012000E0002060B904F1F2
:10425000100000F08BFB38B14FF080502F49086000
:10426000BFF34F8FBFF36F8FFFF7E6FA012006B061
:10427000BDE8F081059818B9FFF7DEFA0020F6E7EF
:10428000B8F1000F04D101A8FFF7C4FB4FF00108FB
:10429000FFF7D2FAFFF7B6FCFFF7A4FA94F944004F
:1042A000401C10B9002084F8440094F94500401CDB
:1042B00010B9002084F84500FFF7BEFA05A901A84F
:1042C00000F00AF9F0B92046FEF7A6FDA0B104F10E
:1042D00024000599FFF7B0FB2046FEF7E5FD00F04E
:1042E00091FB0028A3D14FF080500C490860BFF328
:1042F0004F8FBFF36F8F9AE72046FEF7D5FD00F092
:1043000081FB94E72046FEF7CFFD00F07BFB2046C3
:10431000FEF782FD00288AD00020A8E704ED00E027
:104320002DE9F34182B005464FF000082C460026E7
:1043300054B900BF502080F31188BFF34F8FBFF3F3
:104340006F8F00BF00BFFEE7206C08B9012000E0BE
:10435000002050B900BF502080F31188BFF34F8F69
:10436000BFF36F8F00BF00BFFEE700F08BF908B905
:10437000039808B9012000E0002050B900BF502088
:1043800080F31188BFF34F8FBFF36F8F00BF00BF63
:10439000FEE700BFFFF726FAA76BFFB1781EA06308
:1043A000206810B9FEF766FEA060206908B90120F8
:1043B00000E0002060B904F1100000F0D7FA38B135
:1043C0004FF0805043490860BFF34F8FBFF36F8FAA
:1043D000FFF732FA012004B0BDE8F081039898B9E4
:1043E0000EB9012000E0002050B900BF502080F33A
:1043F0001188BFF34F8FBFF36F8F00BF00BFFEE781
:10440000FFF71AFA0020E6E7B8F1000F04D168467A
:10441000FFF700FB4FF00108FFF70EFAFFF7F2FB82
:10442000FFF7E0F994F94400401C10B9002084F82B
:10443000440094F94500401C10B9002084F8450060
:10444000FFF7FAF903A9684600F046F840BB20469A
:10445000FEF7E2FCF0B1206838B9FFF7C3F9A068B5
:1044600000F028FA0646FFF7E7F904F12400039963
:10447000FFF7E2FA2046FEF717FD00F0C3FA002826
:1044800088D14FF0805013490860BFF34F8FBFF3BE
:104490006F8F7FE72046FEF707FD00F0B3FA79E75C
:1044A0002046FEF701FD00F0ADFA2046FEF7B4FC11
:1044B0000028EED05EB1FFF795F92046FEF77AFBB3
:1044C00007463946A068FFF7D3FAFFF7B5F9002091
:1044D00081E7000004ED00E070B505460C4655B9D3
:1044E00000BF502080F31188BFF34F8FBFF36F8F51
:1044F00000BF00BFFEE754B900BF502080F3118811
:10450000BFF34F8FBFF36F8F00BF00BFFEE7FFF712
:1045100069F9124802686868131A2068401C08B9D3
:10452000002617E00E4928680968884204D06868A8
:10453000904201D801260DE02068984207D92068F2
:10454000C01A20602846FFF765FA002602E0002026
:1045500020600126FFF770F9304670BD3C01002055
:10456000500100202DE9FF4F85B08046894617464F
:10457000DDE912ABB800FEF7D7FC064656B1542071
:10458000FEF7D2FC04460CB1266304E03046FFF788
:1045900071F900E000248CB1002084F85100CDE9CD
:1045A00000ABCDE902403A4649464046089BFEF73B
:1045B00070FB2046FEF704FA012501E04FF0FF35BD
:1045C000284609B0BDE8F08F2DE9F04F85B00746C9
:1045D000884691469A46DDE90EB6109C0EB1012040
:1045E00000E0002050B900BF502080F31188BFF3D5
:1045F0004F8FBFF36F8F00BF00BFFEE70CB10120EC
:1046000000E0002050B900BF502080F31188BFF3B4
:104610004F8FBFF36F8F00BF00BFFEE754200390A2
:104620000398542801D1012000E0002050B900BFB8
:10463000502080F31188BFF34F8FBFF36F8F00BFFF
:1046400000BFFEE700BFB4B1AEB125462C462E63D5
:10465000022085F85100002004A953464A46CDE9BE
:1046600000B1CDE9025041463846FEF712FB28461C
:10467000FEF7A6F901E000200490049805B0BDE81B
:10468000F08F00000549096809B9012005E00449D7
:10469000096809B9022000E00020704744010020A9
:1046A000600100202DE9F0414FF000084448006807
:1046B00000287CD143480068451C4248056015BB72
:1046C00041480068006808B9012000E0002050B9A6
:1046D00000BF502080F31188BFF34F8FBFF36F8F5F
:1046E00000BF00BFFEE73848076838480068364911
:1046F00008603648076036480068401C3449086046
:10470000FEF798FB00BF3348006885423CD300BFEA
:104710002D480068006808B9012000E0002020B1A1
:104720004FF0FF302B4908602DE027480068C06833
:10473000C4686668B54202D22648066023E0201DA0
:10474000FEF7FAFFA06A18B104F11800FEF7F4FFB3
:1047500094F82C10012088401F49096808431E491D
:104760000860E16A01EB81011C4A02EB8100211D16
:10477000FFF72CF81A49E06A0968C96A8842C7D36A
:104780004FF00108C4E700BF15480068C06A00EB9D
:104790008000124951F82000012801D94FF001088A
:1047A0001048006808B14FF0010805E0FFE70E4827
:1047B0000068401C0C4908604046BDE8F0810000DC
:1047C000600100203C0100202C010020300100206D
:1047D00050010020580100204001002040410020ED
:1047E000280100204C0100204801002070B505463A
:1047F0002C460026002D55D02B480068844201D15C
:10480000012000E0002050B900BF502080F3118843
:10481000BFF34F8FBFF36F8F00BF00BFFEE7A06CE9
:1048200050B900BF502080F31188BFF34F8FBFF302
:104830006F8F00BF00BFFEE7A06C401EA064616CDC
:10484000E06A88422ED0A06C60BB201DFEF774FF8A
:1048500078B9E06A00EB8000144951F8200040B9B3
:1048600094F82C10012088401149096881431048B0
:104870000160606CE062E06AC0F10700A06194F83A
:104880002C10012088400A4909680843084908603B
:10489000E16A01EB8101054A02EB8100211DFEF76F
:1048A00095FF0126304670BD2801002040410020C0
:1048B0004001002070B505462C460026002D4DD045
:1048C0002749E06A0968C96A884240D2A06900F0B5
:1048D000004028B922480068C06AC0F10700A06102
:1048E000E16A01EB81011F4A02EB810160698842A4
:1048F00001D1012000E0002018B3201DFEF71CFFAD
:1049000040B994F82C100120884017490968814368
:104910001548016012480068C06AE06294F82C10E3
:10492000012088401049096808430F490860E16A7E
:1049300001EB81010B4A02EB8100211DFEF746FFCE
:1049400003E007480068C06AE062012606E0044907
:10495000606C0968C96A884200D20126304670BD81
:1049600028010020404100204001002070B506468B
:10497000F068C46854B900BF502080F31188BFF3B9
:104980004F8FBFF36F8F00BF00BFFEE704F1180029
:10499000FEF7D2FE15480068A8B9201DFEF7CCFE30
:1049A00094F82C10012088401149096808431049E7
:1049B0000860E16A01EB81010E4A02EB8100211DD2
:1049C000FEF704FF04E004F118010B48FEF7FEFEB9
:1049D0000A49E06A0968C96A884204D901250120A8
:1049E0000749086000E00025284670BD60010020EE
:1049F0004001002040410020F44100202801002017
:104A00004C01002070B5002400263648006850B9DB
:104A100000BF502080F31188BFF34F8FBFF36F8F1B
:104A200000BF00BFFEE7FEF7DDFE2E480068401E17
:104A30002C4908600846006800284FD12A480068C1
:104A400000284BD024E02948C068C46804F118004D
:104A5000FEF772FE201DFEF76FFE94F82C10012069
:104A6000884023490968084321490860E16A01EB4D
:104A70008101204A02EB8100211DFEF7A7FE1E499D
:104A8000E06A0968C96A884202D301201B490860AC
:104A90001648006808B9012000E000200028D2D0A4
:104AA0000CB1FEF7C7F91648056865B100BFFFF7FE
:104AB000F9FD10B10120114908606D1E002DF6D1DD
:104AC00000200F4908600D48006838B10126300702
:104AD0000C490860BFF34F8FBFF36F8FFEF7ACFE3A
:104AE000304670BD6001002038010020F4410020F4
:104AF0004001002040410020280100204C010020FE
:104B00004801002004ED00E070B50446FF2C08DCED
:104B1000322004FB00F5E81705EB5060C0F3CF101E
:104B200070BDA4F5807118A0FDF734FDA4F5807068
:104B3000322200FB02F114A0FDF72CFDA4F58070D9
:104B4000322100FB01F6F01706EB106001120EA0F7
:104B5000FDF720FDA4F58070322200FB02F6F0176D
:104B600006EB1060001200F1640107A0FDF712FDD2
:104B7000A4F58070322200FB02F1C81701EB10602F
:104B80000012643080B2CBE725640D0A00000000FB
:104B90000146642907DAC1EB01104000642290FB52
:104BA000F2F080B27047C8290BDAA1F16400C0EBC3
:104BB000C00000EB8000642290FBF2F01E3080B257
:104BC000F0E7B1F5967F09DAA1F1C80000EB4010DB
:104BD000642290FBF2F0413080B2E3E7A1F59670D9
:104BE0004001642290FBF2F0623080B2DAE700000C
:104BF00001000000020000000000000000000000B2
:104C000001000000020000000000000000000000A1
:104C1000E44C0008951B00080000000000000000A4
:104C2000800000000000000000000000D04C0008E0
:104C3000C11B0008FDFF0000000000000002000092
:104C40000000000000000000D84C0008DD1C000837
:104C5000FDFF0000000000008000000000000000D8
:104C600000000000044D0008E91C0008FDFF0000E2
:104C700000000000800000000000000000000000B4
:104C8000F04C0008651D0008FDFF0000000000005A
:104C9000800000000000000000000000F84C000848
:104CA000051E0008FDFF00000000000000040000D9
:104CB00000000000000000000000000000000000F4
:104CC00001020304060708090000000001020304B2
:104CD00075617274310000006D795461736B30330B
:104CE0000000000064656661756C745461736B004C
:104CF0005761726E000000007265636F72645368E2
:104D00006F77000072756E5F73686F770000000048
:104D1000304D00080000002068010000CC030008AE
:104D2000844D000868010020C844000030260008B7
:104D300001315324F40515436F3630080811313121
:104D400037336B6556190C1333333219136A7916DE
:104D50009504340596123212951A315A0B143537D0
:104D60005A0A143240195A0A143619130A0E127AC2
:104D70001288124112191207920432100223011AEA
:044D8000AA0101483B
:040000050800018965
:00000001FF
