:020000040800F2
:10000000C849002061020008EB270008C32100084E
:10001000E92700081B080008A53F000800000000B1
:10002000000000000000000000000000A101000826
:10003000C908000800000000FD0100089938000808
:100040007B0200087B0200087B0200087B0200089C
:100050007B0200087B0200087B0200087B0200088C
:100060007B0200087B0200087B0200087B0200087C
:100070007B0200087B0200087B0200087B0200086C
:100080007B0200087B0200087B0200087B0200085C
:100090007B0200087B0200087B0200087B0200084C
:1000A0007B0200087B0200087B0200087B0200083C
:1000B0007B0200087B0200087B0200087B0200082C
:1000C0007B0200087B0200087B0200087B0200081C
:1000D0007B0200089D3E0008A93E0008B53E0008CE
:1000E0007B0200087B0200087B0200087B020008FC
:1000F0007B0200087B0200087B0200087B020008EC
:100100007B0200087B0200087B0200087B020008DB
:100110007B0200087B020008693900087B020008A6
:100120007B0200087B0200087B0200087B020008BB
:100130007B0200087B0200087B0200087B020008AB
:100140007B0200087B0200087B0200087B0200089B
:100150007B0200087B0200087B020008C13E000809
:100160007B0200087B0200087B0200087B0200087B
:100170007B0200087B0200087B02000800000000F0
:100180007B0200087B020008DFF810D000F0C4FA00
:1001900000480047A5480008AFF30080C849002088
:1001A0002C4B19680868B0E8F04F80F30988BFF35A
:1001B0006F8F4FF0000080F311887047000000003F
:1001C00008480068006880F308884FF0000080F35A
:1001D000148862B661B6BFF34F8FBFF36F8F00DF35
:1001E00000BF00BF08ED00E0DFF80C00016841F43B
:1001F00070010160704700BF88ED00E0EFF30980F7
:10020000BFF36F8F134B1A681EF0100F08BF20ED5D
:10021000108A20E9F04F106009B44FF0500080F3CD
:100220001188BFF34F8FBFF36F8F05F0A7FB4FF01F
:10023000000080F3118809BC19680868B0E8F04F25
:100240001EF0100F08BFB0EC108A80F30988BFF3CE
:100250006F8F704744000020EFF305807047000067
:100260000648804706480047FEE7FEE7FEE7FEE750
:10027000FEE7FEE7FEE7FEE7FEE7FEE75939000886
:10028000890100082DE9F05F0546002092469B4653
:1002900088460646814640241BE02846414647469C
:1002A000224600F070F853465A46C01A914110D3C6
:1002B00011461846224600F057F82D1A67EB010840
:1002C0004F4622460120002100F04EF817EB0009AE
:1002D0004E41201EA4F10104DFDC484631462A4687
:1002E0004346BDE8F09F40EA01039B0703D009E0C5
:1002F00008C9121F08C0042AFAD203E011F8013B12
:1003000000F8013B521EF9D27047D2B201E000F86A
:10031000012B491EFBD270470022F6E710B51346A9
:100320000A4604461946FFF7F0FF204610BD421C5E
:1003300010F8011B0029FBD1801A704730B50B461D
:10034000014600202022012409E021FA02F59D4205
:1003500005D303FA02F5491B04FA02F52844151ED9
:10036000A2F10102F1DC30BD202A04DB203A00FAC0
:1003700002F1002070479140C2F1200320FA03F3FC
:10038000194390407047202A04DB203A21FA02F0FA
:100390000021704721FA02F3D040C2F120029140BF
:1003A0000843194670472DE9FE4F804681EA030055
:1003B000C00F0C46009021F0004123F00045B8EB3F
:1003C0000200A94105D24046214690461C460B46F4
:1003D000024623F00040104347D0270DC7F30A0020
:1003E000C3F30A510290401A019040286BDAC3F31C
:1003F000130040F4801B0098924620B10023D2EBFA
:10040000030A63EB0B0B01985946C0F140025046BA
:10041000FFF7AAFF06460D4650465946019A00F0DE
:100420008DF910EB08006141002487EA115284EA3B
:10043000E7731A4340D0009A62B3019A012A4FEA47
:10044000075215DC001B61EB02014FF0004202EA8B
:100450000752CDE90042001C41F5801132462B467F
:1004600000F08DF903B0BDE8F08F40462146F9E772
:10047000001B61EB0201001C41F5801300185B4179
:100480002018A2F5001747EB030140EAD570B61912
:100490006D4111E06D084FEA360645EAC0754FEA36
:1004A0000752001B61EB0201001C41F58011490855
:1004B0004FEA30000019514132462B4603B0BDE8E7
:1004C000F04F00F04DB90098012240000023D0EB1E
:1004D000020263EBE073009821464FEAE074B8EB48
:1004E000000061EB0401E9E783F000435BE781F082
:1004F000004158E72DE9FE4F81EA030404F000446F
:1005000021F0004100944FF0000B23F0004350EA2B
:1005100001045ED052EA03045BD0C3F30A54C1F372
:100520000A552C44A4F2F3340194A0FB0254C1F305
:10053000130141F48011C3F3130343F4801301FB4F
:10054000024400FB034E840A970A44EA815447EAB6
:100550008357A4FB076802958D0A05FB07854FEAC0
:10056000932C04FB0C542705029D4FEA065847EADA
:100570001637B5EB08056EEB070C870E920E47EAAF
:10058000811742EA8312A7FB0201B6EB0B0164EB71
:1005900000042B0D43EA0C335E1844EB1C50DA4682
:1005A0005146E7FB0201C5F313044FEA0B3343EA5C
:1005B00014534FEA0432019C43EA0603A4F10C04ED
:1005C0000294009CCDE900B400F0D9F803B0BDE876
:1005D000F08F00200146F9E72DE9F04D81EA030490
:1005E00004F0004B21F0004514464FF0000A23F0C0
:1005F000004150EA050220D054EA01021DD0C5F3A3
:100600000A570246C5F31303C1F31300C1F30A5698
:1006100040F4801543F48013A7EB0608101BD64660
:1006200008F2FD3873EB050002D308F1010801E080
:1006300092185B41B8F1000F03DA00200146BDE8D3
:10064000F08D00204FF48011064684460EE0171B03
:1006500073EB050705D3121B63EB050306434CEA56
:10066000010C49084FEA300092185B4150EA01073B
:10067000EDD152EA030012D082EA040083EA0501B8
:10068000084305D0101BAB4106D20122002306E02F
:1006900000224FF0004302E06FF0010253101AEB0A
:1006A00006004CEB085110EB0A0041EB0B01BDE8D2
:1006B000F04D00F055B8C1F30A52C1F3130140F2F6
:1006C000FF3341F480119A4202DA0020014670475C
:1006D00040F233439A42A2F2334202DC5242FFF725
:1006E00052BEFFF741BE000030B5041E71F1000498
:1006F00004DB4FF00044404264EB0101141E73F12F
:10070000000405DB1C464FF00043524263EB040338
:10071000994208BF904230BD064C074D06E0E068A4
:1007200040F0010394E8070098471034AC42F6D338
:10073000FFF72EFD385F0008585F0008202A06DB0F
:10074000CB17203A41FA02F043EAE07306E041FA9F
:1007500002F3D040C2F1200291400843194670478D
:1007600010B5141E73F1000408DA401C41F10001B9
:1007700092185B411A4301D120F0010010BD2DE910
:10078000F04D92469B4611B1B1FA81F202E0B0FA07
:1007900080F220329046FFF7E7FD04460F4640EA1C
:1007A0000A0041EA0B0153465A46084313D011464A
:1007B00053EA010019D0C8F140025046FFF7E3FDAB
:1007C00005460E46504659464246FFF7CDFD0843C2
:1007D00005D0012004E020463946BDE8F08D002018
:1007E000054346EAE0762C4337430A986305E40A5A
:1007F000A0EB08000022FD0A44EA47540A3002D563
:1008000000200146E9E7010510196941DDE90845C5
:1008100000196941BDE8F04DA2E7FEE770B596B05A
:100820001D464FF47A74B0F5347F08D3234618225E
:1008300014A11A4801F074FC002016B070BD3026D7
:10084000B0FBF6F35B1C0B70B0FBF6F306FB130377
:100850001E09167003F00F032B701278CDE90023E8
:100860000B7802460EA102A803F09EFB02A8FFF738
:100870005EFD82B2234602A9084801F051FC012026
:10088000DBE700005B5065616B5D20B5C0D6B7B398
:10089000ACB3F6B7B6CEA70D0A0000006006002084
:1008A0005B5065616B5D20B5C0D6B72564202D3ED9
:1008B00020C9C8C7F8256420BFE9256420C6ABD28B
:1008C000C625640D0A000000704772B6FEE70000FE
:1008D0002DE9FF4FA1B01C46DDE92F062E9F319D6B
:1008E0009346A7F10109A3F101084FF47A7A58B1B0
:1008F00001281AD00E282ED8311811F8012C2A7090
:10090000305C687048784CE053461B2230A10FE001
:10091000012B2DD008F0FF03022011E09DF8830089
:1009200028703078687070783BE0534621222FA100
:10093000364801F0F5FB234609F0FF00002FE7D011
:100940001DA9CDE90001DDE921015A4602F0BAFDF9
:10095000002814D0E2E70F2824D1B07B2870F07B68
:100960006870022F0ED023467F1CF8B20F2B0DD9D2
:100970005346122226A1254801F0D2FB002025B0C3
:10098000BDE8F08F641CE3B20027EEE71DA9CDE9B6
:100990000001DDE9210102F095FD0028EFD09DF86E
:1009A0007400A870A8786B782A788DE80D00039001
:1009B0001CA104A803F0F8FA04A8FFF7B8FC82B25F
:1009C000534604A9114801F0ABFB0120D7E7000012
:1009D0005B5065616B5D20BFE7BFE9A3BAD0E8D289
:1009E000AAC9CFD2BBBFE90D0A0000005B50656108
:1009F0006B5D20BFE7BFE9A3BAD0E8D2AAC9CFD2C6
:100A0000BBBFE931D7D6BDDA0D0A00006006002071
:100A10005B5065616B5D20B3ACB3F6B7B6CEA70D86
:100A20000A0000005B5065616B5D20B7E5D6B53A02
:100A30002025303258202530325820253032582099
:100A400028CAAEBDF8D6C63A2025752025752025C2
:100A500075290D0A000000002DE9F0410446876D5C
:100A600000F054F9064694F835000025022806D017
:100A70008020606584F834500120BDE8F081206852
:100A8000016821F0160101602068416921F08001B0
:100A90004161206C08B9A06C20B12068016821F088
:100AA000080101602068016821F0010101600CE08B
:100AB00000F02CF9801B052807D920206065032051
:100AC00084F8350084F83450D7E720680068C00700
:100AD000EED194F85C103F208840B860012084F883
:100AE000350084F834500020C7E790F8351002290B
:100AF00003D08021416501207047052180F8351021
:100B00000068016821F001010160002070470000C9
:100B10002DE9F84FDFF8BCA10022012503264FF094
:100B20000F090AF1040BAAF1040E00BF0B6805FAC5
:100B300002F42340A34270D10F7907F00307012F7D
:100B400001D0022F16D187684FEA420806FA08FC46
:100B500027EA0C07D1F80CC00CFA08FC4CEA070C89
:100B6000C0F808C04768A7430C79C4F30014944048
:100B70003C4344600C79E443A4070AD0C4684FEABC
:100B8000420C06FA0CF7BC438F6807FA0CF72743B0
:100B9000C7600C7904F00304022C12D1D40800EBD6
:100BA000840CDCF820405707FF0E09FA07F824EA06
:100BB0000804D1F8108008FA07F848EA0408CCF8CD
:100BC000208004684FEA420C06FA0CF7BC430F7908
:100BD00007F0030707FA0CF7274307604C6814F483
:100BE000403F70D03C4C276847F48047276024681A
:100BF00022F0030704F480440094384C07EB040C03
:100C0000DCF8084897074FEA177809FA08F7BC4359
:100C1000334FB84202D1002724E054E0314FB842AC
:100C200001D101271EE0304FB84201D1022719E05F
:100C30002E4FB84201D1032714E02D4FB84201D105
:100C400004270FE02B4FB84201D105270AE02A4FB5
:100C5000B84201D1062705E0284FB84201D1072745
:100C600000E0082707FA08F72743CCF80878DAF8F5
:100C700000405746D1F804C09C435FEACC2C00D515
:100C80001C433C60DBF800405F46D1F804C09C4345
:100C90005FEA8C2C00D51C433C60DEF800407746B0
:100CA000D1F804C09C435FEA8C3C00D51C433C60F7
:100CB000084F083F3C68D1F804C09C435FEACC3C35
:100CC00000D51C433C60521C102AFFF42FAFBDE836
:100CD000F88F0000083C01404438024000300140D9
:100CE000000002400004024000080240000C0240E4
:100CF000001002400014024000180240001C024094
:100D00000AB1816170470904FBE70000014880686F
:100D100070470000340000200248816802781144C6
:100D200081607047340000200B4810B5016841F421
:100D300000710160016841F480610160016841F463
:100D400080710160032000F09FF80F2000F006F88A
:100D500000F050F8002010BD003C024030B50546C0
:100D60001F4887B00024016841F01001016000684D
:100D700006A900F01000009001A800F031F90498D5
:100D8000A8B100F04DF940001649174AB0FBF1F147
:100D90001648491E026040F2E732C0E90324C0E968
:100DA0000114846100F08CFB040003D015E000F016
:100DB00037F9E9E70D4800F0EDFB04000DD13620CE
:100DC00000F034F8102D07D200222946362000F01A
:100DD0003BF80748056000E0012407B0204630BD1D
:100DE0004038024040420F0000100040C807002079
:100DF000380000200C4882B0016841F48041016055
:100E0000006800F4804000900748001F016841F02E
:100E1000805101600068002200F0805000900F2196
:100E2000901E02B000F010B844380240002809DBE0
:100E300000F01F02012191404009800000F1E020F4
:100E4000C0F8001170470000F0B40E4B1B680C4650
:100E5000C3F30223C3F10705042D00D90425191D8E
:100E6000072901D2002300E0DB1E012606FA05F166
:100E7000491E214099409E40761E16403143F0BCE9
:100E800003F0A6B80CED00E0064900F00702086880
:100E90004FF6FF03184040EA0220034A104308605F
:100EA000704700000CED00E00000FA052DE9F04766
:100EB0000E46050065D0DFF81481D8F80000F7B2BF
:100EC00000F00700B04207D288F80070D8F80000A0
:100ED00000F00700B04254D128683D4C810712D57C
:100EE000400703D5206840F4E050206028780007D0
:100EF00003D5206840F4604020602068A96820F095
:100F0000F000084320602878C0072DD03049686879
:100F10000839012812D0022813D0032811D00968FB
:100F2000890700292DDA216821F00301014321609E
:100F3000FFF7ECFE814641F2883A0EE0096889032A
:100F4000EFE709688901ECE7FFF7E0FEA0EB090194
:100F5000514502D90320BDE8F0872068696800F098
:100F60000C00B0EB810FEFD1D8F80010404601F033
:100F70000701B14207D90770006800F00700B042CE
:100F800001D00120E7E72878400705D52068E96807
:100F900020F4E050084320602878000706D5206838
:100FA000296920F4604040EAC100206000F058F850
:100FB0002168084AC1F30311515CC8400649086022
:100FC00006480068FFF7CAFE0020C4E7003C024064
:100FD00008380240DC5E0008400000203800002095
:100FE0000F2202600C4A136803F003034360136886
:100FF00003F0F0038360136803F4E053C3601268E6
:101000004FF4E05303EAD20202610448006800F0A2
:10101000070008607047000008380240003C0240AA
:101020000448054900680968044AC1F38221515CFB
:10103000C84070474000002008380240EC5E0008BD
:101040000448054900680968044AC1F34231515C0B
:10105000C84070474000002008380240EC5E00089D
:10106000154810B5006810F00C02144813D0411058
:10107000042A0FD0082A0ED10F4C241F226823689F
:1010800002F03F025B0207D52068C0F38810A0FB86
:10109000010106E0084610BD2168C1F38811A1FBDB
:1010A00000010023FFF7EEF82168C1F30141491C5C
:1010B0004900B0FBF1F010BD083802400024F400F4
:1010C0002DE9F84F04006ED02078DFF84C93C0076C
:1010D000A9F104054AD009F104000168C1F38101B6
:1010E000012908D00068C0F3810002280AD1D9F88C
:1010F0000000400206D52868800337D560680028C4
:10110000E1D033E06068B0F5803F10D0B0F5A02F9B
:10111000286810D020F480302860286820F48020CF
:1011200028606068A8B1FFF7F1FD06460DE0286869
:1011300040F48030F4E740F480202860F7E700BFF7
:10114000FFF7E4FD801B642873D828688003F7D577
:101150000CE0FFF7DBFD064605E000BFFFF7D6FD1C
:10116000801B6428F0D828688003F7D42078DFF843
:10117000AC8280074FF0000A3ED5A748001D0168E9
:1011800011F00C0F08D00068C0F3810002280BD1C9
:10119000D9F80000400207D42868800716D5E06817
:1011A000012800D112E033E1E068B8B10120C8F8AD
:1011B0000000FFF7ABFD064605E000BFFFF7A6FD08
:1011C000801B0228C0D828688007F7D528682169C5
:1011D00020F0F80040EAC10028600DE0C8F800A047
:1011E000FFF794FD064604E0FFF790FD801B022800
:1011F0001FD828688007F7D42078000722D5864FAB
:1012000087486169703771B101210160FFF77EFD88
:10121000064604E0FFF77AFD801B022809D83868EB
:101220008007F7D50EE0C0F800A0FFF76FFD064677
:1012300005E082E0FFF76AFD801B02287DD8386850
:101240008007F7D42078400768D5DFF8CCB10027B5
:101250000BF13C0BDBF80000C0000BD4DBF80010F6
:1012600041F08051CBF80010DBF80000012700F0BE
:10127000805000906B4E3068C00510D4306840F448
:1012800080703060FFF742FD009005E0FFF73EFD03
:101290000099401A022850D83068C005F6D55E4E35
:1012A000A0686C3601280FD00528306810D020F0D7
:1012B00001003060306820F004003060A068B8B1F0
:1012C000FFF724FD00900FE0306840F00100F4E7E4
:1012D00040F004003060F7E7FFF718FD0099411A6D
:1012E00041F28830814266D830688007F4D50EE03C
:1012F000FFF70CFD009007E0FFF708FD0099411A89
:1013000041F28830814256D830688007F4D42FB13A
:10131000DBF8001021F08051CBF80010A069C8B3B1
:101320003D49091D0968C1F3810102294AD00228FB
:10133000504607D0C8F8600000E03CE0FFF7E6FC4C
:1013400004463BE04746C8F86000FFF7DFFC06466E
:1013500005E000BFFFF7DAFC801B02282BD82868C5
:101360008001F7D4D4E907010843A16A2E4A49084D
:1013700002EB0141626A41EA8211084394F82C10A1
:1013800040EA0161C9F8001001203866FFF7BEFC91
:10139000044606E03EE000BFFFF7B8FC001B022851
:1013A00009D828688001F7D534E000BFFFF7AEFC0C
:1013B000001B022802D90320BDE8F88F28688001AD
:1013C000F4D427E00128F7D0D9F80000E26900F44E
:1013D000800191421CD1226A00F03F01914217D155
:1013E00047F6C071626A0140B1EB821F10D1A26A58
:1013F0004FF0FF3300F4403103EB5202B1EB024FE8
:1014000006D194F82C1000F07060B0EB016F01D0A1
:101410000120D1E70020CFE7043802400000474216
:10142000800E4742007000400000FFFF7047704789
:1014300070B590F83C20012A32D0012480F83C405D
:10144000022280F83D2003685A689D6822F07006E9
:101450000A6832435A60134B02689A4214D0B2F1C0
:10146000804F11D0104B9A420ED0104B9A420BD0A5
:101470000F4B9A4208D00F4B9A4205D00E4B9A421E
:1014800002D00E4B9A4204D1496825F080031943DB
:10149000916080F83D40002180F83C10084670BD06
:1014A000022070BD00000140000400400008004020
:1014B000000C0040000401400040014000180040C2
:1014C00010B5040003D094F83D0010B107E00120EE
:1014D00010BD002084F83C00204600F01FF80220D8
:1014E00084F83D00211D206802F044FA012084F8B0
:1014F000460084F83E0084F83F0084F8400084F8F9
:10150000410084F8420084F8430084F8440084F8E1
:10151000450084F83D00002010BD000008B5184AC1
:1015200001681848914207D1016841F40031016017
:10153000006800F4003009E0134A914208D10168C4
:1015400041F480210160006800F48020009008BD13
:101550000C480E4A001F914207D1016841F08001FA
:101560000160006800F08000F0E7094A9142EED186
:10157000016841F480710160006800F48070E5E763
:10158000004401404438024000480140001C004033
:101590000020004090F83D10012901D00120704743
:1015A000022180F83D100168CA6842F00102CA6059
:1015B00000681149884214D0B0F1804F11D00F4912
:1015C00088420ED00E4988420BD00E49884208D07E
:1015D0000D49884205D00D49884202D00C49884205
:1015E00004D1816801F00701062903D0016841F0A8
:1015F000010101600020704700000140000400402C
:1016000000080040000C0040000401400040014080
:10161000001800402DE9F0410D46040003D094F875
:101620003D0018B108E00120BDE8F081002084F8F9
:101630003C00204600F040F8022084F83D0020687D
:10164000816844F2070291438160211D206802F005
:1016500091F9226890689169166A2B68AF69034313
:1016600040F20330814341EA0721A868EF6908434B
:101670004FF6FC418843E96840EA072001432869A6
:101680002F6A000140EA0730084369686D6926F057
:10169000AA0646EA0515294393602268906154F82A
:1016A000460B0162012004F81F09E0752076E07600
:1016B0002077A0750020B7E770B586B004461421E6
:1016C0006846FEF729FE3D48256800223C49022471
:1016D0000126854219D13A481430036843F00103CA
:1016E0000360006800F001000590086840F01000F9
:1016F00008600868694600F0100005904FF420600B
:101700000090CDE901422F4833E02D4B2E48103395
:10171000B5F1804F18D02D4EB54231D11D6845F03E
:1017200002051D601B6803F0020305930B6843F07C
:1017300001030B60096801F001010591C0210091CE
:10174000CDE90142694635E01D6845F001051D609F
:101750001B6803F0010305930B6843F001030B6062
:10176000096801F00101059122210091CDE90142B2
:101770006946CDE9032600BFFFF7CAF906B070BD80
:1017800013488542FAD1186840F0040018601868C0
:1017900000F004000590086840F008000860086840
:1017A000694600F0080005904FF440500090CDE9E4
:1017B00001420848CDE90324DEE7000000000140B3
:1017C0003038024000100240000002400004004097
:1017D00000080040000C024070472DE9F04104462B
:1017E0000068C66805694FF00007A90713D5B1075F
:1017F00011D5F91E016101202077206880698007DA
:10180000204602D0FFF7E8FF04E000F0D7F82046BA
:1018100000F069F92777680716D5700714D5216895
:101820006FF004000861022020772068806910F4BE
:10183000407F204602D0FFF7CFFF04E000F0BEF863
:10184000204600F050F92777280715D5300713D523
:1018500021686FF008000861042020772068C069C3
:101860008007204602D0FFF7B7FF04E000F0A6F89B
:10187000204600F038F92777E80616D5F00614D58B
:1018800021686FF010000861082020772068C06987
:1018900010F4407F204602D0FFF79EFF04E000F0E6
:1018A0008DF8204600F01FF92777E80708D0F007E9
:1018B00006D021686FF001000861204600F014F99D
:1018C000280608D5300606D521686FF0800008612B
:1018D0002046FFF7ABFD680608D5700606D52168DF
:1018E0006FF040000861204600F008F9A8060AD50C
:1018F000B00608D521686FF0200008612046BDE8D9
:10190000F041FFF794BDBDE8F081000070B586B0EE
:10191000044614216846FEF7FFFC2468214E00228D
:101920002149022303252148B44209D10C6844F01F
:1019300020040C60096801F02001059140210BE0B2
:101940001B4EB44212D10C6844F020040C600968AC
:1019500001F02001059180210091CDE90132CDE90E
:1019600003256946FFF7D4F806B070BD114E09256E
:10197000B44209D10C6844F020040C60096801F0FD
:1019800020010591B115E7E70B4EB442ECD10C688C
:1019900044F020040C60096801F0200105917115E4
:1019A000DAE70000004401403038024000140240F1
:1019B00000480140001C004000200040704770B506
:1019C000044690F83C0000260D4601280FD0012067
:1019D00084F83C006AB1042A1DD0082A2FD00C2AB2
:1019E0003FD00126002084F83C00304670BD022024
:1019F00070BD206802F026F82068816941F0080176
:101A000081612068816921F0040181612068816918
:101A10002A69114311E0206802F044F820688169C6
:101A200041F4006181612068816921F480618161F4
:101A3000206881692A6941EA02218161D2E7206830
:101A400002F066F82068C16941F00801C1612068B0
:101A5000C16921F00401C1612068C1692A6911438B
:101A600011E0206802F088F82068C16941F4006143
:101A7000C1612068C16921F48061C1612068C169C8
:101A80002A6941EA0221C161ACE710B5040003D024
:101A900094F83D0010B107E0012010BD002084F84B
:101AA0003C00204600F01EF8022084F83D00211D75
:101AB000206801F05FFF012084F8460084F83E00B2
:101AC00084F83F0084F8400084F8410084F8420024
:101AD00084F8430084F8440084F8450084F83D000D
:101AE000002010BD7047704700680349884201D14B
:101AF000FFF712B9704700000010004070477047B0
:101B000070470000F8B5016804460868CA684B6968
:101B100010F00F0F4FF0000559D003F0010602F44A
:101B20009077374365D0C10705D0D10503D5616CE7
:101B300041F001016164410705D5D90703D0616C0B
:101B400041F002016164810705D5D90703D0616CBA
:101B500041F004016164010707D502F0200131431F
:101B600003D0616C41F008016164616C00293AD0D6
:101B7000800604D5900602D5204602F053F820686E
:101B80004069616CC0F38010090700D460B320463F
:101B900002F021F820684069400621D52068143001
:101BA00050E8001F21F0400140E80012002AF5D162
:101BB000E06BA8B172490165E06BFEF796FF002863
:101BC00011D0E06B016D01B0BDE8F040084783061D
:101BD0000FD593060DD52046BDE8F84002F022B897
:101BE0002046FFF78DFFF8BD2046FFF789FF6564AB
:101BF000F8BD266B2023012E7ED1C6067CD5D606E5
:101C00007AD508684868009048694FF00206400697
:101C10004DD5E26B106840684FF480770004000CEB
:101C20003AD0A18D814237D9E085D069B8422DD014
:101C300020680C3050E8001F21F4807140E8001249
:101C4000002AF5D12068143050E8001F21F001016E
:101C500040E80012002AF5D12068143050E8001F37
:101C600021F0400140E80012002AF5D184F842300A
:101C7000256320680C3050E8001F21F0100140E877
:101C80000012002AF5D1E06BFEF7E6FE6663A08D38
:101C9000E18D401A81B206E0A18D8142A8D1D069C0
:101CA000B842A5D166632046FFF729FFF8BDA08D95
:101CB000E18D401A81B2E08D0028F7D00029F5D0DF
:101CC00020680C3050E8002F22F4907240E8002782
:101CD000002FF5D12068143050E8002F22F00102C7
:101CE00040E80027002FF5D184F8423025632068B2
:101CF0000C3050E8002F00E006E022F0100240E82F
:101D00000023002BF3D1CDE705062BD5150629D5E9
:101D100094F841002128C9D1A068B0F5805F01D1B5
:101D20002069B0B1206A411C2162216800784860B6
:101D3000E08C401E0004000CE084B7D12068C1682C
:101D400021F08001C1602068C16841F04001C1609C
:101D5000F8BD206A0088C0F308004860206A801C33
:101D60002062E5E74006F3D55006F1D5CA68204663
:101D700022F04002CA6084F8413000F021FAF8BD38
:101D8000C93B000870B5040004D094F84100002558
:101D900010B106E0012070BD84F84050204600F0EC
:101DA00023F8242084F841002068C16821F4005100
:101DB000C160204601F098FF2068016921F490413C
:101DC00001612068416921F02A0141612068C168F0
:101DD00041F40051C1606564202084F8410084F81A
:101DE00042006563002070BD2DE9F04786B00446CF
:101DF00014216846FEF790FA6248614B266800217C
:101E0000604A103802240325DFF87CA14FF4406CAF
:101E10004FF008099E421BD1136843F4002313605E
:101E2000126802F400220592026842F00402026085
:101E3000006802AB00F00400059083E82202CDE9BF
:101E400000C469465046FEF763FE06B0BDE8F08761
:101E50004C4BDFF838811B1D0727464521D11A68F6
:101E600042F010021A601A6802F01002059202682D
:101E700042F001020260006802AA00F00100059031
:101E800082E8A2004FF4C060CDE9000469464048F2
:101E9000FEF73EFE002205212520FEF7D5FF252076
:101EA00023E0DFF8F080464522D1136843F4003385
:101EB0001360126802F400320592026842F00802D0
:101EC0000260006802AB00F00800059083E8A20001
:101ED0006020CDE9000469462F48FEF719FE002274
:101EE00005212620FEF7B0FF2620FEF79FFFACE776
:101EF000DFF8A88046451FD1136843F480231360A0
:101F0000126802F480220592026842F00202026026
:101F1000006802AB00F00200059083E8A200CDE962
:101F200000C469461E48FEF7F3FD00220521272064
:101F3000FEF78AFF2720D8E71A4A964285D11A6809
:101F400042F020021A601A6802F02002059202682C
:101F500042F004020260006802AA00F0040005904A
:101F600082E82202C020CDE9000469465046FEF70F
:101F7000CFFD002205214720FEF766FF4720B4E78A
:101F8000004C004040380240000802400010014070
:101F90000000024000440040000C024000480040A5
:101FA00000040240001401402DE9F84F044690F867
:101FB00042009A4616460D46202802D00220BDE86F
:101FC000F88FB5B1AEB100206064222184F84210D0
:101FD0002063FEF79BFEA6858146E685A0684FF448
:101FE00080582027404501D1206920B12E46002588
:101FF00029E00120E3E7002625E04B4600222021CE
:102000002046CDF800A001F010FF18B184F842700E
:102010000320D4E726B1A06840451AD038B108E0C3
:1020200020684068C0F3080025F8020B08E020692A
:1020300078B12068406800F07F0000BF06F8010B0F
:10204000E08D401EE085E08D0028D6D184F84270F6
:10205000B5E720684068F1E790F84230202B01D0C6
:102060000220704721B11AB10023036301F0C2BE00
:102070000120704710B500681B49884207D11B48F2
:10208000007803F089FA01221849194827E0194914
:10209000884203D101221549174820E01749884298
:1020A00005D101F04FFF01221549164817E01649E6
:1020B000884218D1FEF72AFE1449164B08601448CE
:1020C0000188491C89B2018001221A70FF2901D3BD
:1020D000FE21018010490088012201440F48BDE81B
:1020E0001040FFF7B9BF10BD004400403000002091
:1020F000F006002000100140A80600200048004023
:10210000B000002038070020001401401400002017
:102110001000002018000020C900002080070020C7
:102120002DE9F843044690F84100984616460D46BE
:10213000202802D00220BDE8F88385B17EB10020BE
:102140006064212084F84100FEF7E0FDA68481460A
:10215000E684A0682027B0F5805F02D003E001206C
:10216000E9E7206910B12E4600250EE000260CE0BC
:102170008021204601F059FEA8B9C6B116F8010B1E
:1021800021684860E08C401EE084E08C4B464FF0B4
:102190000002CDF800800028EAD14FF0400120462F
:1021A00001F043FE40B184F841700320C3E735F8E5
:1021B000020BC0F30800E3E784F841700020BAE79F
:1021C0007047FEE710B5A4B01C221B496846FEF715
:1021D0008AF80021684602F0C1FB184C16491C22FF
:1021E00020601C3107A8FEF77EF8002107A802F046
:1021F000B5FB114960601C2238310EA8FEF773F858
:1022000000210EA802F0AAFB0B49A0601C22543149
:1022100015A8FEF768F8002115A802F09FFB0649F3
:10222000E0601C2270311CA8FEF75DF800211CA89C
:1022300002F094FB24B010BD505E00082000002086
:102240002DE9F04387B014216846FEF765F84B4846
:102250000024016841F004010160016801F00401FB
:102260000591016841F020010160016801F0200141
:102270000591016841F080010160016801F0800171
:102280000591016841F001010160016801F001015F
:102290000591016841F010010160016801F0100131
:1022A0000591016841F002010160016801F002013D
:1022B0000591016841F008010160016801F0080121
:1022C0000591016841F04001016000682C4E00F06A
:1022D00040004FF440450590002229463046FEF765
:1022E0000FFD284F00221F213846FEF709FDDFF8B9
:1022F000988001224FF404414046FEF701FDDFF8CB
:102300008C90002203214846FEF7FAFC0095012537
:10231000CDE90154694630460394FEF7F9FB1F20CE
:102320000090CDE90154694638460394FEF7F0FB6E
:1023300068028DE8310069464046FEF7E9FBA802D5
:10234000CDE90005CDE9025469464046FEF7E0FBC1
:10235000E8030326CDE90005CDE90246694640467B
:10236000FEF7D6FB0096CDE9015469464846039432
:10237000FEF7CEFB07B0BDE8F08300003038024026
:102380000008024000140240001802400010024001
:1023900010B588B01C216846FDF7BEFF15481449EA
:1023A000002401600921C0E9011440F2E731C0E9CD
:1023B000031480218161FFF783F808B1FEF785FAE5
:1023C0000C48FFF762FB08B1FEF77FFA6020CDE909
:1023D000000402940022694606480494FFF7EFFACD
:1023E00008B1FEF772FA0348FFF790FA08B010BD83
:1023F000004401404005002010B588B01C2168460B
:10240000FDF78AFF15481449002401600921C0E93D
:10241000011440F2E731C0E9031480218161FFF724
:102420004FF808B1FEF751FA0C48FFF72EFB08B140
:10243000FEF74BFA6020CDE90004029400226946C1
:1024400006480494FFF7BBFA08B1FEF73EFA0348CA
:10245000FFF75CFA08B010BD004801408805002075
:1024600010B588B01C216846FDF756FF1548144981
:10247000002401600421C0E9011440F2E731C0E901
:10248000031480218161FFF71BF808B1FEF71DFAE4
:102490000C48FFF7FAFA08B1FEF717FA6020CDE909
:1024A000000402940022694606480494FFF787FA64
:1024B00008B1FEF70AFA0348FFF728FA08B010BD82
:1024C000001C0040D005002010B588B01C216846D3
:1024D000FDF722FF15481449002401600421C0E9DA
:1024E000011440F2E731C0E9031480218161FEF755
:1024F000E7FF08B1FEF7E9F90C48FFF7C6FA08B1A3
:10250000FEF7E3F96020CDE9000402940022694659
:1025100006480494FFF753FA08B1FEF7D6F90348CA
:10252000FFF7F4F908B010BD0020004018060020A5
:1025300010B58CB024216846FDF7EEFE0024164845
:10254000099414490A94C0E900144FF6FF71C0E9D8
:1025500002410461446184610120CDE90004CDE9B8
:1025600002040494CDE90540079469460A4808949A
:10257000FFF750F808B1FEF7A8F9099409A9064831
:102580000A94FEF755FF002801D0FEF79EF90CB023
:1025900010BD0000000001402004002010B58CB0E8
:1025A00024216846FDF7B8FE0024144809944FF032
:1025B00080410A94C0E90014611EC0E9024104612F
:1025C00084610120CDE90004CDE902040494CDE941
:1025D00005400794694609480894FFF71BF808B1BD
:1025E000FEF773F9099409A904480A94FEF720FF3D
:1025F000002801D0FEF769F90CB010BD6804002076
:1026000010B58CB024216846FDF786FE00241548DD
:10261000099413490A94C0E900144FF6FF71C0E908
:102620000241046184610120CDE90004CDE9020486
:102630000494CDE90540079469460A480894FEF7DA
:10264000E9FF08B1FEF741F9099409A905480A9480
:10265000FEF7EEFE002801D0FEF737F90CB010BDF2
:1026600000040040B004002010B58CB0242168465E
:10267000FDF752FE00241548099413490A94C0E955
:1026800000144FF6FF71C0E902410461846101202A
:10269000CDE90004CDE902040494CDE90540079496
:1026A00069460A480894FEF7B5FF08B1FEF70DF930
:1026B000099409A905480A94FEF7BAFE002801D03A
:1026C000FEF703F90CB010BD00080040F80400202C
:1026D0000C4810B50A4901604FF4E1314160002116
:1026E00081600C22C160C0E904128161C161FFF701
:1026F00049FB002803D0BDE81040FEF7E6B810BD46
:10270000004C0040600600200C4810B50A490160EA
:102710004FF4E1314160002181600C22C160C0E9C9
:1027200004128161C161FFF72DFB002803D0BDE8D1
:102730001040FEF7CAB810BD00100140A8060020E6
:102740000C4810B50A4901604FF4E13141600021A5
:1027500081600C22C160C0E904128161C161FFF790
:1027600011FB002803D0BDE81040FEF7AEB810BD45
:1027700000440040F00600200C4810B50A490160F2
:102780004FF4E1314160002181600C22C160C0E959
:1027900004128161C161FFF7F5FA002803D0BDE89A
:1027A0001040FEF792B810BD0048004038070020E6
:1027B0000C4810B50A4901604FF4E1314160002135
:1027C00081600C22C160C0E904128161C161FFF720
:1027D000D9FA002803D0BDE81040FEF776B810BD46
:1027E0000014014080070020FEE7FEE770B54FF4BB
:1027F0007A74C0B0234626221DA12748FFF790FC1B
:1028000023461E2225A12448FFF78AFC2B4E4FF4B5
:102810008065002229463046FEF772FAC82002F091
:10282000F3FF012229463046FEF76AFA40F6B83037
:1028300002F0EAFF23462B2221A11748FFF770FC84
:102840002346182229492A48FFF76AFC204602F04D
:10285000DBFF6423AA1069462548FFF7A5FB234642
:102860001B2224A10C48FFF75BFC40B070BD0000A8
:102870005B504E3533322048575D20496E6974698C
:10288000616C697A696E67206861726477617265EC
:102890002E2E2E0D0A000000600600205B504E35E3
:1028A00033322048575D2048617264776172652039
:1028B00072657365742E2E2E0D0A000000180240FA
:1028C0005B504E3533322048575D2053656E646946
:1028D0006E672077616B657570202B2053414D200A
:1028E000636F6E6669672E2E2E0D0A00385E000833
:1028F000800700205B504E3533322048575D20481A
:10290000617264776172652072656164790D0A0095
:10291000F0B59FB0DDE92450612800D0602000248C
:102920001094042A0BD30A788DF840204A788DF849
:1029300041208A788DF84220C9788DF84310012112
:102940008DF830108DF831008DF8323000200CAC4D
:102950000DB1295C00E0FF212218401CD17006282F
:10296000F6DB002010A923180A5C401C5A720428C8
:10297000F9DB4FF47A763346112241A14548FFF73F
:10298000CFFB002544A1625D684601F00DFB334694
:10299000032269463F48FFF7C3FB6D1C0D2DF1DB99
:1029A000334602223EA13B48FFF7BAFB282102A88A
:1029B000FDF7B2FC642323223AA13648FFF7B0FBAF
:1029C000282002AFCDE900700D230CAA40213F481A
:1029D00002F06CF8054602463DA111A801F0E4FAA8
:1029E00011A8FDF7A4FC82B2642311A92948FFF7BE
:1029F00097FB33460B223DA12648FFF791FB0024AD
:102A00000BE03A5D24A1684601F0CEFA334603227A
:102A100069462048FFF784FB641CAC4201DA202C95
:102A2000EFDB334602221EA11A48FFF779FB032D84
:102A30000ADB9DF80800D52806D19DF80900412839
:102A400002D19DF80A0070B1012D02DB9DF808004B
:102A500068B133460B2228A10E48FFF761FB4FF007
:102A6000FF301FB0F0BD3346142226A102E03346EA
:102A700015222AA10748FFF753FB0020F1E70000C9
:102A80004175746820706172616D73283133293A21
:102A90002000000060060020253032582000000091
:102AA0000D0A000053656E64696E67206175746875
:102AB00020636F6D6D616E64202871756965742087
:102AC0006D6F6465292E2E2E0D0A000080070020F0
:102AD0004175746820636F6D6D616E6420726573FB
:102AE000756C743A2025640D0A0000004175746805
:102AF00020726573703A2000417574682046414920
:102B00004C0D0A0041757468204F4B202844352035
:102B10003431203030290D0A0000000041757468FE
:102B2000204F4B20287374617475733D3030290D2C
:102B30000A0000002DE9F04190B001208DF8280036
:102B400030208DF8290090460C468DF82A104FF45D
:102B50007A7633461E222AA13048FFF7E1FA224650
:102B60002FA10BA801F020FA334604220BA92B4811
:102B7000FFF7D6FA04F245146042C4B233460E227F
:102B800029A12648FFF7CCFA224625A10DA801F07D
:102B90000BFA334604220DA92048FFF7C1FA202082
:102BA00002AFCDE9007003230AAA4021224801F0B8
:102BB0007DFF054633460F2220A11848FFF7B0FAE3
:102BC00000240BE03A5D21A1684601F0EDF933469F
:102BD000032269461148FFF7A3FA641CAC4201DAEC
:102BE000142CEFDB334602220EA10C48FFF798FAB3
:102BF0004246294602A801F0DBFE10B0BDE8F08194
:102C000052656164205446492B444154413A204462
:102C10003420343020303120333020006006002052
:102C2000253032580D0A0000526561642044435338
:102C30002063616C633A2000800700205265616464
:102C400020726573706F6E73653A200025303258BC
:102C5000200000002DE9F047894693A1B4B08246D8
:102C6000D1E90001CDE92B010020186058601872ED
:102C70001C4690464FF47A7633461E228CA1944827
:102C8000FFF74EFA3346182292A19148FFF748FA0F
:102C900060212BA8CDE90001002342464946504659
:102CA000FFF736FE18B13346162291A10EE032200E
:102CB00002F0AAFD4B4624AA01215046CDF800801F
:102CC000FFF738FF334640B114228FA18048FFF749
:102CD00027FA002034B0BDE8F0870C2290A17C4890
:102CE000FFF71EFA002524AF91A17A5D01A801F03B
:102CF0005BF93346032201A97548FFF711FA6D1CF1
:102D0000102DF1DB3546334602227EA17048FFF7D5
:102D100007FA9DF8902022709DF892006070009054
:102D20000190134684A105A801F03EF905A8FDF71E
:102D3000FEFA82B22B4605A96548FFF7F1F9642037
:102D400002F062FD2B461A2288A16148FFF7E8F9DC
:102D5000207828AB1EAA2EA9FDF760FD0028B9D067
:102D600020AE9DF87800CDE900069DF8B8304246C7
:102D70004946504600F0A6FB0028ABD09DF8A010B5
:102D80009DF87820CDE90021A01CCDE902609DF8D6
:102D9000B830424649465046FDF79AFD002899D082
:102DA000642002F031FD2B461A2277A14848FFF734
:102DB000B7F9607829AB1FAA2DA9FDF72FFD0028D0
:102DC00088D09DF8B4309DF8B8002FAE834212D160
:102DD0009DF87C009DF8781088420CD12B461C226F
:102DE00070A13B48FFF79CF920AF97E80F002FAF89
:102DF00087E80F000AE09DF87C00CDE90006424616
:102E00004946504600F05EFB0028A8D09DF8A4106B
:102E10009DF87C20CDE90021601DCDE902609DF880
:102E2000B430424649465046FDF752FD002896D040
:102E3000012020722B461A2261A12548FFF770F964
:102E4000A3782079E178CDE90103CDE90310009161
:102E5000227862A105A801F0A7F805A8FDF767FA96
:102E600082B22B4605A91A48FFF75AF96379E1792E
:102E7000A079CDE90113CDE903010090627865A145
:102E800005A801F091F805A8FDF751FA82B22B468A
:102E900005A90F48FFF744F92B4618226BA10C48EF
:102EA000FFF73EF9012015E7FFFFFFFFFFFF0000DE
:102EB0000D0A3D3D3D3D3D20B6C1C8A1B7E5CEBBA5
:102EC000D0C5CFA2203D3D3D3D3D0D0A0000000094
:102ED000600600205B5065616B5D20B6C1C8A1C96A
:102EE000C8C7F830BFE9312E2E2E0D0A00000000B1
:102EF0005B5065616B5D20C9C8C7F830C8CFD6A4E8
:102F0000CAA7B0DC0D0A00005B5065616B5D20BF95
:102F1000E931B6C1C8A1CAA7B0DC0D0A00000000A3
:102F20005B5065616B5D20BFE9313A200000000015
:102F300025303258200000005B5065616B5D20B782
:102F4000E5CEBB3A20B7E5313D2564B5C0283078E1
:102F500025303258292C20B7E5323D2564B5C028EC
:102F6000307825303258290D0A0000000D0A5B50D8
:102F700065616B5D20B6C1C8A1B7E531CAFDBEDD94
:102F80002E2E2E0D0A0000000D0A5B5065616B5D50
:102F900020B6C1C8A1B7E532CAFDBEDD2E2E2E0D6A
:102FA0000A0000005B5065616B5D20B7E532D3EB32
:102FB000B7E531CDACBFE9A3ACB8B4D3C30D0A00BB
:102FC0000D0A3D3D3D3D3D20B7E5CEBBBBE3D7DC23
:102FD000203D3D3D3D3D0D0A00000000B7E5313A82
:102FE000202564B5C02C20CAFDBEDD3D5B253032F6
:102FF00058202530325820253032585D2028CAAE5E
:10300000BDF8D6C63A5B25752025752025755D2946
:103010000D0A0000B7E5323A202564B5C02C20CA5D
:10302000FDBEDD3D5B25303258202530325820254D
:103030003032585D2028CAAEBDF8D6C63A5B257539
:103040002025752025755D290D0A00003D3D3D3D7B
:103050003D3D3D3D3D3D3D3D3D3D3D3D3D3D3D3DA0
:103060000D0A0D0A000000002DE9F04F0F468146C1
:103070004FF47A75D3B02B4623227AA18248FFF70A
:103080004FF864234FF480720DA98048FEF78CFF3F
:103090007F4C0020012220807E497C48FEF7DCFF27
:1030A0002B462F227CA17848FFF73AF886A04DAE38
:1030B00007C886E807002B460B224DA97348FFF787
:1030C0002FF840F6B83002F09FFB228881A16846B5
:1030D00000F06AFF6846FDF72AF982B22B4669467E
:1030E0006948FFF71DF8208848B1A8462B461D22E5
:1030F00081A16548FFF714F80025664E0FE02B46C6
:10310000232285A1A4E0725D8CA150A800F04CFFA1
:103110004346032250A95C48FFF702F86D1C208843
:103120008542F0DB45464346022272A15648FEF72F
:10313000F7FF2B46242283A15348FEF7F1FF002519
:103140007EE0705DD5287AD106EB050A9AF8010079
:103150004B2874D12A4685A1684600F025FF6846B1
:10316000FDF7E5F882B2434669464748FEF7D8FFC7
:10317000218805F10D00814270DB9AF8020086A1DA
:1031800083460246684600F00FFF6846FDF7CFF819
:1031900082B2434669463C48FEF7C2FFBBF1010FCD
:1031A00003D04346282285A146E09AF807203A70CA
:1031B0008DA1684600F0F8FE6846FDF7B8F882B2C7
:1031C000434669463048FEF7ABFF3A78101F0328A4
:1031D0002FD805F1080021881044884229DC711994
:1031E00048460831FDF77FF8454643461E2287A131
:1031F0002548FEF795FF00240DE000BF19F80420D4
:103200004EA150A800F0D0FE2B46032250A91E4824
:10321000FEF786FF641C3878A042EFDC2B460222C2
:1032200034A11948FEF77CFF012053B0BDE8F08FB0
:1032300005E0434634227DA11348FEF771FF6D1C63
:103240002088401E8542FFF67CAF4346322285A18E
:103250000D48FEF765FF0020E7E7FFE743462A2217
:103260008DA1E9E75B504E353332205365617263BF
:10327000685D20436C656172696E67206275666681
:1032800065722E2E2E0D0A00600600208007002099
:1032900010000020C90000205B504E35333220530F
:1032A00065617263685D2053656E64696E6720496D
:1032B0006E4C69737450617373697665546172679B
:1032C00065742E2E2E0D0A000000FF04FCD44A0166
:1032D00000E100005B504E3533322053656172636C
:1032E000685D2052656365697665642025642062A7
:1032F000797465730D0A00005B504E3533322053EC
:1033000065617263685D2052617720726573706FCA
:103310006E73653A200000005B504E353332205307
:1033200065617263685D204552524F523A204E6F7C
:1033300020726573706F6E73650D0A002530325808
:10334000200000005B504E353332205365617263BC
:10335000685D2050617273696E6720726573706F6B
:103360006E73652E2E2E0D0A000000005B504E3548
:103370003332205365617263685D20466F756E64F9
:1033800020443520344220617420696E64657820C1
:1033900025640D0A000000005B504E353332205387
:1033A00065617263685D206E756D5F7461726765DB
:1033B0007473203D2025640D0A0000005B504E35DB
:1033C0003332205365617263685D204552524F521B
:1033D0003A206E756D5F7461726765747320213D6C
:1033E00020310D0A000000005B504E35333220536F
:1033F00065617263685D20554944206C656E677431
:1034000068203D2025640D0A000000005B504E3509
:103410003332205365617263685D205549442065ED
:1034200078747261637465643A2000005B504E35B5
:103430003332205365617263685D204552524F52AA
:103440003A20496E76616C696420554944206C6568
:103450006E677468206F72206275666665720D0A09
:10346000000000005B504E353332205365617263BB
:10347000685D204552524F523A204E6F204435200D
:10348000344220666F756E6420696E2072657370B9
:103490006F6E73650D0A00005B504E35333220535A
:1034A00065617263685D204552524F523A20526501
:1034B00073706F6E736520746F6F2073686F7274B2
:1034C0000D0A00002DE9F04794B082469046DDE9F0
:1034D0001C0641A28946D2E90012CDE911121C4610
:1034E00000EB8400C5B21A463DA102A800F05CFDC5
:1034F00002A8FCF71CFF82B24FF47A773B4602A980
:103500003D48FEF70DFE602111A8CDE90001A0069F
:10351000030E424649465046FFF7FAF950B122469B
:1035200036A102A800F040FD02A8FCF700FF82B21D
:103530003B4624E0322002F067F92A4635A102A872
:1035400000F032FD02A8FCF7F2FE82B23C463B4698
:1035500002A92948FEF7E4FD4B463246294650466B
:10356000CDF80080FFF7E6FA2A4680B12FA102A825
:1035700000F01AFD02A8FCF7DAFE82B2234602A987
:103580001D48FEF7CDFD002014B0BDE8F0872DA149
:1035900002A800F009FD02A8FCF7C9FE82B2254688
:1035A000234602A91448FEF7BBFD002429A1325D81
:1035B000684600F0F9FC2B46032269460E48FEF7E8
:1035C000AFFD641C102CF1DB2B46022209A10A4836
:1035D000FEF7A6FD0120D7E7FFFFFFFFFFFF00007A
:1035E0005B5065616B5D20C8CFD6A4C9C8C7F825FC
:1035F000642E2E2E0D0A0000600600205B506561CF
:103600006B5D20C9C8C7F82564C8CFD6A4CAA7B0C7
:10361000DC0D0A005B5065616B5D20B6C1C8A1BFBF
:10362000E925642E2E2E0D0A000000005B50656116
:103630006B5D20BFE92564B6C1C8A1CAA7B0DC0D87
:103640000A0000005B5065616B5D20BFE925643AAC
:10365000200000002530325820000000094D4FF4B2
:10366000FA74012210212846FDF74AFB204601F09A
:1036700069F9002210212846FDF742FB204601F09F
:1036800061F9EEE700140240F0B54FF47A748DB0A2
:1036900023462A2232A13E48FEF742FD2346182245
:1036A0003CA13B48FEF73CFD23462C223FA1384875
:1036B000FEF736FD601002F0A7F8484E307818B9D2
:1036C000FFF794F80120307001A909A8FFF7CCFC9E
:1036D000234638B1122242A12D48FEF721FD0025D4
:1036E00009AF0EE01A2243A128E07A5D48A10BA899
:1036F00000F05AFC234603220BA92548FEF710FDD3
:103700006D1C9DF804008542EFDB2346022242A196
:103710001F48FEF705FDC82002F076F83F480290EA
:103720003F4B9DF8042009A902A8FFF793FA23460E
:103730004FF0200208B13BA100E042A11448FEF77F
:10374000EFFC23461A2247A11148FEF7E9FC204668
:1037500002F05AF80020706002F07CF80DB0F0BD65
:103760000D0A3D3D3D3D3D3D3D3D3D3D3D3D3D3DEC
:103770003D3D3D3D3D3D3D3D3D3D3D3D3D3D3D3D79
:103780003D3D3D3D3D3D3D3D3D3D0D0A00000000C0
:10379000600600205B504E353332205461736B5D00
:1037A00020C8CECEF1C6F4B6AF0D0A003D3D3D3D7A
:1037B0003D3D3D3D3D3D3D3D3D3D3D3D3D3D3D3D39
:1037C0003D3D3D3D3D3D3D3D3D3D3D3D3D3D3D3D29
:1037D0003D3D3D3D0D0A0D0A0000000000000020A7
:1037E0005B504E353332205461736B5D2055494434
:1037F0003A2000005B504E353332205461736B5DCC
:1038000020CEB4B7A2CFD6BFA8C6AC0D0A00000028
:1038100025303258200000000D0A000080070020EB
:10382000C00000205B504E353332205461736B5D15
:10383000202A2A2A20B6C1C8A1B3C9B9A6202A2A9B
:103840002A0D0A005B504E353332205461736B5D94
:10385000202A2A2A20B6C1C8A1CAA7B0DC202A2A59
:103860002A0D0A000D0A5B504E3533322054617325
:103870006B5D20C8CECEF1CDEAB3C90D0A000000C1
:10388000322001F05FF8FBE7FEE700F01FFB0120AC
:1038900001F058F8F9E7000010B5502080F31188C6
:1038A000BFF34F8FBFF36F8F02F0B6F918B1044921
:1038B0004FF080500860002080F3118810BD000098
:1038C00004ED00E030B593B030216846FCF724FDEC
:1038D00014210CA8FCF720FD1D480025016841F0CB
:1038E00080510160006800F0805011901948016813
:1038F00041F4804101600068022400F4804011908E
:103900000120039010200490009406940820CDE933
:103910000750A820CDE9090404200B906846FDF764
:10392000CFFB08B172B6FEE70CA90F2081E8310089
:103930004FF4A0500F904FF48050109005210CA828
:10394000FDF7B4FA002801D072B6FEE713B030BD1F
:1039500040380240007000400248016841F47001A4
:103960000160704788ED00E00148FDF736BF0000B8
:10397000C8070020F0B50268274B284D284E294F74
:10398000294C4FF0804C984209D0604507D0A8429E
:1039900005D0B04203D0B84201D0A04204D122F0F9
:1039A000700E4A6842EA0E0298421BD0604519D058
:1039B000A84217D0B04215D0B84213D0A04211D0BF
:1039C0001A4DA8420ED01A4DA8420BD0194DA8424C
:1039D00008D0194DA84205D0184DA84202D0184D64
:1039E000A84203D122F44075CA682A434D6922F0E7
:1039F00080022A438D68C5620D688562984201D0B5
:103A0000A04201D109690163016841F0040101602C
:103A1000012141610260F0BD00000140000400404E
:103A200000080040000C004000040140004001403C
:103A3000004401400048014000180040001C0040C4
:103A400000200040F0B5036A026A22F0010202621F
:103A500042688469124E24F073050C682C4323F0ED
:103A600002058B682B430D4DA84201D0B04205D111
:103A700023F00807CB683B4323F00403A84201D09E
:103A8000B04205D14D6922F4407215438A692A4338
:103A900042608461496841630362F0BD00000140F7
:103AA00000040140F0B5026A036A23F010030362C8
:103AB000436884690D6824F4E64444EA05248D686B
:103AC00022F0200242EA05120F4D104EA84201D00A
:103AD000B04206D1CF6822F0800242EA071222F0FB
:103AE0004002A84201D0B04207D14D6923F440639F
:103AF00043EA85038D6943EA85034360846149682D
:103B000081630262F0BD000000000140000401403A
:103B1000F0B5026A036A23F4807303624368C469E0
:103B200022F4007224F073050C68124E2C438D6849
:103B300042EA05220E4DA84201D0B04206D1CF681C
:103B400022F4006242EA072222F48062A84201D0F5
:103B5000B04207D14D6923F4405343EA05138D6900
:103B600043EA05134360C4614968C1630262F0BD62
:103B7000000001400004014030B5046A026A22F4EA
:103B8000805202624268C3690D6823F4E64343EA47
:103B900005238D6824F4005444EA0534084DA842F6
:103BA00002D0084DA84204D14D6922F4804242EA75
:103BB00085124260C36149680164046230BD00003F
:103BC000000001400004014010B5806B0021C18558
:103BD000FDF796FF10BD01680C3151E8002F22F46B
:103BE000907241E80023002BF5D10168143151E8AF
:103BF000002F22F0010241E80023002BF5D1016BD8
:103C0000012909D101680C3151E8002F22F010027E
:103C100041E80023002BF5D1202180F8421000213B
:103C20000163704708B590F84210222901D00220A4
:103C300008BD82684FF480539A4201D1016921B1D5
:103C4000816A9A421BD04AB10AE00268816A5268CE
:103C5000C2F308020A80816A891C08E0026972B115
:103C60000268526802F07F020A70816A491C816210
:103C7000C18D491E0904090CC18503D01BE00268EF
:103C80005268F1E70168CA6822F02002CA60016840
:103C9000CA6822F48072CA6001684A6922F001028F
:103CA0004A61202180F8421000214163026B012A01
:103CB00003D0FEF7DFF9002008BD016301680C3175
:103CC00051E8002F22F0100241E80023002BF5D12B
:103CD00001680A68D20602D50A6849680091818D98
:103CE000FDF70DFFE7E7000070B5044600680169C5
:103CF000E26821F44051114301612169A068E26941
:103D000008436169114308432168CA6849F20C639A
:103D10009A430243CA6020684169A26921F4407154
:103D20001143416131492068884202D030498842BC
:103D300002D1FDF785F901E0FDF772F9E269002390
:103D4000192164253226B2F5004F626828D0A0FB05
:103D50000101930F9200FCF795FA0146B0FBF5F0D4
:103D60006FF01802504301EB800006EB0010B0FB2F
:103D7000F5F000F0F002B1FBF5F002EB0012B1FB40
:103D8000F5F06FF01803584301EB800006EB0010CC
:103D9000B0FBF5F000F00F0021681044886070BDA2
:103DA000A0FB010192185B41FCF76CFA0146B0FBE5
:103DB000F5F00201B1FBF5F06FF01803584301EB89
:103DC000800006EBC000B0FBF5F000F0F80002EB5D
:103DD0004002B1FBF5F0584301EB800006EBC00058
:103DE000B0FBF5F000F00700D6E70000001001403E
:103DF0000014014081628285C28500214164222134
:103E000080F84210016921B10168CA6842F48072E9
:103E1000CA6001684A6942F001024A610068C168EB
:103E200041F02001C160002070472DE9F843984619
:103E300017460D460446089E24E0701C22D0FCF76D
:103E400065FFA0EB0800B0421AD8CEB12068C16867
:103E5000490717D5802D15D0402D13D00168C943CF
:103E600009070FD401680025406800902046FFF73D
:103E7000B2FE0820606484F840500120BDE8F88359
:103E80000320FBE72068006835EA000004D000202A
:103E9000B842D2D00020F1E70120F9E70148FDF750
:103EA00031BE0000A80600200148FDF72BBE00002F
:103EB000F00600200148FDF725BE0000380700206D
:103EC0000148FDF71FBE00008007002019488178D7
:103ED00000292ED001780A2928D31749B1F90230D8
:103EE000B1F9042000EE103AB1F90610F8EEC00A5C
:103EF0009FED120A20EE801ADFED110A21EE201A42
:103F000080ED021A01EE102AB8EEC11A21EE001A55
:103F100021EE201A80ED031A01EE101AB8EEC11A34
:103F200021EE000A20EE200A80ED040A00218170B3
:103F300001707047AC0000200045002000000038F0
:103F400000003443154810B5817800290DD103468F
:103F500001781B79002211B1012903D006E0552B0D
:103F600003D103E0532B01D0027010BD0C4C6354FD
:103F7000491CC9B2017002290AD3631813F8024C14
:103F8000FB2C05D113F8013C462B01D10123837092
:103F90006429EAD30270827010BD0000AC000020DA
:103FA00000450020FEE700000FB4084B10B504A93F
:103FB00002AA039800F0EEF8044602A9002000F0DF
:103FC0006CFC204610BC5DF814FB00009B48000808
:103FD0000907090E002804DB00F1E02080F8001436
:103FE000704700F00F0000F1E02080F8141D7047CA
:103FF00002E008C8121F08C1002AFAD170477047B2
:10400000002001E001C1121F002AFBD1704700000F
:104010002DE9FF5F82B00021DDE90430020DDDF8FB
:1040200040B0034318D044F61050A2F2FF3242438E
:104030001514119801281FD0A5EB0B00401C5FEA56
:10404000000A4FF000064E4FDFF83891B046504658
:1040500015D5CAF1000413E0119801244AA30128E0
:1040600001D16FEA0B010298119AC0E90031C0E951
:10407000024206B0BDE8F09FCBF10000DFE7044646
:104080000021404A491842EB0450CDE9001012E0EB
:10409000E00707D032463B4640464946FCF72AFA3D
:1040A0008046894632463B4610461946FCF722FABE
:1040B00006460F466410002CEAD1DDE90401DDE973
:1040C0000023BAF1000F06DAFCF714FA42464B4619
:1040D000FCF710FA05E0FCF77FFA42464B46FCF786
:1040E0007BFA04460E460022284BFCF7FDFA03D863
:1040F0004FF0FF30014607E00022254B20463146B5
:10410000FCF751F9FCF7D7FA102409E0002C0ADB80
:104110000A220023FCF7B6F8039B30321A55641EBE
:1041200050EA0102F2D1641C039AC4F11103144451
:10413000119A012A03D0012208430DD10AE0084355
:1041400004D000204FF0110B119072E7A3EB0B0588
:104150006D1E0DE05B4504DD4FF0000205F1010529
:1041600004E003DA4FF00002A5F10105002AECD0CB
:1041700002981199C0E90231C0E9004579E70000D1
:10418000000014400000F03F300000000000F04349
:104190000000E03F2DE9FF4F95B09A46884606465D
:1041A0000025EEE1252877D100242746F94A012190
:1041B000039400E0044316F8013F203B01FA03F0AA
:1041C0001042F7D130782A2811D06FF02F033078C1
:1041D000A0F13002092A16D8039A44F0020402EB37
:1041E000820203EB42021044761C0390EFE758F87A
:1041F000042B0392002A03DA504244F40054039043
:1042000044F00204761C30782E2816D116F8010FDF
:1042100044F004042A280DD06FF02F023078A0F16A
:104220003003092B09D807EB870302EB4303C718B8
:10423000761CF3E758F8047B761C30786C280FD096
:1042400006DC4C2817D068280DD06A2814D104E069
:10425000742810D07A280FD10DE044F400140AE03D
:1042600044F4801401E044F440147278824202D194
:1042700004F58014761C761C307866280BD013DC8D
:10428000582877D009DC002875D04528F6D0462874
:10429000F4D047281AD193E118E0632835D0642878
:1042A00079D0652812D18BE1702873D008DC67289B
:1042B000F1D069286FD06E280DD06F2806D1ACE000
:1042C00073282CD0752874D0782853D0524617996B
:1042D00090476D1C54E1C4F30250022809D0032812
:1042E0000DD0D8F8001004280DD00D6008F1040896
:1042F00046E1D8F80010EA17C1E90052F6E7D8F80D
:1043000000100D80F2E70D70F0E718F8041B8DF82F
:10431000001000208DF80100EB46012003E058F862
:1043200004BB4FF0FF3061074FF0000102D40DE0F5
:1043300009F101018946B9420FDA8145F8DB1BF822
:1043400009100029F4D108E009F1010189468142F0
:10435000FADB1BF809100029F6D103985346A0EBAD
:10436000090721463846179A00F080FA284400EBE6
:10437000090507E044E008E10DE01BF8010B524697
:1043800017999047B9F10109F7D2534621463846AB
:10439000179AF2E039E00A21C4F302524FF0000B01
:1043A0000091022A06D058F8040BC117032A09D03D
:1043B0000AE023E008F1070020F00702F2E802011A
:1043C000904605E000B2C117042A01D140B2C117DE
:1043D000002906DA0A460021404261EB02012D2243
:1043E00002E0220504D52B228DF80420012203E0EF
:1043F000E20701D02022F7E7914657E00A2100E0CA
:1044000010214FF0000B00910BE010214FF0000B3A
:1044100044F004040827009103E008204FF0000B4B
:104420000090C4F30252022A05D058F8040B002170
:10443000032A08D008E008F1070020F00702F2E89C
:104440000201904603E080B2042A00D1C0B24FF0CE
:10445000000922072AD53278702A07D0DDF800C07B
:104460008CF0100C5CEA0B0C05D00EE040228DF8AD
:104470000420012208E050EA010306D030238DF821
:1044800004308DF8052002229146009B83F008033A
:1044900053EA0B030AD150EA010201D1620705D5A4
:1044A00030228DF804204FF001097F1E3278582AFF
:1044B00004D039A20C920CAA02920BE03BA2F9E7BD
:1044C0005B46009AFBF7DEFE0C9B9B5C029A521E39
:1044D0000292137050EA0102F2D1029804A9081A5C
:1044E00000F1200B600702D524F4803400E001279E
:1044F0005F4502DDA7EB0B0000E0002000EB0B01A5
:10450000009003984944401A0390E00306D45346B0
:104510002146179A039800F0A9F90544002706E000
:1045200001A85246C05D179990476D1C7F1C4F45EE
:10453000F6DBE0030CD553462146179A039800F0AA
:1045400095F9054404E030205246179990476D1CB8
:104550000099481E00900029F5DC08E002980299B5
:1045600052460078491C0291179990476D1CBBF187
:104570000001ABF1010BF1DC5BE100F065F90544F2
:10458000761C307800287FF40DAE19B02846BDE8BF
:10459000F08F0000092801003031323334353637CE
:1045A000383961626364656600000000303132337F
:1045B000343536373839414243444546000000001F
:1045C000600700D4062708F1070020F00700F0E894
:1045D0000223804603F0004C5FEA0C0001D097A054
:1045E00009E0200501D596A005E0E00701D095A0DF
:1045F00001E0AFF24C001390307823F000436528BF
:104600000CD006DC452809D046281DD047287FD18C
:104610003BE0662818D067287AD136E00021112FB8
:1046200001DB112000E0781CCDE9000104A90CA8F1
:10463000FFF7EEFCDDE90D010C9A4FF0000B07F1DE
:104640000109109200914EE04FF000400097CDE933
:10465000011004A90CA8FFF7DBFCDDE90D020C9B9F
:104660000F994FF0000B91461093009211B9791CED
:1046700000EB0109B7EB090003D4C0F1FF3B07F1E0
:104680000109A9EB0700019042E0012F00DA0127A0
:104690000021112F01DD112000E03846CDE9000195
:1046A00004A90CA8FFF7B4FCDDE90D010C9A0091F8
:1046B0004FF0000BB946109221070FD4009A4A45DB
:1046C00003DA914601E0A9F10109B9F1010F05DD15
:1046D000109AA9F10101515C3029F4D0B84202DAF4
:1046E00010F1040F03DA0121CDE9011010E00028D8
:1046F00003DC8344A9EB000102E0411C494500DDD5
:104700008946A0EB0B00401C01904FF00040029046
:10471000200705D40198484502DB4FF0FF30019097
:1047200000208DF84B0002980DF14B07B0F1004FBF
:1047300025D002200C902B200D90029800280CDA36
:10474000404202902D200D9007E00A210298FBF7CD
:10475000F5FD3031029007F8011D0C99481E0C90B0
:104760000029F2DC02980028EFD1791E0D9808701C
:10477000307800F0200040F0450007F8020D11A845
:10478000C01BC01D02901398007800B1012000EBFF
:104790000901019801EBE071029801440398401A65
:1047A000401E0390E00306D453462146179A03980F
:1047B00000F05CF805441398007818B15246179938
:1047C00090476D1CE00323D553462146179A039862
:1047D00000F04CF805441BE0BBF1000F07DB00982C
:1047E000584504DD1098179910F80B0001E017994F
:1047F00030205246904701980BF1010B401E05F105
:104800000105019004D12E205246179990476D1C46
:10481000B9F10001A9F10109DEDC05E017F8010B8F
:104820005246179990476D1C0299481E0290002924
:10483000F4DC53462146179A03989EE62D000000AB
:104840002B000000200000002DE9F0410446002567
:104850001E461746880404D405E039462020B04798
:104860006D1C641EF9D52846BDE8F0812DE9F041A4
:10487000044600251E469046C80301D5302700E0B7
:104880002027880404D505E041463846B0476D1C12
:10489000641EF9D52846BDE8F0810A68531C0B60F8
:1048A000107070471CB5FCF73FFAFFF70BF8FDF7E7
:1048B000C7FCFDF729FFFDF743FFFDF709FFFDF7F3
:1048C0005BFFFDF735FEFDF769FEFDF799FEFDF78D
:1048D000CBFEFDF75DFDFDF7C3FDFDF78DFDFDF79B
:1048E000F3FDFDF765FF00208DF800008DF8040052
:1048F000012269460B48FDF7AFFB012269460A48D1
:10490000FDF7AAFB012201A90848FDF7A5FB01223A
:1049100007490848FDF7A0FBFDF754FC00F019F823
:10492000FEE70000F0060020A8060020380700205F
:10493000C90000208007002001460020842900D003
:10494000C81C704710B500B9012000F05DFF0020C1
:1049500010BD10B500F0D4FF002010BD7FB50D468E
:1049600004464169B0F9080081B1A16971B1FFF74E
:10497000E3FFD4E905128DE80700D4E900102B46C7
:10498000226901F01EF9039004B070BDFFF7D4FF57
:1049900003A9CDE90001208A2B4682B2D4E9001098
:1049A00001F0E2F8012801D00020EDE70398EBE7E1
:1049B00070B54FF47A734FF0FF34032907DB0578A5
:1049C000D52D04D14578412D01D1857835B1002907
:1049D00001DD0578ADB11C2212A10DE0132909DB20
:1049E00000214418E4785454491C1029F9DB1C2296
:1049F00014A111E01F221BA12348FDF791FB2046C3
:104A000070BD1129F6DB0021441864785454491C08
:104A10001029F9DB1D221DA11B48FDF781FB002099
:104A200070BD000052656164206661696C65643A1E
:104A300020756E6B6E6F776E20666F726D61740D90
:104A40000A000000526561642073756363657373C7
:104A500066756C2120284435203431203030290DF2
:104A60000A00000052656164206661696C65643A01
:104A700020696E73756666696369656E742064612A
:104A800074610D0A00000000600600205265616438
:104A9000207375636365737366756C212028737466
:104AA000617475733D3030290D0A0000F0B591B086
:104AB0001C1E13464FF0D402DDE916658DF8002068
:104AC000074668468DF801104FF0020205DD2246C8
:104AD0001946801CFBF707FCA21C6946384600F00B
:104AE000C9F800284FF0640332D01C222FA13748A8
:104AF000FDF716FB0A23012210A93846FDF754FAE8
:104B000000282DD06423132231A13048FDF708FB83
:104B1000C821384600F06AFB00282ED04FF4FA7303
:104B20002A463146384600F0F1FB041E0DDC0246F1
:104B30002CA108A8FFF738FA08A8FBF7F8FB82B207
:104B4000642308A92148FDF7EBFA204611B0F0BD17
:104B500013222AA11D48FDF7E3FA4FF0FF30F5E7D5
:104B60009DF840202AA108A8FFF71EFA08A8FBF725
:104B7000DEFB82B2642308A9C7E764230D2228A1C3
:104B80001248FDF7CDFA6423172229A10F48FDF73B
:104B9000C7FA4FF47A74234625222CA10B48FDF75F
:104BA000BFFA204600F030FE0020CFE7436865637F
:104BB0006B696E6720554152543620666F722064CF
:104BC0006174612E2E2E0D0A000000006006002088
:104BD0004E6F20696D6D65646961746520646174F0
:104BE000610D0A00526573706F6E73652074696D94
:104BF000656F75743A2025640D0A000053656E6474
:104C0000206672616D65206661696C65640D0A00DD
:104C1000466F756E643A202530325820000000003F
:104C200041434B2074696D656F75740D0A00000077
:104C30004175746820636F6D6D616E642072657379
:104C4000756C743A20300D0A0000000057616974D9
:104C5000696E6720313030306D7320616674657223
:104C6000206175746820636F6D6D616E642E2E2EE9
:104C70000D0A00002DE9F74F0024D7B278428B4689
:104C800000F0FF09A0B016462146204605E000BF0F
:104C90001BF80020401C114489B2B042F8DB4842A6
:104CA00000F0FF0A002301221EA92098FDF77CF9DD
:104CB0000028F7D001AD4FF0000805F80480641C0F
:104CC000FF2005F80480641C32462855641C5946B0
:104CD0002F55641C05F80490641C2819FBF703FB8E
:104CE0003444642305F804A0641C102205F80480F1
:104CF0001BA11F48641CFDF713FA00260BE0AA5DF8
:104D00001CA112A8FFF750F96423032212A9184826
:104D1000FDF706FA761CA642F1DB6423022217A1F6
:104D20001348FDF7FDF9A2B24FF47A7301A9209858
:104D3000FDF7F6F9020010D011A111A8FFF734F920
:104D400011A8FBF7F4FA82B2642311A90848FDF711
:104D5000E7F9002023B0BDE8F08F0120FAE700005A
:104D600046756C6C205458206672616D653A20005F
:104D70006006002025303258200000000D0A000097
:104D800055415254205458206661696C65643A203C
:104D900025640D0A000000002DE9F041184C0F4673
:104DA0000546E6682068001D00F03CFC38B9206824
:104DB00090F82C1001208840216981432161681CF2
:104DC00007D137B12168BDE8F0410E48091D00F058
:104DD0006DBC20683544B5424560216805D2A06BA2
:104DE000BDE8F041091D00F049BC606B091D00F0F1
:104DF00045FCA06A854200D2A562BDE8F0810000B2
:104E000044000020EC0800202DE9F041054600F0A8
:104E100059FC2E4CA068401CA06020682C4F10B19B
:104E2000606940B32DE02560A068012829D10026E3
:104E300006EB860007EB800000F012FC761C072EC4
:104E4000F6D323488C3000F00BFC2148A03000F052
:104E500007FC1F48B43000F003FC1D48C83000F0C8
:104E6000FFFB1B48DC3000F0FBFB19488C30606313
:104E70001430A06305E02068E96AC06A884200D85F
:104E80002560606A401C6062E96A012022698840EE
:104E90001043206101EB810007EB8000291D00F029
:104EA00005FC00F02FFC606900280CD02068E96A3E
:104EB000C06A884207D207494FF080500860BFF3AC
:104EC0004F8FBFF36F8FBDE8F081000044000020DA
:104ED0001008002004ED00E010B5044690F85100E1
:104EE00058B101280CD002280FD0502080F311882F
:104EF000BFF34F8FBFF36F8FFEE7206B00F016FC00
:104F00002046BDE8104000F011BC10BD10484FF421
:104F10007051420706D0C01D0D4920F00700411A0C
:104F2000C1F570510B4A00230144C2E9000308395E
:104F3000183A21F0070111604B600B600B1AC0E9B1
:104F4000001393604FF000405360506170470000C1
:104F50000009002098000020144E154CA6F1C80747
:104F60004FF08058DFF84C9012E000BF00F0AAFB31
:104F7000F068C568281D00F055FBA068401EA060C1
:104F80006068401E606000F0BDFB2846FFF7A4FF8C
:104F900060680028EAD138680128F9D9C9F800808A
:104FA000BFF34F8FBFF36F8FF2E70000D8080020E8
:104FB0004400002004ED00E02DE9F0479A46DDE9C9
:104FC000098481466FF00303206B03EB82021044D7
:104FD000089E20F00707780707D0502080F311883B
:104FE000BFF34F8FBFF36F8FFEE7002561B1002045
:104FF00023180A5C83F834200A5C12B1401C102884
:10500000F6D384F8435001E084F83450072E00D3DF
:105010000626E662C4E91165201D00F02CFB04F1B0
:10502000180000F028FB2461C6F107006462A0614B
:10503000E56484F8505052464946384600F0C0F8BE
:105040002060B8F1000F01D0C8F80040BDE8F0873B
:1050500030B5114900E011460A688242FBD34B6823
:105060005C18844203D1406818444860084643688D
:105070001C18944209D1084C183C2468A24209D05B
:1050800052681A4442600A6812680260814200D085
:10509000086030BD0460F9E7980000200648416BC5
:1050A000096829B1416BC968C9684968816270475C
:1050B0004FF0FF31FAE70000440000200848406844
:1050C000401C4FF0500080F3118804D0BFF34F8F85
:1050D000BFF36F8FFEE7BFF34F8FBFF36F8FFEE716
:1050E000A00000202DE9F0410546002700F03EFC1D
:1050F000324E306808B9FFF709FF706905424ED19A
:10510000C5B3083568070ED005F00700C0F10800E8
:105110000544680707D0502080F31188BFF34F8FF4
:10512000BFF36F8FFEE72DB37068854237D82348F1
:10513000183001460C6801E020460C466168A9421F
:1051400002D221680029F7D131688C4227D0076844
:105150002168016060680837411B10290FD9601968
:10516000420708D0502080F31188BFF34F8FBFF360
:105170006F8FFEE713E041606560FFF769FF6168CC
:105180007068401A7060B268904200D2B060706976
:1051900001430020C4E90001F068401CF06000F009
:1051A000DBFD780707D0502080F31188BFF34F8FC5
:1051B000BFF36F8FFEE73846BDE8F0818000002026
:1051C00010B5031F4FF080741C601B1F21F00101FC
:1051D0001960191F044B0B6014390A60091F6FF026
:1051E000020244380A6010BDBD5000082DE9FC5F82
:1051F00030A00F46D0F800A0FBF788FDDFF8B8908C
:1052000006466423B9F8004013222CA13148FCF76C
:1052100087FFDFF8C4B03FE0B9F80010A14238D9E9
:105220002546C8460DE000BF1BF805202BA16846A7
:10523000FEF7BAFE6423032269462648FCF770FF96
:105240006D1CB8F800008542EEDBCAF307420092FD
:105250000AF0FF03CAF3072E5946C21E16E00D5D81
:105260009D4212D10D1995F80180F0450DD195F8A8
:1052700002C0009DAC4508D16423112219A1154834
:10528000FCF74EFF0120BDE8FC9F641C9442E6DD64
:1052900004460A2000F0B8FAFBF738FD801BB8423C
:1052A000BAD364230F2214A10A48FCF739FF002067
:1052B000E9E700000000FF0010000020576169745A
:1052C000696E6720666F722041434B2E2E2E0D0AA9
:1052D0000000000060060020C90000202530325880
:1052E000200000000D0A41434B207265636569761A
:1052F0006564210D0A0000000D0A41434B207469CA
:105300006D656F7574210D0A000000002DE9FF4FD7
:105310008DB01746FBF7FAFC774E8346002534889C
:105320004FF0FF396423182274A17B48FCF7F8FE84
:105330003088DFF8E8A18646C01E36D451460A5CA4
:105340008ABB0A18537873BB9378FF2B2BD1031DAC
:10535000734528DAD678F31D00EB030CF44522DC04
:105360001279324412F0FF0F1DD14FF0000C421D94
:10537000634607E002EB03085B1C11F80880C44495
:105380001FFA8CFCB342F5DB9319CB5C634413F03A
:10539000FF0F08D1032E06D38B5CD52B03D18B18BE
:1053A0005B78412B02D0401EC9D594E0BE4200DAA2
:1053B00037460AEB02013A460E98FAF794FF3B464D
:1053C000324657A16FE04C480188A1427BD926465E
:1053D00080460CE01AF806205BA16846FEF7E4FD63
:1053E0006423032269464C48FCF79AFE761CB8F801
:1053F00000108E42EEDB68E01AF80400534635B127
:10540000012D08D0022D09D0032D0FD05CE0E8BBA0
:10541000A146012558E028B9022555E0FF2801D111
:10542000032551E000254FF0FF394DE009F104005C
:10543000844249DB03EB0902D678F01D4844401E44
:10544000A04241DC1079304410F0FF0FEAD1002275
:1054500009F10505104606E005EB000C401C13F8A9
:105460000CC0624492B2B042F6DBA819185C10443A
:1054700010F0FF0FD6D1032ED4D3585DD528D1D14B
:105480000AEB050040784128CCD100E01CE0BE4288
:1054900000DA37460AEB05013A460E98FAF723FF81
:1054A0003B4632462AA16846FEF77EFD6846FAF77B
:1054B0003EFF82B2642369461748FCF731FE384646
:1054C00011B0BDE8F08F03E0641C8C4294DB0C4605
:1054D0000A2000F099F9FBF719FCA0EB0B011098DA
:1054E0008142FFF470AF6423142225A10A48FCF71F
:1054F00017FE0020E4E700001000002057616974E7
:10550000696E6720666F7220726573706F6E736567
:105510002E2E2E0D0A00000060060020C90000207B
:10552000504E35333220726573706F6E736520662E
:105530006F756E643A204C454E3D25642C20636F98
:1055400070793D25640D0A00253032582000000096
:105550000D0A504E35333220726573706F6E73656D
:105560002072656365697665643A204C454E3D2539
:10557000642C20636F70793D25640D0A00000000E3
:105580000D0A526573706F6E73652074696D656F77
:105590007574210D0A00000008B51F49002300930F
:1055A0004A78632808D06F280CD06E280FD0652861
:1055B00016D074281AD01BE012B1052A14D017E0B7
:1055C000012002E0012A13D10220487008BD022AFE
:1055D00002D0032A02D00BE00320F6E70420F4E710
:1055E000042A05D10520F0E70620EEE7062A01D0BF
:1055F0004B7008BD09484B706946006800F066FAB8
:1056000000980028F5D006494FF080500860BFF39D
:105610004F8FBFF36F8F08BD300000201C000020AB
:1056200004ED00E0D0E9013201699A60D0E901237C
:105630005A604A68824201D182684A60002202614F
:105640000868401E0860086870470000034B03604C
:1056500003F154000860802010607047CC010020E6
:1056600000F108014FF0FF32C0E90112C160016191
:1056700000210160704700210161704730B50B685F
:105680005A1C02D000F1080202E0026904E022463E
:10569000546825689D42FAD953684B6099608A60C6
:1056A000516008610168491C016030BD42684A6070
:1056B00093688B6093685960916008610168491C28
:1056C00001607047502080F31188BFF34F8FBFF304
:1056D0006F8F0A494868401C486001280CD108486F
:1056E000006810F0FF0F07D0502080F31188BFF33F
:1056F0004F8FBFF36F8FFEE770470000A0000020C0
:1057000004ED00E00849486828B1401E486001D116
:1057100080F311887047502080F31188BFF34F8FBA
:10572000BFF36F8FFEE70000A000002070B50028D7
:105730002AD0164DA0F1080460686969084207D1B3
:10574000502080F31188BFF34F8FBFF36F8FFEE7B8
:1057500022683AB1502080F31188BFF34F8FBFF316
:105760006F8FFEE78843606000F000F96068696849
:10577000084468602046FFF76BFC2869401C2861DC
:10578000BDE8704000F0E8BA70BD00008000002065
:105790004FF0E02000210161816105494FF47A72E8
:1057A0000968B1FBF2F1491E4161072101617047AF
:1057B0004000002010B5FAF74FFD114910280ED314
:1057C00000F1E02090F8F0030A78904207D25020D0
:1057D00080F31188BFF34F8FBFF36F8FFEE7094847
:1057E0000068896800F4E060884207D9502080F39F
:1057F0001188BFF34F8FBFF36F8FFEE710BD00001E
:10580000A00000200CED00E010B5020014D00F48FD
:10581000006B38B1502080F31188BFF34F8FBFF376
:105820006F8FFEE700F0A2F800211046FFF7B4FAF0
:1058300000F092FA002807D105494FF08050086027
:10584000BFF34F8FBFF36F8F10BD000044000020E7
:1058500004ED00E070B50546FFF734FF254C05B9AF
:105860002568281DFFF7DEFE58B9E86A224A00EBDA
:10587000800152F8211021B901218140206988431B
:105880002061A86A18B105F11800FFF7CBFE606A25
:10589000401C60622068854208D11748291DC83025
:1058A000FFF704FF6068401C606007E0A068401ECE
:1058B000A0602846FFF710FBFFF7F0FBFFF722FF81
:1058C0006069002814D02068854211D1206B38B15E
:1058D000502080F31188BFF34F8FBFF36F8FFEE727
:1058E00006494FF080500860BFF34F8FBFF36F8FB2
:1058F00070BD0000440000201008002004ED00E00E
:1059000010B586B00024039405AA04A903A8049442
:10591000FFF79CFEDDE903010094CDE901100023AF
:105920000EA11048059A00F04CF90F490028C862F2
:1059300011D0502080F31188BFF34F8FBFF36F8FCA
:105940004FF0FF30886201204861CC6006B0BDE8AE
:10595000104000F041B806B010BD000049444C456D
:1059600000000000594F0008440000200248016B6D
:10597000491C016370470000440000201448016B7B
:1059800011B10121C16170470021C1610169B1FA02
:1059900081F1C1F11F0101EB81020E4951F8223062
:1059A0006BB101EB820101F108034A6852684A6059
:1059B0009A4201D152684A60D16801607047502014
:1059C00080F31188BFF34F8FBFF36F8FFEE70000A6
:1059D00044000020100800201CB537480168374AF1
:1059E000914207D1502080F31188BFF34F8FBFF34E
:1059F0006F8FFEE700683149491E884207D1502069
:105A000080F31188BFF34F8FBFF36F8FFEE72C49F0
:105A100008780190FF20087008788DF800009DF844
:105A200000009DF8002000F0F000904207D05020C8
:105A300080F31188BFF34F8FBFF36F8FFEE79DF8A0
:105A40000000204C00F0500020700720A06005E00E
:105A50009DF8002052008DF80020401E9DF8002087
:105A60001206F5D4A060032807D0502080F31188D7
:105A7000BFF34F8FBFF36F8FFEE74FF44070A0600E
:105A8000019808700C482030016841F470010160F1
:105A9000016841F070410160FFF77AFE002060600C
:105AA000FAF7A2FB0848016841F040410160FAF7AB
:105AB00087FB00201CBD000000ED00E071C20F411B
:105AC00000E400E0A000002034EF00E070B50E46D6
:105AD000040009D0206C78B1502080F31188BFF306
